:20000000021EF0022387016F00C100C101000022FFFFFF022248FFFFFFFFFFFFFFFFFFFFB0
:20002000FFFFFF0222EDE55064497037E551644E7031E5526449702BE55364547025E55463
:20004000B44920121CEA1222791222A47F0A7E001223581222CA7F327E00122358122399CA
:20006000020B77E5506453600302011EE5516444600302011EE5526449600302011EE5538A
:20008000644F600302011EE554643D600302011EE557B40D0DE55624D0F533E434FFF5322C
:2000A0008057E558B40D14E55624D0FFE434FFFE7C007D0A12106DE5578030E559640D7077
:2000C00058E55724D0FFE434FFFE7C007D0A12106DAA06AB07E55624D0FFE434FFFE7D646C
:2000E00012106DEF2BFFEE3AFEE55824D0FDEC34FFCD2FF533ED3EF532E555B45305753480
:20010000038008E555B44111E4F534AD33AC32AF34121DC112233280031223100022E550F0
:20012000645360030201D9E551645060030201D9E552644F60030201D9E55364576003021F
:2001400001D9E554643D60030201D9E556B40D0DE55524D0F533E434FFF5328057E557B448
:200160000D14E55524D0FFE434FFFE7C007D0A12106DE5568030E558640D7058E55624D0FA
:20018000FFE434FFFE7C007D0A12106DAA06AB07E55524D0FFE434FFFE7D6412106DEF2B8B
:2001A000FFEE3AFEE55724D0FDEC34FFCD2FF533ED3EF532E555B4530575F9038008E555DF
:2001C000B44111E4F5F9AD33AC32AF34121C0C12233280031223100022E5506453600302CA
:2001E000031FE5516454600302031FE5526445600302031FE5536450600302031FE55464F1
:200200003D600302031FF532F533F534F535E558640D704FE55624D0FFE434FFFE7C007DCF
:200220000A12106DE55724D0FDEC34FFCD2FF533ED3EF532FEAF337C027DB312106DEF2433
:2002400037FFEE34D8FE7C077DD012107FAA06AB07AE32AF337C007D7612106DEF2BFFEED6
:200260003A8079E55A640D600302031AE55624D0FFE434FFFE7C007D0A12106DE55724D014
:20028000FDEC34FFCD2FF533ED3EF532AF597E007D4512106DAA06AB07AE32AF337C027DD6
:2002A000B312106DEF2BFFEE3ACF2447CF34CBFE7C077DD012107FAA06AB07AE32AF337CA4
:2002C000007D7612106DEF2BFFEE3AFEE55924D075F03BA475F005842FFFEC3ECF2470F549
:2002E00035EF34F9F534E555B45312AD35AC347F021220F500AD35AC347F028015E555B401
:200300004118AD35AC347F011220F500AD35AC347F011220F512233280031223100022E57C
:200320005064537042E5516448703CE55264447036E553644E7030E554643D702AE555B405
:20034000530EE557B40D09E55624D01392B68011E555B4410FE557B40D0AE55624D0139202
:20036000A6122332020B7CE5506444705FE551644C7059E55264497053E553644D704DE55A
:2003800054643D7047E557640D703CE555B45309E55624D01392B58010E555B44109E55682
:2003A00024D01392A58002801E20B5087D327C007F03800920A50E7D327C00E4FF121DC1FB
:2003C000122332800580001223100022E55064446003020536E55164496003020536E55213
:2003E000644F6003020536E55364436003020536E554643F60030205367872E6FE08E6FFF4
:20040000C3940AEE9400501C75545375553DEF2430F55675570D75580A7B007A0079507DF1
:20042000090204C8C37873E6946418E69400503A75545375553DE6FA08E6FB7C007D0AFF4F
:20044000AE0212107FEF2430F5567C007D0AAF03AE0212107FED2430F55775580D75590A78
:200460007B007A0079507D0A805EC37873E694E818E69403505775545375553DE6FA08E61C
:20048000FB7C007D64FFAE0212107FEF2430F5567C007D0AAF03AE0212107F7C007D0A120B
:2004A000107FED2430F5577872E6FE08E6FF7C007D0A12107FED2430F55875590D755A0A7F
:2004C0007B007A0079507D0B12222480031223107874E6FE08E6FFC3940AEE9400500302C1
:2004E0000649C37875E6946418E694005003020663C37875E694E818E69403503675544198
:2005000075553DE6FA08E6FB7C007D64FFAE0212107FEF2430F5567C007D0AAF03AE021259
:20052000107F7C007D0A12107FED2430F55778740206CF020B7CE550644C60030206F4E586
:2005400051644160030206F4E552645060030206F4E553644F60030206F4E554643F600373
:200560000206F4787EE6FE08E6FFC3940AEE9400501C75545375553DEF2430F55675570DDF
:2005800075580A7B007A0079507D09020632C3787FE6946418E69400503A75545375553D2F
:2005A000E6FA08E6FB7C007D0AFFAE0212107FEF2430F5567C007D0AAF03AE0212107FED9E
:2005C0002430F55775580D75590A7B007A0079507D0A805EC3787FE694E818E6940350574E
:2005E00075545375553DE6FA08E6FB7C007D64FFAE0212107FEF2430F5567C007D0AAF031F
:20060000AE0212107F7C007D0A12107FED2430F557787EE6FE08E6FF7C007D0A12107FED00
:200620002430F55875590D755A0A7B007A0079507D0B12222480031223107882E6FE08E633
:20064000FFC3940AEE9400500E75544175553DEF2430F556020AB1C37883E6946418E694D0
:2006600000502D75544175553DE6FA08E6FB7C007D0AFFAE0212107FEF2430F5567C007D49
:200680000AAF03AE0212107FED2430F557020A0BC37883E694E818E69403505575544175D0
:2006A000553DE6FA08E6FB7C007D64FFAE0212107FEF2430F5567C007D0AAF03AE0212101D
:2006C0007F7C007D0A12107FED2430F5577882E6FE08E6FF7C007D0A12107FED2430F5586D
:2006E00075590D755A0A7B007A0079507D0B020B4C020B7CE550645460030207E1E551644A
:200700004560030207E1E552644360030207E1E553645060030207E1E554643F600302079B
:20072000E178961210E2120EC98E328F33C3E53394E8E5329403503F75545375553D7C0028
:200740007D6412107FEF2430F556AE32AF337C007D0A12107F7C007D0A12107FED2430F549
:200760005775582EAE32AF337C007D0A12107FED243012221480031221AD789A1210E212AD
:200780000EC98E328F33C3E53394E8E5329403504D75544175553D7C007D6412107FEF243C
:2007A00030F556AE32AF337C007D0A12107F7C007D0A12107FED2430F55775582EAE32AF9D
:2007C000337C007D0A12107FED2430F559755A0D755B0A7B007A0079507D0C020B4C02213A
:2007E000ADE550645060030208D7E551644460030208D7E552644960030208D7E5536443F6
:2008000060030208D7E554643F60030208D7787AE6FA08E6FB7C0F7DFFFFAE0212107F8FD3
:20082000567C0F7DFFAF03AE0212107F7E007F0A12106DAA06AB077C0F7DFF12107F8F58D1
:200840007C0F7DFFAF03AE0212107F7E007F0A12106D7C0F7DFF12107F8F591221FB787C46
:20086000E6FA08E6FB7C0F7DFFFFAE0212107F8F567C0F7DFFAF03AE0212107F7E007F0A62
:2008800012106DAA06AB077C0F7DFF12107F8F587C0F7DFFAF03AE0212107F7E007F0A12B5
:2008A000106D7C0F7DFF12107F8F5975544175553D74302556F55675572E74302558F55848
:2008C00074302559F559755A0D755B0A7B007A0079507D0C020B4CE5506456600302099B5A
:2008E000E551644F600302099BE5526454600302099BE5536443600302099BE554643F60EA
:200900000302099B7876E6FC08E6FDEC1313543FF556EC5403FEAF057C007D0A12106DAC50
:2009200006EC1313543FF558EC5403FE7C0012106DEE1313543FF5591221FB7878E6FC0876
:20094000E6FDEC1313543FF556EC5403FEAF057C007D0A12106DAC06EC1313543FF558ECAD
:200960005403FE7C0012106DEE1313543FF55975544175553D74302556F55675572E743009
:200980002558F55874302559F559755A0D755B0A7B007A0079507D0C020B4CE5506454706A
:2009A0007BE55164507075E5526447706FE55364447069E554643F706330A315755453754B
:2009C000552075564F75574B75580D75590AFB801475545375552075564E75574F75580D1C
:2009E00075590A7B007A0079507D0A12222430A70E75544175552075564F75574B800C7577
:200A0000544175552075564E75574F75580D75590A7B007A0079507D0A020B4CE5506455E5
:200A20006003020AEAE55164546003020AEAE55264456003020AEAE55364436003020AEAA5
:200A4000E554643F6003020AEA30B62475505475514575524375533175542075554F755663
:200A60004E75570D75580AFB7A0079507D0980267550547551457552437553317554207589
:200A8000554F75564675574675580D75590A7B007A0079507D0A12222430A62675505475B6
:200AA000514575524375533275542075554F75564E75570D75580A7B007A0079507D09028B
:200AC0000B4C75505475514575524375533275542075554F75564675574675580D75590AC0
:200AE0007B007A0079507D0A8062E5506443705FE551644D7059E552644F7053E5536444E7
:200B0000704DE554643F704730C31E75504D75514F75524475533D7554417555507556430B
:200B200075570D75580AFB801D75504D75514F75524475533D755441755543755643755745
:200B40000D75580A7B007A0079507D09022224E55064537027E551644D7021E552644F70D0
:200B60001BE553B44416E554B43D11E556B40D0AE55524D0139202022332800012231022C0
:200B8000020F35E86480F8E933E83360110460F0ED33EC337009E8FCE9FDEAFEEBFF2204D5
:200BA00060DED3EB9FEA9EE99DE8C2E78CF0C2F795F0400CE8CCF8E9CDF9EACEFAEBCFFB33
:200BC000120F0085D0F05804700320D5B3E80470075002B2D5020F3F92D5EC0460F7E4CC4E
:200BE000C0E0C398F8603B94186008400DD0E0FB020F17E4FBFAC9FC8028E830E406E4C93E
:200C0000FBE4CAFCE830E305E4C9CACBFCE854076010F8C3E913F9EA13FAEB13FBEC13FCA3
:200C2000D8F130F52FC3E49CFCEF9BFFEE9AFEED99FDD0E0FBEF4E4D4C701222DB03020FB2
:200C40003CEC2CFCEF33FFEE33FEED33FDED30E7EB020F17EF2BFFEE3AFEED39FDD0E0FBC3
:200C600050130BBB0003020F3FED13FDEE13FEEF13FFEC13FC020F17EC4D6011E849701776
:200C8000ED33EC3304600DE4FCFFFEFD22E933E8330470F8020F35120F0058046009E4CC29
:200CA00024815006285009020F3F284003020F3CC0E0EB4A7044B98006D0E0FB020F2BEF12
:200CC0004E701CBD8008EBFFEAFEE9FD80EBE98DF0A4FEE5F0020D61E9CDF9EAFEEBFFEF15
:200CE00089F0A4FCE5F0CE89F0A42EFFE435F0CD89F0A42DFEE435F08067EF4E7005BD80F1
:200D0000D780C3EF8BF0A4ACF0EE8BF0A42CFCE435F0F8EF8AF0A42CE5F038FCE433CB8D28
:200D2000F0A42CFCE5F03BF8EE8AF0A42CFCE5F038F8E433CF89F0A42CFCE5F038CF34007B
:200D4000CE89F0A42FFFE5F03EFEE433C98DF0A42EFEE5F039CD8AF0A42FFFE5F03EFEE420
:200D60003DFD33D0E0FB50070BBB000F020F3FEC2CFCEF33FFEE33FEED33FD020F17020F35
:200D80003FEC5D046005E859047003020F35120F00580460F6EC4860F2EC7004FDFEFF228F
:200DA000C860DB2481C85009C39860025006020F3C9850CAF582E9294B4A7005AB82020F87
:200DC0002B75F0007C1A7880C3EF9BEE9AED99400DC3EF9BFFEE9AFEED99FDE842F0DC23DF
:200DE000ACF0D0E0FFD0E0FED0E0FDAB8220E7101BEB60BAEC2CFCEF33FFEE33FEED33FD78
:200E0000020F17E803F830E705C0F075F000EF2FFFEE33FEED33FD40B830E7C280AA74F8D6
:200E2000CC6480CCC86480C8F582046043C3EB9FF5F0EA9E42F0E99D42F0E89C45F06030B7
:200E40005018E5825FFFE582F42B5582FB50210ABA001D09B90019088016E5825BFBE5821E
:200E6000F42F5582FF50090EBE00050DBD00010CC3EB9FF5F0EA9E42F0E99D42F0E89C450B
:200E8000F06007CC4820E701B3EC2275F020800E75F010800575F0087D007E007F00339265
:200EA000D530D5031210D4EC334010EF33FFEE33FEED33FDEC33FCD5F0ED22E5F0247EA28B
:200EC000D513CC92E7CDCEFF22EDD2E7CD33EC3392D524814006E4FFFEFDFC22FCE4CFCE99
:200EE000CDCC24E0501174FF80EDC3CC13CCCD13CDCE13CECF13CF0470F030D5DE0210D46C
:200F0000E9D2E7C933E833F892D5EDD2E7CD33EC33FC5002B2D522EC30E7100FBF000C0E02
:200F2000BE00080DBD00040BEB6014A2D5EB13FCED92E7FD2274FFFCFDFEFF22E480F8A234
:200F4000D574FF13FC7D80E480EFE709F608DFFA8046E709F208DFFA803E88828C83E709D3
:200F6000F0A3DFFA8032E309F608DFFA8078E309F208DFFA807088828C83E309F0A3DFFA78
:200F8000806489828A83E0A3F608DFFA805889828A83E0A3F208DFFA804C80D280FA80C6D7
:200FA00080D4806980F28033801080A680EA809A80A880DA80E280CA803389828A83ECFAB6
:200FC000E493A3C8C582C8CCC583CCF0A3C8C582C8CCC583CCDFE9DEE7800D89828A83E4E0
:200FE00093A3F608DFF9ECFAA9F0EDFB2289828A83ECFAE0A3C8C582C8CCC583CCF0A3C8C9
:20100000C582C8CCC583CCDFEADEE880DB89828A83E493A3F208DFF980CC88F0EF60010ED1
:201020004E60C388F0ED2402B4040050B9F582EB2402B4040050AF2323458223900F9A73D8
:20104000BB010CE58229F582E5833AF583E0225006E92582F8E622BBFE06E92582F8E22274
:20106000E58229F582E5833AF583E49322EF8DF0A4A8F0CF8CF0A428CE8DF0A42EFE22BCFE
:20108000000BBE0029EF8DF084FFADF022E4CCF875F008EF2FFFEE33FEEC33FCEE9DEC9835
:2010A0004005FCEE9DFE0FD5F0E9E4CEFD22EDF8F5F0EE8420D21CFEADF075F008EF2FFF69
:2010C000ED33FD4007985006D5F0F222C398FD0FD5F0EA22C3E49FFFE49EFEE49DFDE49CEA
:2010E000FC22E6FC08E6FD08E6FE08E6FF22ECF608EDF608EEF608EFF62275430AE478DE46
:20110000F608F608F608F67F01121A1D7870EEF608EFF678DE121A117870EEF608EFF67899
:20112000E0E6FC08E62FF6EE3C18F6D543D978DEE6FE08E6FF7C007D0A12107F78DEA606E4
:2011400008A60708E6FE08E6FF7C007D0A12107F78E0A60608A60778DEE6FE08E6FF787095
:20116000EEF6FE08EFF6FFFDAC06E4120E908F478E468D458C44E4FBFA79207840120C7852
:201180008F478E468D458C44E4FBFA79807845120D817B9D7A1179A5783C120B878F478E57
:2011A000468D458C44A804A905AA06AB07120C787BC57AA079EA7842120C78C004C005C09F
:2011C00006C0077F817EC57D897C43AB47AA46A945A844120C78D003D002D001D000120B85
:2011E000877B047A56794E78BF120B878F4B8E4A8D498C48120EC9787EEEF608EFF678AA49
:20120000A60608F6C3940AEE94005013787FE6243078BEF608766D0876770876208038C388
:20122000787FE6946418E694005031E6FA08E6FB7C007D0AFFAE0212107FEF243078BEF63B
:201240007C007D0AAF03AE0212107FED243078BFF608766D0876770876208059C3787FE623
:2012600094E818E694035050E6FA08E6FB7C007D64FFAE0212107FEF243078BEF67C007DDF
:2012800064AF03AE0212107F7E007F0ACFCDCFCECCCE12107FEF243078BFF6787EE6FE081A
:2012A000E6FF7C007D0A12107FED243078C0F608766D08767708762078E0E6FE08E6FF7817
:2012C00070EEF6FE08EFF6FFFDAC06E4120E908F478E468D458C44E4FBFA79207840120CF9
:2012E000788F478E468D458C44E4FBFA79807845120D817B9D7A1179A5783C120B878F470C
:201300008E468D458C44A804A905AA06AB07120C787BC57AA079EA7842120C78C004C0056F
:20132000C006C0077F817EC57D897C43AB47AA46A945A844120C78D003D002D001D000126E
:201340000B877B047A56794E78BF120B878F4B8E4A8D498C48120EC97882EEF608EFF67882
:20136000ACA60608F6C3940AEE940050137883E6243078C4F608766D087677087620803834
:20138000C37883E6946418E694005031E6FA08E6FB7C007D0AFFAE0212107FEF243078C403
:2013A000F67C007D0AAF03AE0212107FED243078C5F608766D0876770876208059C37883A8
:2013C000E694E818E694035050E6FA08E6FB7C007D64FFAE0212107FEF243078C4F67C000F
:2013E0007D64AF03AE0212107F7E007F0ACFCDCFCECCCE12107FEF243078C5F67882E6FE3A
:2014000008E6FF7C007D0A12107FED243078C6F608766D08767708762022753B10E478CE3C
:20142000F608F608F608F6E4FF121A1D7870EEF608EFF678CEE6FC08E62FF6EE3C18F67FE5
:2014400003121A1D7870EEF608EFF678D0E6FC08E62FF6EE3C18F6D53BCD79CEE7C4F854F7
:20146000F0C868F709E7C4540F48F709E7C4F854F0C868F709E7C4540F48F778CEE6FE0860
:20148000E6FF7C007D0F12106D7C037D0012107FAA06AB0778CEE6FE08E6FF7C007D0512AA
:2014A000106D0D12107FC3EF9BFFEE9AC313FEEF13FF7872EEF608EFF67880A60608F6C338
:2014C000940AEE940050137873E62430789EF608766D0876410876208038C37873E69464CC
:2014E00018E694005031E6FA08E6FB7C007D0AFFAE0212107FEF2430789EF67C007D0AAFBC
:2015000003AE0212107FED2430789FF608766D0876410876208059C37873E694E818E69466
:2015200003504DE6FA08E6FB7C007D64FFAE0212107FEF2430789EF67C007D64AF03AE0287
:2015400012107F7E007F0ACFCDCFCECCCE12107FEF2430789FF67872E6FE08E6FF7C007D6B
:201560000A12107FED243078A0F608766D08764178D0E6FE08E6FF7C007D0F12106D7C0398
:201580007D0012107FAA06AB0778D0E6FE08E6FF7C007D0512106D0D12107FC3EF9BFFEE3D
:2015A0009AC313FEEF13FF7874EEF608EFF67884A60608F6C3940AEE940050137875E6241C
:2015C0003078A4F608766D0876410876208038C37875E6946418E694005030E6FA08E6FB60
:2015E0007C007D0AFFAE0212107FEF243078A4F67C007D0AAF03AE0212107FED243078A5DF
:20160000F608766D08764108762022C37875E694E818E69403504DE6FA08E6FB7C007D6400
:20162000FFAE0212107FEF243078A4F67C007D64AF03AE0212107F7E007F0ACFCDCFCECC99
:20164000CE12107FEF243078A5F67874E6FE08E6FF7C007D0A12107FED243078A6F6087691
:201660006D0876412275270AE4F528121CEA1222791222A41223541222CA7F1E7E00122301
:20168000587BFF7A1B79217536807D0E1221711223547A1B793012216A1223541223991222
:2016A00023547BFF7A1B79457536807D0A1221717BFF7A1B794F7536907D0C12217112231C
:2016C000997F0A7E001223587BFF7A1B795C7536807D0A1221711223547F017E001223588F
:2016E000300008120026C200E4F56F0020020302188C1223AA1210FA12141A1218A0D37855
:20170000CBE6941818E69401404F78297C007D007BFF7A1B79F47E007F0912101A30C30EF1
:20172000121C067D037C007F02121C0C800C121DBB7D1E7C007F02121DC1C2B6C2A67B0065
:201740007A0079297D09122224E4F56FFB7A0079297536867D07122171D378CDE694181815
:20176000E69401404F78297C007D007BFF7A1B79FD7E007F0912101A30C30E121C067D0349
:201780007C007F02121C0C800C121DBB7D1E7C007F02121DC1C2B6C2A67B007A0079297D20
:2017A00009122224E4F56FFB7A0079297536967D07122171121F7C12207D7876E6FC08E6E6
:2017C000FDE4120E907B667A6679467840120E1E500312000E7878E6FC08E6FDE4120E903E
:2017E0007B667A6679467840120E1E500312000E7BFF7A1B79677536807D0412217112238C
:20180000B87B007A00799E7536827D061221711223B87B007A00798A7536857D0412217176
:201820007BFF7A1B796C7536907D041221711223B87B007A0079A47536927D0612217112DF
:2018400023B87B007A0079907536957D041221717BFF30C3177A1B79A07536877D06122130
:20186000711223B87BFF7A1B79A080157A1B79A77536877D061221711223B87BFF7A1B79CA
:20188000A77536977D061221710216D97BFF7A1B79AE7536807D1412217112215F0216D92E
:2018A000E4F532F533F534F53575361078DAF608F608F608F67F02121A1D7870EEF608EF18
:2018C000F678DAE6FC08E62FF6EE3C18F67F05121A1D7870EEF608EFF678DCE6FC08E62FBA
:2018E000F6EE3C18F6D536CD79DAE7C4F854F0C868F709E7C4540F48F709E7C4F854F0C873
:2019000068FE09E7C4540F48FF78DCEEF608EFF678DAE6FC08E6FD78CAA60408A60508A672
:201920000608A60778CAE6FC08E6FDE4120E907B327A6679BD7841120D817B667A66790EE5
:201940007843120B8778961210EE78CCE6FC08E6FDE4120E907B327A6679BD7841120D8149
:201960007B667A66790E7843120B87789A1210EE78961210E2120EC98E328F3378CAA63207
:2019800008A633789A1210E2120EC98E348F3578CCA63408A635AE32AF337C007D6412109F
:2019A0007FEF2430788AF6AE32AF337C007D0A12107F7C007D0A12107FED2430788BF60821
:2019C000762EAE32AF337C007D0A12107FED2430788DF6AE34AF357C007D6412107FEF24EA
:2019E000307890F6AE34AF357C007D0A12107F7C007D0A12107FED24307891F608762EAE11
:201A000034AF357C007D0A12107FED24307893F622E6FC08E62FF6EE3C18F67F04E4F54CD1
:201A2000F54DF9F54EF54FEFB40800503D901A34F8282873021A4C021A50021A54021A585B
:201A4000021A5C021A60021A64021A68E4FD801A7D0880167D1080127D18800E7D20800A8F
:201A60007D2880067D3080027D38C2A400D297E4FB74807E00A803088006CEA2E713CE13B3
:201A8000D8F8FFEDF582EF558224FF9295C29700D297000BBB08DAD2A400C2A400E4FB746A
:201AA000807E00A803088006CEA2E713CE13D8F8FFEDF582EF558224FF9295C29700D2979F
:201AC00000A296E433F54CC374079BFFE54CA807088002C333D8FCF54C42010BBB08C089CF
:201AE0004CE4F9FBC29700D297A296E433F54DC374079BFFE54DA807088002C333D8FCF56D
:201B00004D4201000BBB08DC894DE54CFEE54D7A002400FFEA3E540FF54E8F4FD2A400FE97
:201B200022B9E2CFCBBCA4B9E2BFD8D6C6C6F700CBD5D6DDB5C2C1FABCA4B9E2D3D0CFDE93
:201B4000B9ABCBBE00D5D4DAB3F5CABCBBAF00C7EBC9D4BAF22E2E2E2E2E2E00B3F5CABC40
:201B6000BBAFCDEAB3C9005345443A00414D503A00564F5445433A312E34327600C9E8B63D
:201B8000A8B5E7C1F700C9E8B6A8CEC2B6C800A1E600504F573A00C9E8B6A8B9A6C2CA007B
:201BA000A1E62041504300A1E62041434300CFB5CDB3B2C9BCAFBFD8D6C6C4A3CABDD6D08B
:201BC0002020002E2E2E2E2E2E2E2E2E2E2E2E2E2E2E2E2E2E2E2E007365746661756C74C5
:201BE0000D0A7365747375636365640D0A416C61726D0D0A746D705F6572720D0A746D708F
:201C00005F6572720D0A7D037C007F018F368C378D38C3E5389403E5379400500675370013
:201C2000753803D3E5389458E53794024006753702753858AC37AD38E4120E908F3C8E3B7D
:201C40008D3A8C39A804A905AA06AB07120C78E4FBFA797A7844120D817BA47A70795D7827
:201C600040120C788F408E3F8D3E8C3D7FB57E377DD07C40AB3CAA3BA93AA839120C787BCB
:201C8000487AE179EC7841120B87AB40AA3FA93EA83D120B838F408E3F8D3E8C3D120EC986
:201CA0008E418F42E536B4031A30B613AD42AC417F031220F500AD42AC417F031220F5781D
:201CC000B0801BE536701E30A612AD42AC41FF1220F500AD42AC41E4FF1220F578B2A63739
:201CE00008A6388001001210FA22E4F5BDF5BEC200C201F56FF56ED2027870F608F608F6FC
:201D000008F608F608F6787EF608F67882F608F6D2C0D2A2C2B7C2A0C2A11220EF0012205A
:201D2000EF007DF97C047F011220F5007DF97C047F011220F530C32E78B076000876030832
:201D400076000876037D197C007F031220F5007D197C007F031220F57D197C00E4FF1220EF
:201D6000F5007D19802C7886760008761E08760008761E7D5C7C007F031220F5007D5C7CAF
:201D8000007F031220F57D597C00E4FF1220F5007D597C00E4FF1220F575BB30759107E491
:201DA000F592D2A4D297D296D2B6D2B5D2A6D2A5C28CC2A9C28EC2ABC2A8227D1E7C007FBF
:201DC000018F368C378D38C3E538941EE5379400500675370075381ED3E5389484E53794EE
:201DE000034006753703753884AE37AF387C007D0912106D7D7D12107FAA06AB07AE37AFCC
:201E0000387C007D0312106DEF2BF53AEE3AF539E536B4032030B61AAD3AAC397F031220EE
:201E2000F500AD3AAC397F031220F57886A63708A638008021E536701D30A619AD3AAC3973
:201E4000FF1220F500AD3AAC39E4FF1220F57888A63708A6380012141A221222CA0F7E00D6
:201E60001223587D01E4FF1222CE0F7E001223587D0DE4FF1222CE0F7E001223587D10E45E
:201E8000FF1222CE7F1E7E001223587BFF30C3177A1B79977536807D081221711223B87BB4
:201EA000007A0079BE80157A1B797D7536807D081221711223B87B007A00799E7536847D58
:201EC000061221711223B81223B87B007A00798A7536947D041221711223B87BFF7A1B79AD
:201EE0008F7536967D021221717F327E000223BC787FE4F6D8FD7581E1021F37021665E4A9
:201F000093A3F8E493A34003F68001F208DFF48029E493A3F85407240CC8C333C4540F4483
:201F200020C8834004F456800146F6DFE4800B0102040810204080900006E47E019360BCF6
:201F4000A3FF543F30E509541FFEE493A360010ECF54C025E060A840B8E493A3FAE493A31E
:201F6000F8E493A3C8C582C8CAC583CAF0A3C8C582C8CAC583CADFE9DEE780BE75320AE4F6
:201F800078D2F608F608F608F67F01121A1D7870EEF608EFF678D2121A117870EEF608EF3B
:201FA000F678D4E6FC08E62FF6EE3C18F6D532D978D2E6FE08E6FF7C007D0A12107F787A21
:201FC000EEF6FA08EFF6FB78D4E6FE08E6FF7C007D0A12107F787CA60608A6077C007D0527
:201FE000AF03AE0212106DEEC313797AF7EF1309F7787CE6FE08E6FF12106DEEC31309F728
:20200000EF1309F722EF14601314601514601724FC601824077017759D018012759D02808F
:202020000D759D048008759D088003759D8053A2FBE4F5BDF5BE53070775BC4000EF42BCCE
:202040000043BC807F0A7E001223BC43BC087F0A7E001223BCE4FFEF7007E5BC5410FF803D
:20206000F653BCE7E4F59DAFBDEF75F004A4AEF0ADBE7C002D78AFF6EC3E18F622753214B2
:20208000E478D6F608F608F608F67F0112200579AFE778D726F619E71836F67F02122005F1
:2020A00079AFE778D926F619E71836F6D532DB78D6E6FE08E6FF7C007D1412107FAA06AB56
:2020C000077876A60208A60318E6FE08E6FF7C007D0512106D7876A60608A60708EAF6FE07
:2020E00008EBF6FF12106D7878A60608A607227DF97C047F028C438D44E4FBFAEF1460158E
:2021000014601D1460252403702AE42544FBE5433410FA801FE42544FBE5433450FA801405
:20212000E42544FBE5433490FA8009E42544FBE54334D0FAD2A200C2C0D2B700C2B7E4FDA1
:20214000EA3392A1D2A0EB25E0FBEA33FA00C2A00DBD10ECC2A200D2C0E4F543F544227FA7
:20216000107E271223BC7A1B79C37BFF7536907D148B328A3389348D35E4F537AD36FF12A5
:2021800022CEE4F537E537C395355019AB32AA33A934853782758300121040FD7F0112224D
:2021A000CE053780E07F027E001223582275360678377C007D007BFF7A1B79ED7E007F0735
:2021C00012101A7B007A0079377D071222247F327E00122358D536F67B007A0079377D055E
:2021E0001222247536067F327E00122358D536F67B007A0079377D050222247554537555C4
:202200003D74302556F55675572E74302558F55874302559F559755A0D755B0A7B007A0094
:2022200079507D0C8B418A428943E4FFAB41AA42A9438F82758300121040F5993099FDC2C0
:20224000990FEFC39D40E522C0E0C0F0C083C082C0D075D008007BFF7A1B79AE7536807DB0
:202260001412217112215F7FE87E03122358D0D0D082D083D0F0D0E032438780759850759C
:202280009C64438E04438E01438E10758921538E3F75B71475B824D2ACD288D2A8D28AD266
:2022A000AAD2AF221222CA7D01E4FF1222CE7F507EC31223BC7D06E4FF1222CE7F507EC3F7
:2022C0001223BC7D0CE4FF0222CE7D30E4FF12236EEF6006D2C1C2C58004C2C1C2C58D8072
:2022E00000000000D2C400000000C2C422C0E0C0D075D018309814C298E599B40A04D200CB
:2023000080097450256FF8A699056FD0D0D0E03278367C007D007BFF7A1B79D87E007F0AA1
:2023200012101A7B007A0079367D0A122224E4F56F2278367C007D007BFF7A1B79E27E00E5
:202340007F0B12101A7B007A0079367D0B122224E4F56F227F057E00E4FDFCED1D70011C53
:20236000ED4C70F7EF1F70011EEF4E70EE227580FF00C2C1D2C500000000D2C400000000BF
:202380002087FD00C2C42220B50512000E80010020A50412000E3200321222CA7F507EC31B
:2023A0001223BC7D01E4FF0222CE75320AE4F533F53478BCF608F6227F327E00EF1F7001FB
:0723C0001EEF4E70F722FF33
:00000001FF
