:102A32007365746661756C740D0A7365747375637E
:102A42006365640D0A416C61726D0D0A746D705F8D
:0E2A52006572720D0A746D705F6572720D0A06
:0B001600023403E8014D00C100C101ED
:1029030075254475264575274C75284175295975D4
:102913002A3DAE4EAF4F7C001D121938EF2430F51F
:102923002BAE4EAF4F7C007D0A121938ED2430F5E3
:102933002C752D4C752E0D752F0A7A0079257B0089
:022943007D0B0A
:062945008B6A8A6B896CAD
:10294B00E4FFAB6AAA6BA96C8F827583001218F92E
:0D295B00F5993099FDC2990FEFC39D40E53D
:01296800224C
:1029FB00438780759850759C64438E04438E0143C6
:102A0B008E10758921538E3F75B71475B824D2ACCF
:102A1B00D2A9D288D2A8D28AD2AAD2AF758A30755F
:072A2B008CF8C28DC28C2261
:10249400E4F5BDF5BEC200C201F54DF548D202789F
:1024A40079F608F608F608F608F608F67887F608C6
:1024B400F6788BF608F6D2C0D2A2C2B7C2A0C2A1E7
:1024C4007DF97C047F021227BD007DF97C047F0224
:1024D4001227BD007DF97C047F011227BD007DF920
:1024E4007C047F011227BD30C3151227AA001227CE
:1024F400B77D197C00E4FF1227BD007D1980247884
:102504008F760008761E08760008761E7D5C1227FA
:10251400B9007D5C1227B97D597C00E4FF1227BD08
:10252400007D597C00E4FF1227BD75BB307591070F
:10253400E4F592D2A4D297D296D2B6D2B5D2A6D28C
:0C254400A5C28CC2A9C28EC2ABC2A822E4
:10002600E525B4491DE526B44E18E527B44913E580
:1000360028B4540EE529B449091224941229FB0266
:100046001430E525644C60030200EFE52664446045
:10005600030200EFE52764316009E5276432600397
:0C0066000200EFE528643D60030200EF9B
:10007200E52AB40D0DE52924D0F55CE434FFF55BE7
:100082008046E52BB40D0FE52924D075F00AA4FFB4
:10009200AEF0E52A8020E52CB40D2BE52A24D0759C
:1000A200F00AA4FDACF0E52924D075F064A42DFF7C
:1000B200E5F03CFEE52B24D0FDE434FFCD2FF55CCA
:1000C200ED3EF55B80028020E527B43105755D03C6
:1000D2008008E527B43211E4F55DAD5CAC5BAF5D41
:0C00E2001225FC122ACA8003122AA80072
:1000EE0022E52564496003020190E526644E600313
:1000FE00020190E52764496003020190E5286443FC
:0B010E006003020190E529643D70775A
:10011900E52CB40D0DE52B24D0F55CE434FFF55B3B
:100129008046E52DB40D0FE52B24D075F00AA4FF08
:10013900AEF0E52C8020E52EB40D2BE52C24D075EE
:10014900F00AA4FDACF0E52B24D075F064A42DFFD2
:10015900E5F03CFEE52D24D0FDE434FFCD2FF55C20
:10016900ED3EF55B8002801AE52AB45308855B49A8
:10017900855C4A8010E52AB44108855B4B855C4C57
:060189008003122AA80009
:10018F0022E52564497045E526644E703FE52764F6
:0F019F00497039E52864457033E529643D702DBA
:1001AE00E52BB40D23E52A24D0F55CE434FFF55B92
:1001BE00C394004016D3E55C9403E55B9400500BAA
:0C01CE00855B36855C378003122AA80090
:1001DA0022E52564506003020279E526643160094C
:1001EA00E52664326003020279E527643D60030272
:0201FA00027988
:1001FC00E529B40D0DE52824D0F55CE434FFF55B5E
:10020C008046E52AB40D0FE52824D075F00AA4FF2A
:10021C00AEF0E5298020E52BB40D2BE52924D07513
:10022C00F00AA4FDACF0E52824D075F064A42DFFF1
:10023C00E5F03CFEE52A24D0FDE434FFCD2FF55C3F
:10024C00ED3EF55B80028020E527B4310575F9039E
:10025C008008E527B43211E4F5F9AD5CAC5BAF5D19
:0C026C001223B6122ACA8003122AA8002E
:1002780022E525645460030203A5E526643160097C
:10028800E526643260030203A5E527643D600302A6
:0202980003A5BC
:10029A00F55BF55CF55DF55EE52A640D704AE528C7
:1002AA0024D075F00AA4FFAEF0E52924D0FDE43489
:1002BA00FFCD2FF55CED3EF55BFEAF5C7C027DB3B6
:1002CA00121926EF2437FFEE34D8FE7C077DD012B0
:1002DA001938AA06AB07AE5BAF5C7C007D761219B3
:1002EA0026EF2BFFEE3A8070E52C640D60030203C3
:1002FA00A0E52824D075F00AA4FFAEF0E52924D0A1
:10030A00FDE434FFCD2FF55CED3EF55BFEAF5C7C82
:10031A00027DB3121926AA06AB07E52B75F045A490
:10032A002BFFEA35F0CF2447CF34CBFE7C077DD0B4
:10033A00121938AA06AB07AE5BAF5C7C007D761259
:10034A001926EF2BFFEE3AFEE52B24D075F03BA4DD
:10035A0075F005842FFFEC3ECF2470F55EEF34F97B
:10036A00F55DE526B43112AD5EAC5D7F021227BDA4
:10037A0000AD5EAC5D7F028015E526B43218AD5E35
:10038A00AC5D7F011227BD00AD5EAC5D7F01122717
:0A039A00BD122ACA8003122AA8002F
:1003A40022E52564506003020435E52664556003A4
:1003B400020435E52764527078E52864417072E5DB
:1003C40029643D706CE52BB40D0DE52A24D0F52489
:1003D400E434FFF5238049E52CB40D0FE52A24D03D
:1003E40075F00AA4FFAEF0E52B8020E52DB40D2BAB
:1003F400E52B24D075F00AA4FDACF0E52A24D075D1
:10040400F064A42DFFE5F03CFEE52C24D0FDE4349B
:10041400FFCD2FF524ED3EF5238005122AA8800F89
:10042400E4FBFAFDFCAF24AE23122550122ACA00C5
:1004340022E525645060030204C5E5266455600383
:100444000204C5E52764577078E52864497072E5AD
:1004540029643D706CE52BB40D0DE52A24D0F522FA
:10046400E434FFF5218049E52CB40D0FE52A24D0AE
:1004740075F00AA4FFAEF0E52B8020E52DB40D2B1A
:10048400E52B24D075F00AA4FDACF0E52A24D07540
:10049400F064A42DFFE5F03CFEE52C24D0FDE4340B
:1004A400FFCD2FF522ED3EF5218005122AA8800FFD
:1004B400E4FBFAAD22AC21FFFE122550122ACA0039
:1004C40022E52564447062E5266445705CE5276492
:1004D4004C7056E52864597050E529643D704AE52E
:1004E4002BB40D0DE52A24D0F54FE434FFF54E80EE
:1004F40027E52CB40D1DE52A24D075F00AA4FFAE1F
:10050400F0E52B24D0FDE434FFCD2FF54FED3EF57F
:100514004E8005122AA8800FAB4FAA4EE4FDFCFFC3
:10052400FE122550122ACA0022E5256452705FE5A6
:100534002664467059E527643D7053E529640D70BF
:1005440021E5286431701B7538017580F0C2C5C27D
:10055400C17F0AFE122B16122B10C2C4122B1202D8
:100564001430E529640D6003021435E52864306015
:1005740003021435F53875800FC2C5C2C17F0AFE67
:10058400122B16122B10C2C4122B12021430E525A2
:1005940064537043E5266448703DE527644470372E
:1005A400E528644E7031E529643D702BE52AB45387
:1005B4000FE52CB40D0AE52B24D01392B6021430A7
:1005C400E52AB4410FE52CB40D0AE52B24D013928F
:1005D400A6021430021435E5256444705FE52664F0
:1005E4004C7059E52764497053E528644D704DE516
:1005F40029643D7047E52C640D703CE52AB4530929
:10060400E52B24D01392B58010E52AB44109E52BDB
:1006140024D01392A58002801E20B5087D327C0070
:100624007F03800920A50E7D327C00E4FF1225FCA7
:10063400122ACA80058000122AA80022E5256453E4
:100644006003020BB9E52664546003020BB9E52785
:1006540064416003020BB9E52864546003020BB9DA
:10066400E52964456003020BB9E52A643F6003028F
:020674000BB9C0
:1006760075250DFB7A0079257D0112294575254CD6
:1006860075264475273175283DC3787CE6940A188B
:10069600E69400501708E62430F529752A0D752BC7
:1006A6000A7B007A0079257D0702074AC3787CE633
:1006B600946418E694005034E6FA08E6FB7C007D64
:1006C6000AFFAE02121938EF2430F5297C007D0AA4
:1006D600AF03AE02121938ED2430F52A752B0D75CD
:1006E6002C0A7B007A0079257D088058C3787CE641
:1006F60094E818E694035051E6FA08E6FB7C007D80
:1007060064FFAE02121938EF2430F5297C007D0A09
:10071600AF03AE021219387C007D0A121938ED2497
:1007260030F52A787BE6FE08E6FF7C007D0A121982
:1007360038ED2430F52B752C0D752D0A7B007A00CB
:1007460079257D091229458003122AA875254C753D
:10075600264475273275283DC3787EE6940A18E646
:100766009400501708E62430F529752A0D752B0AD2
:100776007B007A0079257D07020819C3787EE69406
:100786006418E694005034E6FA08E6FB7C007D0A1D
:10079600FFAE02121938EF2430F5297C007D0AAF2E
:1007A60003AE02121938ED2430F52A752B0D752C7F
:1007B6000A7B007A0079257D088058C3787EE69406
:1007C600E818E694035051E6FA08E6FB7C007D64DF
:1007D600FFAE02121938EF2430F5297C007D0AAFEE
:1007E60003AE021219387C007D0A121938ED243046
:1007F600F52A787DE6FE08E6FF7C007D0A121938A8
:10080600ED2430F52B752C0D752D0A7B007A0079B9
:10081600257D091229458003122AA875250D7B001E
:100826007A0079257D011229457525507526317581
:10083600273DC37888E6940A18E69400501708E620
:100846002430F52875290D752A0A7B007A0079254A
:100856007D060208F3C37888E6946418E69400508F
:1008660034E6FA08E6FB7C007D0AFFAE0212193870
:10087600EF2430F5287C007D0AAF03AE021219384A
:10088600ED2430F529752A0D752B0A7B007A00793F
:10089600257D078058C37888E694E818E6940350C7
:1008A60051E6FA08E6FB7C007D64FFAE02121938B9
:1008B600EF2430F5287C007D0AAF03AE021219380A
:1008C6007C007D0A121938ED2430F5297887E6FE7A
:1008D60008E6FF7C007D0A121938ED2430F52A75EA
:1008E6002B0D752C0A7B007A0079257D0812294587
:1008F6008003122AA875255075263275273DC378C0
:100906008CE6940A18E69400501708E62430F52879
:1009160075290D752A0A7B007A0079257D0602095C
:10092600BFC3788CE6946418E694005034E6FA085F
:10093600E6FB7C007D0AFFAE02121938EF2430F583
:10094600287C007D0AAF03AE02121938ED2430F57B
:1009560029752A0D752B0A7B007A0079257D07807B
:1009660058C3788CE694E818E694035051E6FA08E2
:10097600E6FB7C007D64FFAE02121938EF2430F5E9
:10098600287C007D0AAF03AE021219387C007D0A6E
:10099600121938ED2430F529788BE6FE08E6FF7C3F
:1009A600007D0A121938ED2430F52A752B0D752CA9
:1009B6000A7B007A0079257D081229458003122AD0
:1009C600A875250D7B007A0079257D0112294578C9
:1009D6009F12199B1217828E5B8F5C7525547526A4
:1009E6003175273DC3E55C94E8E55B940350497C8B
:1009F600007D64121938EF2430F528AE5BAF5C7CBD
:100A0600007D0A1219387C007D0A121938ED24304F
:100A1600F529752A2EAE5BAF5C7C007D0A1219386B
:100A2600ED2430F52B752C0D752D0A7B007A007997
:100A3600257D09122945800312296978A312199B7D
:100A46001217828E5B8F5C75255475263275273D8D
:100A5600C3E55C94E8E55B940350497C007D641231
:100A66001938EF2430F528AE5BAF5C7C007D0A12A6
:100A760019387C007D0A121938ED2430F529752ABB
:100A86002EAE5BAF5C7C007D0A121938ED2430F582
:100A96002B752C0D752D0A7B007A0079257D0912A0
:100AA6002945800312296975250D7B007A00792571
:100AB6007D0112294530A30E7525547526317527FB
:100AC6004F75284B800C75255475263175274E7544
:100AD600284F75290D752A0A7B007A0079257D062F
:100AE60012294530A70E75255475263275274F7580
:100AF600284B800C75255475263275274E75284F60
:100B060075290D752A0A7B007A0079257D0612293A
:100B16004575255275264175275475284575293D15
:100B2600AE23AF247C007D0A121938EF2430F52A53
:100B3600AE23AF247C007D0A121938ED2430F52B44
:100B4600752C4B752D0D752E0A7B007A0079257D47
:100B56000A1229457525577526497527447528545F
:100B6600752948752A3DAE21AF227C00121938EF4F
:100B76002430F52BAE21AF22122928122903752520
:100B86005275264675275075284F752957752A457B
:100B9600752B52752C20E538B4010C752D4F752E2A
:100BA6004E752F20020F33752D4F752E46752F4625
:100BB600020F33E525644C6003020CE5E526644428
:100BC6006003020CE5E52764316009E527643260BD
:100BD60003020CE5E528643F6003020CE5E52764A3
:100BE60031706775254C75264475273175283DC3C8
:100BF600787CE6940A18E694005002806EC3787CEE
:100C0600E6946418E6940050028071C3787CE694FA
:100C1600E818E694035030E6FA08E6FB7C007D64AB
:100C2600FFAE02121938EF2430F5297C007D0AAF99
:100C360003AE021219387C007D0A121938ED2430F1
:100C4600F52A787B020CDA021435E5276432600354
:100C560002143875254C75264475273275283DC310
:100C6600787EE6940A18E69400500508E6020DFF21
:100C7600C3787EE6946418E69400501FE6FA08E608
:100C8600FB7C007D0AFFAE02121938EF2430F529ED
:100C96007C007D0AAF03AE02020E56C3787EE69450
:100CA600E818E694035035E6FA08E6FB7C007D6416
:100CB600FFAE02121938EF2430F5297C007D0AAF09
:100CC60003AE021219387C007D0A121938ED243061
:100CD600F52A787DE6FE08E6FF020FB8021435E530
:100CE6002564506003020E72E52664316009E5262C
:100CF60064326003020E72E527643F6003020E72DF
:100D0600E52664316003020D9E7525507526317502
:100D1600273DC37888E6940A18E694005003020D2E
:100D2600BCC37888E6946418E694005023E6FA0873
:100D3600E6FB7C007D0AFFAE02121938EF2430F57F
:100D4600287C007D0AAF03AE02121938ED020DFFB2
:100D5600C37888E694E818E694035039E6FA08E67C
:100D6600FB7C007D64FFAE02121938EF2430F528B3
:100D76007C007D0AAF03AE021219387C007D0A1290
:100D86001938ED2430F5297887E6FE08E6FF7C0061
:100D96007D0A020E56021435E526643260030214FB
:100DA6003875255075263275273DC3788CE6940A2A
:100DB60018E69400501708E62430F52875290D75B5
:100DC6002A0A7B007A0079257D06021405C3788CF1
:100DD600E6946418E694005035E6FA08E6FB7C00D3
:100DE6007D0AFFAE02121938EF2430F5287C007D0B
:100DF6000AAF03AE02121938ED2430F529752A0D13
:100E0600752B0A7B007A0079257D07021405C378C5
:100E16008CE694E818E69403504FE6FA08E6FB7C65
:100E2600007D64FFAE02121938EF2430F5287C00ED
:100E36007D0AAF03AE021219387C007D0A121938FA
:100E4600ED2430F529788BE6FE08E6FF7C007D0A66
:100E5600121938ED2430F52A752B0D752C0A7B00F6
:100E66007A0079257D08021405021435E5256450BB
:100E76006003020F44E52664576003020F44E5272A
:100E8600644D6003020F44E528643F6003020F448B
:100E960075255275264175275475284575293DAE29
:100EA60023AF24FC7D0A121938EF2430F52AAE232D
:100EB600AF247C007D0A121938ED2430F52B752CF1
:100EC6004B752D0D752E0A7B007A0079257D0A1249
:100ED600294575255775264975274475285475295A
:100EE60048752A3DAE21AF227C00121938EF243016
:100EF600F52BAE21AF22122928122903752552752A
:100F0600264675275075284F752957752A45752B1E
:100F160052752C20E538B4010B752D4F752E4E7584
:100F26002F208009752D4F752E46752F4675300D6D
:100F360075310A7B007A0079257D0D021405E525B9
:100F460064546003021048E52664316009E52664AE
:0F0F5600326003021048E527643F600302104831
:100F6500E5266431706A789F12199B1217828E5B91
:100F75008F5C75255475263175273DC3E55C94E86E
:100F8500E55B940340030210457C007D641219382B
:100F9500EF2430F528AE5BAF5C7C007D0A12193872
:100FA5007C007D0A121938ED2430F529752A2EAEFC
:100FB5005BAF5C7C007D0A121938ED2430F52B758A
:100FC5002C0D752D0A7B007A0079257D0902140503
:100FD500E5266432600302143878A312199B1217B0
:100FE500828E5B8F5C75255475263275273DC3E56A
:100FF5005C94E8E55B940350477C007D64121938E6
:10100500EF2430F528AE5BAF5C7C007D0A12193801
:101015007C007D0A121938ED2430F529752A2EAE8B
:101025005BAF5C7C007D0A121938ED2430F52B7519
:101035002C0D752D0A7B007A0079257D0902140592
:0310450002296914
:10104800E52564506003021167E5266444600302E5
:101058001167E52764496003021167E52864436066
:1010680003021167E529643F60030211677883E68C
:10107800FA08E6FB7C0F7DFFFFAE021219388F2BB2
:101088007C0F7DFFAF03AE021219387E007F0A1273
:101098001926AA06AB077C0F7DFF1219388F2D7C05
:1010A8000F7DFFAF03AE021219387E007F0A1219B6
:1010B800267C0F7DFF1219388F2E752953752A3D0E
:1010C8007430252BF52B752C2E7430252DF52D74A9
:1010D80030252EF52E752F0D75300A7B007A007994
:1010E800257D0C1229457885E6FA08E6FB7C0F7DFC
:1010F800FFFFAE021219388F2B7C0F7DFFAF03AEB6
:10110800021219387E007F0A121926AA06AB077C3C
:101118000F7DFF1219388F2D7C0F7DFFAF03AE02B4
:101128001219387E007F0A1219267C0F7DFF1219CA
:10113800388F2E752941752A3D7430252BF52B756E
:101148002C2E7430252DF52D7430252EF52E752F67
:101158000D75300A7B007A0079257D0C021405E5AF
:101168002564566003021254E526644F6003021298
:1011780054E52764546003021254E528644360036D
:10118800021254E529643F6003021254787FE6FC9A
:1011980008E6FDEC1313543FF52BEC5403FEAF05A2
:1011A8007C007D0A121926AC06EC1313543FF52D6A
:1011B800EC5403FE7C00121926EE1313543FF52E4F
:1011C800752953752A3D7430252BF52B752C2E74F3
:1011D80030252DF52D7430252EF52E752F0D7530F3
:1011E8000A7B007A0079257D0C1229457881E6FC76
:1011F80008E6FDEC1313543FF52BEC5403FEAF0542
:101208007C007D0A121926AC06EC1313543FF52D09
:10121800EC5403FE7C00121926EE1313543FF52EEE
:10122800752941752A3D7430252BF52B752C2E74A4
:1012380030252DF52D7430252EF52E752F0D753092
:101248000A7B007A0079257D0C021405E525645493
:10125800707BE52664507075E5276447706FE52854
:1012680064447069E529643F706330A31575295398
:10127800752A20752B4F752C4B752D0D752E0AFB75
:101288008014752953752A20752B4E752C4F752D92
:101298000D752E0A7B007A0079257D0A12294530C2
:1012A800A70E752941752A20752B4F752C4B800C7C
:1012B800752941752A20752B4E752C4F752D0D7586
:1012C8002E0A7B007A0079257D0A021405E525643B
:1012D8005560030213A3E526645460030213A3E5D3
:1012E80027644560030213A3E528644360030213DF
:1012F800A3E529643F60030213A330B6247525547F
:10130800752645752743752831752920752A4F7527
:101318002B4E752C0D752D0AFB7A0079257D0980D9
:101328002675255475264575274375283175292056
:10133800752A4F752B46752C46752D0D752E0A7B13
:10134800007A0079257D0A12294530A6267525548C
:10135800752645752743752832752920752A4F75D6
:101368002B4E752C0D752D0A7B007A0079257D0989
:101378000214057525547526457527437528327559
:101388002920752A4F752B46752C46752D0D752EFF
:101398000A7B007A0079257D0A8062E5256443701E
:1013A8005FE526644D7059E527644F7053E528645E
:1013B80044704DE529643F704730C31E75254D754F
:1013C800264F75274475283D752941752A50752B78
:1013D80043752C0D752D0AFB801D75254D75264FFF
:1013E80075274475283D752941752A43752B437522
:1013F8002C0D752D0A7B007A0079257D0902294577
:10140800E52564537027E526644D7021E527644F70
:10141800701BE528B44416E529B43D11E52BB40D3D
:101428000AE52A24D0139202022ACA8000122AA8A6
:011438002291
:101DA100756410E478D7F608F608F608F6E4FF1231
:101DB10022AC7879EEF608EFF678D7E6FC08E62F44
:101DC100F6EE3C18F67F031222AC7879EEF608EFB6
:101DD100F678D9E6FC08E62FF6EE3C18F6D564CD88
:101DE10079D7E7C4F854F0C868F709E7C4540F4835
:101DF100F709E7C4F854F0C868F709E7C4540F4875
:101E0100F778D7E6FE08E6FF7C007D0F1219267CE5
:101E1100037D00121938AA06AB0778D7E6FE08E65B
:101E2100FF7C007D051219260D121938C3EF9BFFA7
:101E3100EE9AC313FEEF13FF787BEEF608EFF67808
:101E410089A60608F6C3940AEE94005013787CE63E
:101E5100243078A7F608766D087641087620803818
:101E6100C3787CE6946418E694005031E6FA08E6FB
:101E7100FB7C007D0AFFAE02121938EF243078A7EF
:101E8100F67C007D0AAF03AE02121938ED243078DA
:101E9100A8F608766D0876410876208059C3787CCB
:101EA100E694E818E69403504DE6FA08E6FB7C0058
:101EB1007D64FFAE02121938EF243078A7F67C005A
:101EC1007D64AF03AE021219387E007F0ACFCDCFF9
:101ED100CECCCE121938EF243078A8F6787BE6FE06
:101EE10008E6FF7C007D0A121938ED243078A9F646
:101EF10008766D08764178D9E6FE08E6FF7C007D1C
:101F01000F1219267C037D00121938AA06AB077837
:101F1100D9E6FE08E6FF7C007D051219260D12198F
:101F210038C3EF9BFFEE9AC313FEEF13FF787DEEEC
:101F3100F608EFF6788DA60608F6C3940AEE94002B
:101F41005013787EE6243078ADF608766D08764138
:101F51000876208038C3787EE6946418E6940050B1
:101F610030E6FA08E6FB7C007D0AFFAE0212193862
:101F7100EF243078ADF67C007D0AAF03AE02121972
:101F810038ED243078AEF608766D08764108762073
:101F910022C3787EE694E818E69403504DE6FA08E9
:101FA100E6FB7C007D64FFAE02121938EF24307825
:101FB100ADF67C007D64AF03AE021219387E007F5E
:101FC1000ACFCDCFCECCCE121938EF243078AEF671
:101FD100787DE6FE08E6FF7C007D0A121938ED24C3
:0A1FE1003078AFF608766D087641FF
:011FEB0022D3
:101A8100756C0AE478E7F608F608F608F67F0112A5
:101A910022AC7879EEF608EFF678E71222A0787991
:101AA100EEF608EFF678E9E6FC08E62FF6EE3C18CC
:101AB100F6D56CD978E7E6FE08E6FF7C007D0A12D0
:101AC100193878E7A60608A60708E6FE08E6FF7CAF
:101AD100007D0A12193878E9A60608A60778E7E614
:101AE100FE08E6FF7879EEF6FE08EFF6FFFDAC069C
:101AF100E41217498F708E6F8D6E8C6DE4FBFA794D
:101B01002078401215318F708E6F8D6E8C6DE4FBD5
:101B1100FA7980784512163A7B9D7A1179A5783C3D
:101B21001214408F708E6F8D6E8C6DA804A905AA5A
:101B310006AB071215317BC57AA079EA78421215F6
:101B410031C004C005C006C0077F817EC57D897C88
:101B510043AB70AA6FA96EA86D121531D003D002E4
:101B6100D001D0001214407B047A56794E78BF120E
:101B710014408F748E738D728C711217827887EE78
:101B8100F608EFF678B3A60608F6C3940AEE9400B9
:101B910050137888E6243078C7F608766D08767792
:101BA1000876208038C37888E6946418E69400505B
:101BB10031E6FA08E6FB7C007D0AFFAE0212193815
:101BC100EF243078C7F67C007D0AAF03AE0212190C
:101BD10038ED243078C8F608766D087677087620D7
:101BE1008059C37888E694E818E694035050E6FAE1
:101BF10008E6FB7C007D64FFAE02121938EF243049
:101C010078C7F67C007D64AF03AE021219387E00FE
:101C11007F0ACFCDCFCECCCE121938EF243078C881
:101C2100F67887E6FE08E6FF7C007D0A121938ED9A
:101C3100243078C9F608766D08767708762078E939
:101C4100E6FE08E6FF7879EEF6FE08EFF6FFFDAC5A
:101C510006E41217498F708E6F8D6E8C6DE4FBFA5E
:101C6100792078401215318F708E6F8D6E8C6DE4F6
:101C7100FBFA7980784512163A7B9D7A1179A5781D
:101C81003C1214408F708E6F8D6E8C6DA804A90567
:101C9100AA06AB071215317BC57AA079EA78421200
:101CA1001531C004C005C006C0077F817EC57D898E
:101CB1007C43AB70AA6FA96EA86D121531D003D009
:101CC10002D001D0001214407B047A56794E78BFBD
:101CD1001214408F748E738D728C71121782788BEF
:101CE100EEF608EFF678B5A60608F6C3940AEE9468
:101CF100005013788CE6243078CDF608766D08769E
:101D0100770876208038C3788CE6946418E69400CE
:101D11005031E6FA08E6FB7C007D0AFFAE0212199B
:101D210038EF243078CDF67C007D0AAF03AE021285
:101D31001938ED243078CEF608766D087677087676
:101D4100208059C3788CE694E818E694035050E655
:101D5100FA08E6FB7C007D64FFAE02121938EF241D
:101D61003078CDF67C007D64AF03AE021219387E67
:101D7100007F0ACFCDCFCECCCE121938EF243078E8
:101D8100CEF6788BE6FE08E6FF7C007D0A12193854
:0F1D9100ED243078CFF608766D08767708762047
:011DA0002220
:101FEC00E4F55BF55CF55DF55E755F1078E3F6087E
:101FFC00F608F608F67F021222AC7879EEF608EFB6
:10200C00F678E3E6FC08E62FF6EE3C18F67F0512B0
:10201C0022AC7879EEF608EFF678E5E6FC08E62FC8
:10202C00F6EE3C18F6D55FCD79E3E7C4F854F0C86A
:10203C0068F709E7C4540F48F709E7C4F854F0C827
:10204C0068FE09E7C4540F48FF78E5EEF608EFF692
:10205C0078E3E6FC08E6FD78D3A60408A60508A6F6
:10206C000608A60778D3E6FC08E6FDE41217497BC0
:10207C00327A6679BD784112163A7B667A66790EA9
:10208C007843121440789F1219A778D5E6FC08E61D
:10209C00FDE41217497B327A6679BD784112163A03
:1020AC007B667A66790E784312144078A31219A7CE
:1020BC00789F12199B1217828E5B8F5C78D3A65B6C
:1020CC0008A65C78A312199B1217828E5D8F5E781E
:1020DC00D5A65D08A65EAE5BAF5C7C007D64121974
:1020EC0038EF24307893F6AE5BAF5C7C007D0A123F
:1020FC0019387C007D0A121938ED24307894F608D2
:10210C00762EAE5BAF5C7C007D0A121938ED243064
:10211C007896F6AE5DAF5E7C007D64121938EF24C4
:10212C00307899F6AE5DAF5E7C007D0A1219387C72
:10213C00007D0A121938ED2430789AF608762EAE06
:10214C005DAF5E7C007D0A121938ED2430789CF668
:01215C002260
:10289700755B14E478DFF608F608F608F67F011290
:1028A700282779B8E778E026F619E71836F67F0281
:1028B70012282779B8E778E226F619E71836F6D509
:1028C7005BDB78DFE6FE08E6FF7C007D1412193833
:1028D700AA06AB07787FEAF608EBF67C007D0512BF
:1028E7001926787FA60608A60708EAF6FE08EBF67B
:0B28F700FF1219267881A60608A6072C
:0129020022B2
:10272100755B0AE478DBF608F608F608F67F011215
:1027310022AC7879EEF608EFF678DB1222A07879F0
:10274100EEF608EFF678DDE6FC08E62FF6EE3C182B
:10275100F6D55BD978DBE6FE08E6FF7C007D0A1240
:1027610019387883EEF6FA08EFF6FB78DDE6FE0815
:10277100E6FF7C007D0A1219387885A60608A607AF
:102781007C007D05AF03AE02121926EEC3137983D7
:10279100F7EF1309F77885E6FE08E6FF121926EE32
:0827A100C31309F7EF1309F758
:0127A900220D
:0623B0007D037C00E4FF48
:0623B6008F5F8C608D6159
:1023BC00C3E5619403E56094005006756000756197
:1023CC0003D3E5619458E56094024006756002758C
:1023DC006158AC60AD61E41217498F658E648D63F2
:1023EC008C62A804A905AA06AB07121531E4FBFA06
:1023FC00797A784412163A7BA47A70795D78401217
:10240C0015318F698E688D678C667FB57E377DD070
:10241C007C40AB65AA64A963A8621215317B487A2B
:10242C00E179EC7841121440AB69AA68A967A866F7
:10243C0012143C8F698E688D678C661217828E6AB7
:10244C008F6BE55FB4031A30B613AD6BAC6A7F03C8
:10245C001227BD00AD6BAC6A7F031227BD78B98023
:10246C001BE55F701E30A612AD6BAC6AFF1227BD68
:10247C0000AD6BAC6AE4FF1227BD78BBA66008A662
:07248C0061800100121A81BA
:012493002226
:0625F6007D1E7C00E4FFE5
:0625FC008F5F8C608D6111
:10260200C3E561941EE56094005006756000756133
:102612001ED3E5619484E5609403400675600375FA
:102622006184AE60AF617C007D091219267D7D1246
:102632001938AA06AB07AE60AF617C007D031219A0
:1026420026EF2BF563EE3AF562E55FB4032030B670
:102652001AAD63AC627F031227BD00AD63AC627F2B
:10266200031227BD788FA66008A661008021E55F6E
:10267200701D30A619AD63AC62FF1227BD00AD63B9
:10268200AC62E4FF1227BD7891A66008A661001231
:022692001DA188
:012694002223
:0C22A000E6FC08E62FF6EE3C18F67F0482
:1022AC00E4F575F576F9F577F578EFB40800503D5F
:1022BC009022C3F82828730222DB0222DF0222E3D9
:1022CC000222E70222EB0222EF0222F30222F7E4BF
:1022DC00FD801A7D0880167D1080127D18800E7D81
:1022EC0020800A7D2880067D3080027D38C2A400C3
:1022FC00D297E4FB74807E00A803088006CEA2E788
:10230C0013CE13D8F8FFEDF582EF558224FF92958A
:10231C00C29700D297000BBB08DAD2A400C2A4006B
:10232C00E4FB74807E00A803088006CEA2E713CEDF
:10233C0013D8F8FFEDF582EF558224FF9295C297E2
:10234C0000D29700A296E433F575C374079BFFE5A2
:10235C0075A807088002C333D8FCF57542010BBB86
:10236C0008C08975E4F9FBC29700D297A296E433B2
:10237C00F576C374079BFFE576A807088002C33384
:10238C00D8FCF5764201000BBB08DC8976E575FEBE
:10239C00E5767A002400FFEA3E540FF5778F78D269
:0323AC00A400FE8C
:0123AF00220B
:082550008C5F8D608A618B62D3
:10255800D3EF9400EE94004040AB07AA06E4F9F8E4
:102568007F407E427D0FFC1229B7E47B05FAF9F81B
:102578001229B7E47B20FAF9F81229B7EFD394FFB0
:1025880040027FFF8F80D2C5C2C1122B12122B10BE
:10259800C2C4122B12C2C5C2C1D3E5609400E55F64
:1025A8009400401FAF60EFD3940F40027F0F8F80DD
:1025B800C2C5D2C1122B12122B10C2C4122B12C2C6
:1025C800C5C2C1D3E5629400E5619400401FAF62C3
:1025D800EFD3941F40027F1F8F80D2C5D2C1122B28
:0D25E80012122B10C2C4122B12C2C5C2C1A8
:0125F50022C3
:1027AA0078B976000876030876000876037D197CE6
:0327BA00007F039A
:0427BD008C6C8D6D26
:1027C100E4FBFAEF14601514601D146025240370F6
:1027D1002AE4256DFBE56C3410FA801FE4256DFBBE
:1027E100E56C3450FA8014E4256DFBE56C3490FA05
:1027F1008009E4256DFBE56C34D0FAD2A200C2C099
:10280100D2B700C2B7E4FDEA3392A1D2A0EB25E032
:10281100FBEA33FA00C2A00DBD10ECC2A200D2C087
:05282100E4F56CF56D0B
:01282600228F
:10282700EF14601314601514601724FC6018240754
:102837007017759D018012759D02800D759D04802E
:1028470008759D088003759D8053A2FBE4F5BDF5CF
:10285700BE53070775BC4000EF42BC0043BC801263
:102867002B1243BC08122B12E4FFEF7007E5BC5490
:1028770010FF80F653BCE7E4F59DAFBDEF75F0049C
:0F288700A4AEF0ADBE7C002D78B8F6EC3E18F68E
:01289600221F
:020006000022D6
:102AE800E4FDFCED1D70011CED4C70F7EF1F70014B
:052AF8001EEF4E70EE20
:012AFD0022B6
:062B1000D2C47F0A7E0022
:0A2B1600EF1F70011EEF4E70F72252
:03000300022AFED0
:102AFE0020B50512000680010020A5041200063242
:022B0E00003293
:03001300020008E0
:020008000032C4
:03002300022A8529
:102A8500C0E0C0D075D018309814C298E599B40A42
:102A950004D20080097425254DF8A699054DD0D09E
:032AA500D0E0324C
:03000B00022A6066
:102A6000C0E0C0D075D008758A30758CF8E5351592
:102A700035AE34700215344E70067534037535E882
:052A8000D0D0D0E032CF
:102AA800785F7C007D007BFF7A2A79327E007F0A7E
:102AB8001218D37B007A00795F7D0A122945E4F564
:012AC8004DC0
:012AC90022EA
:102ACA00785F7C007D007BFF7A2A793C7E007F0B51
:0D2ADA001218D37A00795F122941E4F54DFE
:012AE70022CC
:10296900755F0678607C007D007BFF7A2A79477E57
:10297900007F071218D37B007A0079607D0712293E
:10298900457F327E00122AE8D55FF67B007A00790E
:10299900607D05122945755F067F327E00122AE89F
:0E29A900D55FF67B007A0079607D0502294536
:10215D0075500AE4F5511224941229FB30C315125F
:10216D0027AA007D191227BD7D19E4FF1227BD0096
:10217D007D198022788F760008761E087600087605
:10218D001E7D581227B9007D581227BD7D58E4FFDA
:10219D001227BD007D581227BD7F017E00122AE84F
:1021AD00300008120026C200E4F54D003002EA129C
:1021BD001DA1121FECD378D4E6945E18E69401406D
:0121CD0042CF
:1021CE0078527C007D007BFF7A2A794E7E007F0953
:1021DE001218D330C30E1223B07D037C007F03127E
:1021EE0023B6800C1225F67D1E7C007F031225FC83
:1021FE00C2B6C2A67B007A0079527D09122945E447
:02220E00F54D8C
:0C221000D378D6E6945E18E694014042B4
:10221C0078527C007D007BFF7A2A79577E007F09FB
:10222C001218D330C30E1223B07D037C007F03122F
:10223C0023B6800C1225F67D1E7C007F031225FC34
:10224C00C2B6C2A67B007A0079527D09122945E4F8
:02225C00F54D3E
:10225E00122721122897787FE6FC08E6FDE4121774
:10226E00497B667A66794678401216D7500312007B
:10227E00067881E6FC08E6FDE41217497B667A666D
:10228E00794678401216D740030221A612000602A4
:02229E0021A677
:101439000217EEE86480F8E933E83360110460F0DC
:10144900ED33EC337009E8FCE9FDEAFEEBFF220419
:1014590060DED3EB9FEA9EE99DE8C2E78CF0C2F714
:1014690095F0400CE8CCF8E9CDF9EACEFAEBCFFBE0
:101479001217B985D0F05804700320D5B3E8047069
:10148900075002B2D50217F892D5EC0460F7E4CC04
:10149900C0E0C398F8603B94186008400DD0E0FBA9
:1014A9000217D0E4FBFAC9FC8028E830E406E4C955
:1014B900FBE4CAFCE830E305E4C9CACBFCE85407FD
:1014C9006010F8C3E913F9EA13FAEB13FBEC13FC08
:1014D900D8F130F52FC3E49CFCEF9BFFEE9AFEEDAB
:1014E90099FDD0E0FBEF4E4D4C701222DB03021741
:1014F900F5EC2CFCEF33FFEE33FEED33FDED30E779
:10150900EB0217D0EF2BFFEE3AFEED39FDD0E0FBF1
:1015190050130BBB00030217F8ED13FDEE13FEEF9A
:0815290013FFEC13FC0217D0C4
:10153100EC4D6011E8497017ED33EC3304600DE4B4
:10154100FCFFFEFD22E933E8330470F80217EE12C6
:1015510017B958046009E4CC2481500628500902C7
:1015610017F82840030217F5C0E0EB4A7044B98030
:1015710006D0E0FB0217E4EF4E701CBD8008EBFFC4
:10158100EAFEE9FD80EBE98DF0A4FEE5F002161A12
:10159100E9CDF9EAFEEBFFEF89F0A4FCE5F0CE8995
:1015A100F0A42EFFE435F0CD89F0A42DFEE435F052
:1015B1008067EF4E7005BD80D780C3EF8BF0A4AC80
:1015C100F0EE8BF0A42CFCE435F0F8EF8AF0A42CBB
:1015D100E5F038FCE433CB8DF0A42CFCE5F03BF8CE
:1015E100EE8AF0A42CFCE5F038F8E433CF89F0A4BE
:1015F1002CFCE5F038CF3400CE89F0A42FFFE5F0C4
:101601003EFEE433C98DF0A42EFEE5F039CD8AF01B
:10161100A42FFFE5F03EFEE43DFD33D0E0FB500793
:101621000BBB000F0217F8EC2CFCEF33FFEE33FE7F
:06163100ED33FD0217D0AD
:101637000217F8EC5D046005E8590470030217EE21
:101647001217B9580460F6EC4860F2EC7004FDFE1E
:10165700FF22C860DB2481C85009C3986002500686
:101667000217F59850CAF582E9294B4A7005AB82F3
:101677000217E475F0007C1A7880C3EF9BEE9AEDB1
:1016870099400DC3EF9BFFEE9AFEED99FDE842F0FE
:10169700DC23ACF0D0E0FFD0E0FED0E0FDAB822051
:1016A700E7101BEB60BAEC2CFCEF33FFEE33FEEDDB
:1016B70033FD0217D0E803F830E705C0F075F000F6
:1016C700EF2FFFEE33FEED33FD40B830E7C280AABF
:1016D70074F8CC6480CCC86480C8F582046043C3C6
:1016E700EB9FF5F0EA9E42F0E99D42F0E89C45F059
:1016F70060305018E5825FFFE582F42B5582FB507E
:10170700210ABA001D09B90019088016E5825BFB9A
:10171700E582F42F5582FF50090EBE00050DBD006E
:10172700010CC3EB9FF5F0EA9E42F0E99D42F0E819
:0D1737009C45F06007CC4820E701B3EC2290
:1017440075F020800E75F010800575F0087D007E20
:10175400007F003392D530D50312198DEC3340103D
:10176400EF33FFEE33FEED33FDEC33FCD5F0ED2229
:0E177400E5F0247EA2D513CC92E7CDCEFF2265
:10178200EDD2E7CD33EC3392D524814006E4FFFE5F
:10179200FDFC22FCE4CFCECDCC24E0501174FF80BE
:1017A200EDC3CC13CCCD13CDCE13CECF13CF04705B
:0717B200F030D5DE02198DB5
:1017B900E9D2E7C933E833F892D5EDD2E7CD33EC76
:0717C90033FC5002B2D522EF
:1017D000EC30E7100FBF000C0EBE00080DBD00047A
:1017E0000BEB6014A2D5EB13FCED92E7FD2274FF26
:1017F000FCFDFEFF22E480F8A2D574FF13FC7D807F
:03180000E480EF92
:0300000002269540
:0C269500787FE4F6D8FD7581EA0226DCAF
:10180300E709F608DFFA8046E709F208DFFA803EC7
:1018130088828C83E709F0A3DFFA8032E309F608B4
:10182300DFFA8078E309F208DFFA807088828C831C
:10183300E309F0A3DFFA806489828A83E0A3F608D0
:10184300DFFA805889828A83E0A3F208DFFA804CAA
:1018530080D280FA80C680D4806980F28033801081
:1018630080A680EA809A80A880DA80E280CA8033EA
:1018730089828A83ECFAE493A3C8C582C8CCC58362
:10188300CCF0A3C8C582C8CCC583CCDFE9DEE78032
:101893000D89828A83E493A3F608DFF9ECFAA9F0B1
:1018A300EDFB2289828A83ECFAE0A3C8C582C8CC07
:1018B300C583CCF0A3C8C582C8CCC583CCDFEADE20
:1018C300E880DB89828A83E493A3F208DFF980CC82
:1018D30088F0EF60010E4E60C388F0ED2402B4047B
:1018E3000050B9F582EB2402B4040050AF23234522
:0618F300822390185373DC
:1018F900BB010CE58229F582E5833AF583E02250A4
:1019090006E92582F8E622BBFE06E92582F8E222ED
:0D191900E58229F582E5833AF583E4932207
:10192600EF8DF0A4A8F0CF8CF0A428CE8DF0A42ED5
:02193600FE228F
:10193800BC000BBE0029EF8DF084FFADF022E4CC93
:10194800F875F008EF2FFFEE33FEEC33FCEE9DEC5C
:10195800984005FCEE9DFE0FD5F0E9E4CEFD22EDA2
:10196800F8F5F0EE8420D21CFEADF075F008EF2FEC
:10197800FFED33FD4007985006D5F0F222C398FDDD
:051988000FD5F0EA227A
:1029B700C2D5E830E70FB2D5E4C39BFBE49AFAE44B
:1029C70099F9E498F8EC30E717B2D51229ED121906
:1029D700EFE4C39BFBE49AFAE499F9E498F88003DF
:1029E7001219EF30D50DE4C39FFFE49EFEE49DFD71
:0429F700E49CFC223E
:0E198D00C3E49FFFE49EFEE49DFDE49CFC226B
:0C199B00E6FC08E6FD08E6FE08E6FF2278
:0C19A700ECF608EDF608EEF608EFF6226C
:1026A10002215DE493A3F8E493A34003F68001F2D1
:1026B10008DFF48029E493A3F85407240CC8C3333A
:1026C100C4540F4420C8834004F456800146F6DF09
:1026D100E4800B0102040810204080900016E47E83
:1026E100019360BCA3FF543F30E509541FFEE493FE
:1026F100A360010ECF54C025E060A840B8E493A3C5
:10270100FAE493A3F8E493A3C8C582C8CAC583CAEF
:10271100F0A3C8C582C8CAC583CADFE9DEE780BEA7
:0100210000DE
:1019B30075F008758200EF2FFFEE33FECD33CDCCEB
:1019C30033CCC58233C5829BED9AEC99E58298406E
:1019D3000CF582EE9BFEED9AFDEC99FC0FD5F0D64B
:1019E300E4CEFBE4CDFAE4CCF9A88222B800C1B975
:1019F3000059BA002DEC8BF084CFCECDFCE5F0CBB3
:101A0300F97818EF2FFFEE33FEED33FDEC33FCEBEB
:101A130033FB10D703994004EB99FB0FD8E5E4F9A6
:101A2300FA227818EF2FFFEE33FEED33FDEC33FC93
:101A3300C933C910D7059BE99A4007EC9BFCE99A87
:101A4300F90FD8E0E4C9FAE4CCFB2275F010EF2FCC
:101A5300FFEE33FEED33FDCC33CCC833C810D707CC
:101A63009BEC9AE899400AED9BFDEC9AFCE899F807
:0E1A73000FD5F0DAE4CDFBE4CCFAE4C8F9229A
:00000001FF
