:1028BC007365746661756C740D0A736574737563F6
:1028CC006365640D0A416C61726D0D0A746D705F05
:0E28DC006572720D0A746D705F6572720D0A7E
:0B001600023403E8014C00C100C101EE
:10278B007C007D641217BCEF2430F528AE5AAF5B8A
:10279B007C007D0A1217BC7C007D0A1217BCED244D
:1027AB0030F529752A2EAE5AAF5B7C007D0A1217C5
:1027BB00BCED2430F52B752C0D752D0A7A0079257F
:0427CB007B007D0909
:0627CF008B698A6A896B28
:1027D500E4FFAB69AA6AA96B8F8275830012177D26
:0D27E500F5993099FDC2990FEFC39D40E5B5
:0127F20022C4
:10288500438780759850759C64438E04438E01433D
:102895008E10758921538E3F75B71475B824D2AC47
:1028A500D2A9D288D2A8D28AD2AAD2AF758A3075D7
:0728B5008CF8C28DC28C22D9
:10231400E4F5BDF5BEC200C201F54CF547D2027822
:1023240078F608F608F608F608F608F67886F60849
:10233400F6788AF608F6D2C0D2A2C2B7C2A0C2A169
:102344007DF97C047F02122645007DF97C047F021E
:10235400122645007DF97C047F01122645007DF993
:102364007C047F0112264530C31512263200122642
:102374003F7D197C00E4FF122645007D19802478F6
:102384008E760008761E08760008761E7D5C12267E
:1023940041007D5C1226417D597C00E4FF122645F4
:1023A400007D597C00E4FF12264575BB307591070A
:1023B400E4F592D2A4D297D296D2B6D2B5D2A6D20E
:0C23C400A5C28CC2A9C28EC2ABC2A82266
:10002600E525B4491DE526B44E18E527B44913E580
:1000360028B4540EE529B44909122314122885025E
:1000460012B4E525644C60030200EFE526644460C3
:10005600030200EFE52764316009E5276432600397
:0C0066000200EFE528643D60030200EF9B
:10007200E52AB40D0DE52924D0F55BE434FFF55AE9
:100082008046E52BB40D0FE52924D075F00AA4FFB4
:10009200AEF0E52A8020E52CB40D2BE52A24D0759C
:1000A200F00AA4FDACF0E52924D075F064A42DFF7C
:1000B200E5F03CFEE52B24D0FDE434FFCD2FF55BCB
:1000C200ED3EF55A80028020E527B43105755C03C8
:1000D2008008E527B43211E4F55CAD5BAC5AAF5C45
:0C00E200122484122954800312293200D9
:1000EE0022E52564496003020190E526644E600313
:1000FE00020190E52764496003020190E5286443FC
:0B010E006003020190E529643D70775A
:10011900E52CB40D0DE52B24D0F55BE434FFF55A3D
:100129008046E52DB40D0FE52B24D075F00AA4FF08
:10013900AEF0E52C8020E52EB40D2BE52C24D075EE
:10014900F00AA4FDACF0E52B24D075F064A42DFFD2
:10015900E5F03CFEE52D24D0FDE434FFCD2FF55B21
:10016900ED3EF55A8002801AE52AB45308855A48AB
:10017900855B498010E52AB44108855A4A855B4B5D
:0601890080031229320080
:10018F0022E52564497045E526644E703FE52764F6
:0F019F00497039E52864457033E529643D702DBA
:1001AE00E52BB40D23E52A24D0F55BE434FFF55A94
:1001BE00C394004016D3E55B9403E55A9400500BAC
:0C01CE00855A36855B3780031229320009
:1001DA0022E52564506003020279E526643160094C
:1001EA00E52664326003020279E527643D60030272
:0201FA00027988
:1001FC00E529B40D0DE52824D0F55BE434FFF55A60
:10020C008046E52AB40D0FE52824D075F00AA4FF2A
:10021C00AEF0E5298020E52BB40D2BE52924D07513
:10022C00F00AA4FDACF0E52824D075F064A42DFFF1
:10023C00E5F03CFEE52A24D0FDE434FFCD2FF55B40
:10024C00ED3EF55A80028020E527B4310575F9039F
:10025C008008E527B43211E4F5F9AD5BAC5AAF5C1C
:0C026C001222361229548003122932009D
:1002780022E525645460030203A5E526643160097C
:10028800E526643260030203A5E527643D600302A6
:0202980003A5BC
:10029A00F55AF55BF55CF55DE52A640D704AE528CB
:1002AA0024D075F00AA4FFAEF0E52924D0FDE43489
:1002BA00FFCD2FF55BED3EF55AFEAF5B7C027DB3B9
:1002CA001217AAEF2437FFEE34D8FE7C077DD0122E
:1002DA0017BCAA06AB07AE5AAF5B7C007D76121735
:1002EA00AAEF2BFFEE3A8070E52C640D600302033F
:1002FA00A0E52824D075F00AA4FFAEF0E52924D0A1
:10030A00FDE434FFCD2FF55BED3EF55AFEAF5B7C85
:10031A00027DB31217AAAA06AB07E52B75F045A40E
:10032A002BFFEA35F0CF2447CF34CBFE7C077DD0B4
:10033A001217BCAA06AB07AE5AAF5B7C007D7612D9
:10034A0017AAEF2BFFEE3AFEE52B24D075F03BA45B
:10035A0075F005842FFFEC3ECF2470F55DEF34F97C
:10036A00F55CE526B43112AD5DAC5C7F0212264520
:10037A0000AD5DAC5C7F028015E526B43218AD5D38
:10038A00AC5C7F0112264500AD5DAC5C7F01122694
:0A039A004512295480031229320095
:1003A40022E52564506003020435E52664556003A4
:1003B400020435E52764527078E52864417072E5DB
:1003C40029643D706CE52BB40D0DE52A24D0F52489
:1003D400E434FFF5238049E52CB40D0FE52A24D03D
:1003E40075F00AA4FFAEF0E52B8020E52DB40D2BAB
:1003F400E52B24D075F00AA4FDACF0E52A24D075D1
:10040400F064A42DFFE5F03CFEE52C24D0FDE4349B
:10041400FFCD2FF524ED3EF5238005122932800F00
:10042400E4FBFAFDFCAF24AE231223D012295400BE
:1004340022E525645060030204C5E5266455600383
:100444000204C5E52764577078E52864497072E5AD
:1004540029643D706CE52BB40D0DE52A24D0F522FA
:10046400E434FFF5218049E52CB40D0FE52A24D0AE
:1004740075F00AA4FFAEF0E52B8020E52DB40D2B1A
:10048400E52B24D075F00AA4FDACF0E52A24D07540
:10049400F064A42DFFE5F03CFEE52C24D0FDE4340B
:1004A400FFCD2FF522ED3EF5218005122932800F74
:1004B400E4FBFAAD22AC21FFFE1223D01229540032
:1004C40022E52564447062E5266445705CE5276492
:1004D4004C7056E52864597050E529643D704AE52E
:1004E4002BB40D0DE52A24D0F54EE434FFF54D80F0
:1004F40027E52CB40D1DE52A24D075F00AA4FFAE1F
:10050400F0E52B24D0FDE434FFCD2FF54EED3EF580
:100514004D8005122932800FAB4EAA4DE4FDFCFF3D
:10052400FE1223D01229540022E52564537042E5BB
:10053400266448703CE52764447036E528644E70B0
:1005440030E529643D702AE52AB4530EE52CB40D38
:1005540009E52B24D01392B68011E52AB4410FE5A6
:100564002CB40D0AE52B24D01392A612295402129E
:10057400B9E5256444705FE526644C7059E5276449
:10058400497053E528644D704DE529643D7047E595
:100594002C640D703CE52AB45309E52B24D0139246
:1005A400B58010E52AB44109E52B24D01392A58027
:1005B40002801E20B5087D327C007F03800920A5BF
:1005C4000E7D327C00E4FF122484122954800580BD
:1005D400001229320022E52564536003020A41E532
:1005E4002664546003020A41E52764416003020A59
:1005F40041E52864546003020A41E5296445600327
:0C060400020A41E52A643F6003020A413B
:1006100075250DFB7A0079257D011227CF75254CB4
:1006200075264475273175283DC3787BE6940A18F2
:10063000E69400501708E62430F529752A0D752B2D
:100640000A7B007A0079257D070206E4C3787BE601
:10065000946418E694005034E6FA08E6FB7C007DCA
:100660000AFFAE021217BCEF2430F5297C007D0A88
:10067000AF03AE021217BCED2430F52A752B0D75B1
:100680002C0A7B007A0079257D088058C3787BE6A8
:1006900094E818E694035051E6FA08E6FB7C007DE6
:1006A00064FFAE021217BCEF2430F5297C007D0AEE
:1006B000AF03AE021217BC7C007D0A1217BCED24FA
:1006C00030F52A787AE6FE08E6FF7C007D0A1217EC
:1006D000BCED2430F52B752C0D752D0A7B007A00AE
:1006E00079257D091227CF800312293275254C7593
:1006F000264475273275283DC3787DE6940A18E6AE
:100700009400501708E62430F529752A0D752B0A38
:100710007B007A0079257D070207B3C3787DE694D4
:100720006418E694005034E6FA08E6FB7C007D0A83
:10073000FFAE021217BCEF2430F5297C007D0AAF12
:1007400003AE021217BCED2430F52A752B0D752C63
:100750000A7B007A0079257D088058C3787DE6946D
:10076000E818E694035051E6FA08E6FB7C007D6445
:10077000FFAE021217BCEF2430F5297C007D0AAFD2
:1007800003AE021217BC7C007D0A1217BCED2430A8
:10079000F52A787CE6FE08E6FF7C007D0A1217BC8D
:1007A000ED2430F52B752C0D752D0A7B007A007920
:1007B000257D091227CF800312293275250D7B0074
:1007C0007A0079257D011227CF7525507526317560
:1007D000273DC37887E6940A18E69400501708E688
:1007E0002430F52875290D752A0A7B007A007925B1
:1007F0007D0602088DC37887E6946418E69400505D
:1008000034E6FA08E6FB7C007D0AFFAE021217BC54
:10081000EF2430F5287C007D0AAF03AE021217BC2E
:10082000ED2430F529752A0D752B0A7B007A0079A5
:10083000257D078058C37887E694E818E69403502E
:1008400051E6FA08E6FB7C007D64FFAE021217BC9D
:10085000EF2430F5287C007D0AAF03AE021217BCEE
:100860007C007D0A1217BCED2430F5297886E6FE5F
:1008700008E6FF7C007D0A1217BCED2430F52A75CE
:100880002B0D752C0A7B007A0079257D081227CF65
:10089000800312293275255075263275273DC3789D
:1008A0008BE6940A18E69400501708E62430F528E1
:1008B00075290D752A0A7B007A0079257D060209C3
:1008C00059C3788BE6946418E694005034E6FA082D
:1008D000E6FB7C007D0AFFAE021217BCEF2430F568
:1008E000287C007D0AAF03AE021217BCED2430F560
:1008F00029752A0D752B0A7B007A0079257D0780E2
:1009000058C3788BE694E818E694035051E6FA0849
:10091000E6FB7C007D64FFAE021217BCEF2430F5CD
:10092000287C007D0AAF03AE021217BC7C007D0A52
:100930001217BCED2430F529788AE6FE08E6FF7C24
:10094000007D0A1217BCED2430F52A752B0D752C8D
:100950000A7B007A0079257D081227CF80031229AF
:100960003275250D7B007A0079257D011227CF781D
:100970009E12181F1216068E5A8F5B752554752607
:100980003175273DC3E55B94E8E55A9403500512A1
:10099000278B80031227F378A212181F1216068ED7
:1009A0005A8F5B75255475263275273DC3E55B94D8
:1009B000E8E55A9403500512278B80031227F3753C
:1009C000250D7B007A0079257D011227CF30A30EFB
:1009D00075255475263175274F75284B800C752564
:1009E0005475263175274E75284F75290D752A0ABD
:1009F0007B007A0079257D061227CF30A70E75255A
:100A00005475263275274F75284B800C7525547503
:100A1000263275274E75284F75290D752A0A7B00D9
:100A20007A0079257D061227CF75255275264175E6
:0E0A3000275475284575293DAE23AF247C0060
:100A3E00020D32E525644C6003020B6DE52664441D
:100A4E006003020B6DE52764316009E527643260AF
:100A5E0003020B6DE528643F6003020B6DE527640E
:100A6E0031706775254C75264475273175283DC341
:100A7E00787BE6940A18E694005002806EC3787B69
:100A8E00E6946418E6940050028071C3787BE69475
:100A9E00E818E694035030E6FA08E6FB7C007D6425
:100AAE00FFAE021217BCEF2430F5297C007D0AAF91
:100ABE0003AE021217BC7C007D0A1217BCED243067
:100ACE00F52A787A020B620212B9E52764326003C6
:100ADE000212BC75254C75264475273275283DC308
:100AEE00787DE6940A18E69400500508E6020C8715
:100AFE00C3787DE6946418E69400501FE6FA08E683
:100B0E00FB7C007D0AFFAE021217BCEF2430F529E4
:100B1E007C007D0AAF03AE02020CDEC3787DE69444
:100B2E00E818E694035035E6FA08E6FB7C007D648F
:100B3E00FFAE021217BCEF2430F5297C007D0AAF00
:100B4E0003AE021217BC7C007D0A1217BCED2430D6
:100B5E00F52A787CE6FE08E6FF020E3C0212B9E5A5
:100B6E002564506003020CFAE52664316009E5261F
:100B7E0064326003020CFAE527643F6003020CFA4C
:100B8E00E52664316003020C2675255075263175F5
:100B9E00273DC37887E6940A18E694005003020CAA
:100BAE0044C37887E6946418E694005023E6FA0866
:100BBE00E6FB7C007D0AFFAE021217BCEF2430F577
:100BCE00287C007D0AAF03AE021217BCED020C8723
:100BDE00C37887E694E818E694035039E6FA08E6F7
:100BEE00FB7C007D64FFAE021217BCEF2430F528AB
:100BFE007C007D0AAF03AE021217BC7C007D0A1288
:100C0E0017BCED2430F5297886E6FE08E6FF7C0059
:100C1E007D0A020CDE0212B9E5266432600302126E
:100C2E00BC75255075263275273DC3788BE6940A20
:100C3E0018E69400501708E62430F52875290D752E
:100C4E002A0A7B007A0079257D06021289C3788BE9
:100C5E00E6946418E694005035E6FA08E6FB7C004C
:100C6E007D0AFFAE021217BCEF2430F5287C007D02
:100C7E000AAF03AE021217BCED2430F529752A0D0A
:100C8E00752B0A7B007A0079257D07021289C378BD
:100C9E008BE694E818E69403504FE6FA08E6FB7CE0
:100CAE00007D64FFAE021217BCEF2430F5287C00E5
:100CBE007D0AAF03AE021217BC7C007D0A1217BC70
:100CCE00ED2430F529788AE6FE08E6FF7C007D0AE1
:100CDE001217BCED2430F52A752B0D752C0A7B00EE
:100CEE007A0079257D080212890212B9E525645031
:100CFE006003020DC8E52664576003020DC8E527A0
:100D0E00644D6003020DC8E528643F6003020DC800
:100D1E0075255275264175275475284575293DAEA2
:100D2E0023AF24FC7D0A1217BCEF2430F52AAE2324
:100D3E00AF247C007D0A1217BCED2430F52B752CE8
:100D4E004B752D0D752E0A7B007A0079257D0A12C2
:100D5E0027CF75255775264975274475285475294B
:100D6E0048752A3DAE21AF227C001217BCED24300F
:100D7E00F52B752C4C752D0D752E0A7B007A00798E
:100D8E00257D0A1227CF75254475264575274C7586
:100D9E002841752959752A3DAE4DAF4E7C0012176C
:100DAE00BCED2430F52B752C4C752D0D752E0A7B54
:100DBE00007A0079257D0A021289E52564546003C4
:100DCE00020ECCE52664316009E52664326003022A
:0B0DDE000ECCE527643F6003020ECC42
:100DE900E5266431706A789E12181F1216068E5A0B
:100DF9008F5B75255475263175273DC3E55B94E8EE
:100E0900E55A94034003020EC97C007D641217BCA5
:100E1900EF2430F528AE5AAF5B7C007D0A1217BC6F
:100E29007C007D0A1217BCED2430F529752A2EAEF7
:100E39005AAF5B7C007D0A1217BCED2430F52B7587
:100E49002C0D752D0A7B007A0079257D09021289FE
:100E5900E526643260030212BC78A212181F12162A
:100E6900068E5A8F5B75255475263275273DC3E565
:100E79005B94E8E55A940350477C007D641217BCE3
:100E8900EF2430F528AE5AAF5B7C007D0A1217BCFF
:100E99007C007D0A1217BCED2430F529752A2EAE87
:100EA9005AAF5B7C007D0A1217BCED2430F52B7517
:100EB9002C0D752D0A7B007A0079257D090212898E
:030EC9000227F30A
:100ECC00E52564506003020FEBE5266444600302E1
:100EDC000FEBE52764496003020FEBE528644360E0
:100EEC0003020FEBE529643F6003020FEB7882E607
:100EFC00FA08E6FB7C0F7DFFFFAE021217BC8F2BAE
:100F0C007C0F7DFFAF03AE021217BC7E007F0A126E
:100F1C0017AAAA06AB077C0F7DFF1217BC8F2D7C7E
:100F2C000F7DFFAF03AE021217BC7E007F0A1217B3
:100F3C00AA7C0F7DFF1217BC8F2E752953752A3D85
:100F4C007430252BF52B752C2E7430252DF52D7426
:100F5C0030252EF52E752F0D75300A7B007A007911
:100F6C00257D0C1227CF7884E6FA08E6FB7C0F7DF2
:100F7C00FFFFAE021217BC8F2B7C0F7DFFAF03AEB1
:100F8C00021217BC7E007F0A1217AAAA06AB077CB6
:100F9C000F7DFF1217BC8F2D7C0F7DFFAF03AE02B0
:100FAC001217BC7E007F0A1217AA7C0F7DFF121746
:100FBC00BC8F2E752941752A3D7430252BF52B7568
:100FCC002C2E7430252DF52D7430252EF52E752FE5
:100FDC000D75300A7B007A0079257D0C021289E5AB
:100FEC0025645660030210D8E526644F6003021096
:100FFC00D8E527645460030210D8E52864436003E5
:10100C000210D8E529643F60030210D8787EE6FC14
:10101C0008E6FDEC1313543FF52BEC5403FEAF051F
:10102C007C007D0A1217AAAC06EC1313543FF52D65
:10103C00EC5403FE7C001217AAEE1313543FF52E4A
:10104C00752953752A3D7430252BF52B752C2E7470
:10105C0030252DF52D7430252EF52E752F0D753070
:10106C000A7B007A0079257D0C1227CF7880E6FC6C
:10107C0008E6FDEC1313543FF52BEC5403FEAF05BF
:10108C007C007D0A1217AAAC06EC1313543FF52D05
:10109C00EC5403FE7C001217AAEE1313543FF52EEA
:1010AC00752941752A3D7430252BF52B752C2E7422
:1010BC0030252DF52D7430252EF52E752F0D753010
:1010CC000A7B007A0079257D0C021289E52564548F
:1010DC00707BE52664507075E5276447706FE528D2
:1010EC0064447069E529643F706330A31575295316
:1010FC00752A20752B4F752C4B752D0D752E0AFBF3
:10110C008014752953752A20752B4E752C4F752D0F
:10111C000D752E0A7B007A0079257D0A1227CF30B7
:10112C00A70E752941752A20752B4F752C4B800CF9
:10113C00752941752A20752B4E752C4F752D0D7503
:10114C002E0A7B007A0079257D0A021289E5256436
:10115C00556003021227E52664546003021227E54A
:10116C002764456003021227E528644360030212DA
:10117C0027E529643F600302122730B624752554F5
:10118C00752645752743752831752920752A4F75A5
:10119C002B4E752C0D752D0AFB7A0079257D098057
:1011AC0026752554752645752743752831752920D4
:1011BC00752A4F752B46752C46752D0D752E0A7B91
:1011CC00007A0079257D0A1227CF30A62675255482
:1011DC00752645752743752832752920752A4F7554
:1011EC002B4E752C0D752D0A7B007A0079257D0907
:1011FC000212897525547526457527437528327555
:10120C002920752A4F752B46752C46752D0D752E7C
:10121C000A7B007A0079257D0A8062E5256443709B
:10122C005FE526644D7059E527644F7053E52864DB
:10123C0044704DE529643F704730C31E75254D75CC
:10124C00264F75274475283D752941752A50752BF5
:10125C0043752C0D752D0AFB801D75254D75264F7C
:10126C0075274475283D752941752A43752B43759F
:10127C002C0D752D0A7B007A0079257D090227CF6C
:10128C00E52564537027E526644D7021E527644FEE
:10129C00701BE528B44416E529B43D11E52BB40DBB
:1012AC000AE52A24D0139202022954800012293212
:0112BC00220F
:101C2500756310E478D6F608F608F608F6E4FF12B0
:101C3500212C7878EEF608EFF678D6E6FC08E62F44
:101C4500F6EE3C18F67F0312212C7878EEF608EFB5
:101C5500F678D8E6FC08E62FF6EE3C18F6D563CD07
:101C650079D6E7C4F854F0C868F709E7C4540F48B3
:101C7500F709E7C4F854F0C868F709E7C4540F48F2
:101C8500F778D6E6FE08E6FF7C007D0F1217AA7CE2
:101C9500037D001217BCAA06AB0778D6E6FE08E658
:101CA500FF7C007D051217AA0D1217BCC3EF9BFF21
:101CB500EE9AC313FEEF13FF787AEEF608EFF67887
:101CC50088A60608F6C3940AEE94005013787BE6BE
:101CD500243078A6F608766D087641087620803897
:101CE500C3787BE6946418E694005031E6FA08E67A
:101CF500FB7C007D0AFFAE021217BCEF243078A6EC
:101D0500F67C007D0AAF03AE021217BCED243078D5
:101D1500A7F608766D0876410876208059C3787B4A
:101D2500E694E818E69403504DE6FA08E6FB7C00D5
:101D35007D64FFAE021217BCEF243078A6F67C0056
:101D45007D64AF03AE021217BC7E007F0ACFCDCFF4
:101D5500CECCCE1217BCEF243078A7F6787AE6FE03
:101D650008E6FF7C007D0A1217BCED243078A8F642
:101D750008766D08764178D8E6FE08E6FF7C007D9A
:101D85000F1217AA7C037D001217BCAA06AB0778B1
:101D9500D8E6FE08E6FF7C007D051217AA0D12178E
:101DA500BCC3EF9BFFEE9AC313FEEF13FF787CEEE7
:101DB500F608EFF6788CA60608F6C3940AEE9400AA
:101DC5005013787DE6243078ACF608766D087641B8
:101DD5000876208038C3787DE6946418E694005030
:101DE50030E6FA08E6FB7C007D0AFFAE021217BC5E
:101DF500EF243078ACF67C007D0AAF03AE021217F3
:101E0500BCED243078ADF608766D0876410876206D
:101E150022C3787DE694E818E69403504DE6FA0867
:101E2500E6FB7C007D64FFAE021217BCEF24307820
:101E3500ACF67C007D64AF03AE021217BC7E007F5A
:101E45000ACFCDCFCECCCE1217BCEF243078ADF66D
:101E5500787CE6FE08E6FF7C007D0A1217BCED24BF
:0A1E65003078AEF608766D0876417D
:011E6F002250
:10190500756B0AE478E6F608F608F608F67F011224
:10191500212C7878EEF608EFF678E6122120787813
:10192500EEF608EFF678E8E6FC08E62FF6EE3C184A
:10193500F6D56BD978E6E6FE08E6FF7C007D0A124F
:1019450017BC78E6A60608A60708E6FE08E6FF7CAB
:10195500007D0A1217BC78E8A60608A60778E6E611
:10196500FE08E6FF7878EEF6FE08EFF6FFFDAC061A
:10197500E41215CD8F6F8E6E8D6D8C6CE4FBFA794C
:101985002078401213B58F6F8E6E8D6D8C6CE4FBD5
:10199500FA798078451214BE7B9D7A1179A5783C39
:1019A5001212C48F6F8E6E8D6D8C6CA804A905AA5A
:1019B50006AB071213B57BC57AA079EA78421213F4
:1019C500B5C004C005C006C0077F817EC57D897C82
:1019D50043AB6FAA6EA96DA86C1213B5D003D002E4
:1019E500D001D0001212C47B047A56794E78BF120A
:1019F50012C48F738E728D718C701216067886EEF6
:101A0500F608EFF678B2A60608F6C3940AEE940037
:101A150050137887E6243078C6F608766D08767711
:101A25000876208038C37887E6946418E6940050D9
:101A350031E6FA08E6FB7C007D0AFFAE021217BC10
:101A4500EF243078C6F67C007D0AAF03AE0212178C
:101A5500BCED243078C7F608766D087677087620D1
:101A65008059C37887E694E818E694035050E6FA5F
:101A750008E6FB7C007D64FFAE021217BCEF243044
:101A850078C6F67C007D64AF03AE021217BC7E00FB
:101A95007F0ACFCDCFCECCCE1217BCEF243078C77E
:101AA500F67886E6FE08E6FF7C007D0A1217BCED97
:101AB500243078C8F608766D08767708762078E8B9
:101AC500E6FE08E6FF7878EEF6FE08EFF6FFFDACD9
:101AD50006E41215CD8F6F8E6E8D6D8C6CE4FBFA5E
:101AE500792078401213B58F6F8E6E8D6D8C6CE4F6
:101AF500FBFA798078451214BE7B9D7A1179A57819
:101B05003C1212C48F6F8E6E8D6D8C6CA804A90566
:101B1500AA06AB071213B57BC57AA079EA784212FB
:101B250013B5C004C005C006C0077F817EC57D8989
:101B35007C43AB6FAA6EA96DA86C1213B5D003D008
:101B450002D001D0001212C47B047A56794E78BFB8
:101B55001212C48F738E728D718C70121606788A6C
:101B6500EEF608EFF678B4A60608F6C3940AEE94E6
:101B7500005013788BE6243078CCF608766D08761D
:101B8500770876208038C3788BE6946418E694004D
:101B95005031E6FA08E6FB7C007D0AFFAE0212171B
:101BA500BCEF243078CCF67C007D0AAF03AE021280
:101BB50017BCED243078CDF608766D087677087673
:101BC500208059C3788BE694E818E694035050E6D4
:101BD500FA08E6FB7C007D64FFAE021217BCEF2419
:101BE5003078CCF67C007D64AF03AE021217BC7E64
:101BF500007F0ACFCDCFCECCCE1217BCEF243078E4
:101C0500CDF6788AE6FE08E6FF7C007D0A1217BC51
:0F1C1500ED243078CEF608766D087677087620C5
:011C2400229D
:101E7000E4F55AF55BF55CF55D755E1078E2F60801
:101E8000F608F608F67F0212212C7878EEF608EFB5
:101E9000F678E2E6FC08E62FF6EE3C18F67F05122F
:101EA000212C7878EEF608EFF678E4E6FC08E62FC9
:101EB000F6EE3C18F6D55ECD79E2E7C4F854F0C8EA
:101EC00068F709E7C4540F48F709E7C4F854F0C8A5
:101ED00068FE09E7C4540F48FF78E4EEF608EFF611
:101EE00078E2E6FC08E6FD78D2A60408A60508A676
:101EF0000608A60778D2E6FC08E6FDE41215CD7BBD
:101F0000327A6679BD78411214BE7B667A66790EA4
:101F100078431212C4789E12182B78D4E6FC08E697
:101F2000FDE41215CD7B327A6679BD78411214BE7C
:101F30007B667A66790E78431212C478A212182B47
:101F4000789E12181F1216068E5A8F5B78D2A65AE8
:101F500008A65B78A212181F1216068E5C8F5D7899
:101F6000D4A65C08A65DAE5AAF5B7C007D641217F8
:101F7000BCEF24307892F6AE5AAF5B7C007D0A123B
:101F800017BC7C007D0A1217BCED24307893F6084C
:101F9000762EAE5AAF5B7C007D0A1217BCED243062
:101FA0007895F6AE5CAF5D7C007D641217BCEF24C3
:101FB000307898F6AE5CAF5D7C007D0A1217BC7C71
:101FC000007D0A1217BCED24307899F608762EAE03
:101FD0005CAF5D7C007D0A1217BCED2430789BF667
:011FE00022DE
:10271F00755A14E478DEF608F608F608F67F01120B
:10272F0026AF79B7E778DF26F619E71836F67F0276
:10273F001226AF79B7E778E126F619E71836F6D5FE
:10274F005ADB78DEE6FE08E6FF7C007D141217BC2C
:10275F00AA06AB07787EEAF608EBF67C007D051239
:10276F0017AA787EA60608A60708EAF6FE08EBF673
:0B277F00FF1217AA7880A60608A60724
:01278A00222C
:1025A900755A0AE478DAF608F608F608F67F011291
:1025B900212C7878EEF608EFF678DA12212078786F
:1025C900EEF608EFF678DCE6FC08E62FF6EE3C18A6
:1025D900F6D55AD978DAE6FE08E6FF7C007D0A12BC
:1025E90017BC7882EEF6FA08EFF6FB78DCE6FE080F
:1025F900E6FF7C007D0A1217BC7884A60608A607A8
:102609007C007D05AF03AE021217AAEEC3137982CF
:10261900F7EF1309F77884E6FE08E6FF1217AAEE2A
:08262900C31309F7EF1309F7D1
:012631002286
:062230007D037C00E4FFC9
:062236008F5E8C5F8D60DD
:10223C00C3E5609403E55F94005006755F0075601C
:10224C0003D3E5609458E55F94024006755F027510
:10225C006058AC5FAD60E41215CD8F648E638D62F7
:10226C008C61A804A905AA06AB071213B5E4FBFA06
:10227C00797A78441214BE7BA47A70795D78401216
:10228C0013B58F688E678D668C657FB57E377DD074
:10229C007C40AB64AA63A962A8611213B57B487A2F
:1022AC00E179EC78411212C4AB68AA67A966A865FB
:1022BC001212C08F688E678D668C651216068E6939
:1022CC008F6AE55EB4031A30B613AD6AAC697F034E
:1022DC0012264500AD6AAC697F0312264578B8809A
:1022EC001BE55E701E30A612AD6AAC69FF12264566
:1022FC0000AD6AAC69E4FF12264578BAA65F08A661
:07230C0060800100121905B9
:0123130022A7
:06247E007D1E7C00E4FF5E
:062484008F5E8C5F8D608D
:10248A00C3E560941EE55F94005006755F007560B1
:10249A001ED3E5609484E55F94034006755F037577
:1024AA006084AE5FAF607C007D091217AA7D7D1241
:1024BA0017BCAA06AB07AE5FAF607C007D0312179C
:1024CA00AAEF2BF562EE3AF561E55EB4032030B669
:1024DA001AAD62AC617F0312264500AD62AC617F22
:1024EA0003122645788EA65F08A660008021E55E65
:1024FA00701D30A619AD62AC61FF12264500AD62AF
:10250A00AC61E4FF1226457890A65F08A660001227
:02251A001C257E
:01251C00229C
:0C212000E6FC08E62FF6EE3C18F67F0403
:10212C00E4F574F575F9F576F577EFB40800503DE4
:10213C00902143F828287302215B02215F0221635E
:10214C0002216702216B02216F022173022177E4C5
:10215C00FD801A7D0880167D1080127D18800E7D02
:10216C0020800A7D2880067D3080027D38C2A40044
:10217C00D297E4FB74807E00A803088006CEA2E709
:10218C0013CE13D8F8FFEDF582EF558224FF92950C
:10219C00C29700D297000BBB08DAD2A400C2A400ED
:1021AC00E4FB74807E00A803088006CEA2E713CE61
:1021BC0013D8F8FFEDF582EF558224FF9295C29764
:1021CC0000D29700A296E433F574C374079BFFE525
:1021DC0074A807088002C333D8FCF57442010BBB0A
:1021EC0008C08974E4F9FBC29700D297A296E43335
:1021FC00F575C374079BFFE575A807088002C33308
:10220C00D8FCF5754201000BBB08DC8975E574FE42
:10221C00E5757A002400FFEA3E540FF5768F77D2ED
:03222C00A400FE0D
:01222F00228C
:0823D0008C5E8D5F8A608B6159
:1023D800D3EF9400EE94004048AB07AA06E4F9F85E
:1023E8007F407E427D0FFC122841EC1215C8E4FBA9
:1023F800FA794878411214BEE4FBFAF978421214CB
:10240800BE121606EFD394FF40027FFF8F80D2C51D
:10241800C2C11229A012299EC2C41229A0C2C5C2D3
:10242800C1D3E55F9400E55E9400401FAF5FEFD332
:10243800940740027F078F80C2C5D2C11229A0121B
:10244800299EC2C41229A0C2C5C2C1D3E5619400A5
:10245800E5609400401FAF61EFD3940740027F0707
:102468008F80D2C5D2C11229A012299EC2C41229B6
:05247800A0C2C5C2C1B5
:01247D00223C
:1026320078B876000876030876000876037D197C60
:03264200007F0313
:042645008C6B8D6CA1
:10264900E4FBFAEF14601514601D1460252403706F
:102659002AE4256CFBE56B3410FA801FE4256CFB3A
:10266900E56B3450FA8014E4256CFBE56B3490FA81
:102679008009E4256CFBE56B34D0FAD2A200C2C014
:10268900D2B700C2B7E4FDEA3392A1D2A0EB25E0AC
:10269900FBEA33FA00C2A00DBD10ECC2A200D2C001
:0526A900E4F56BF56C87
:0126AE002209
:1026AF00EF14601314601514601724FC60182407CE
:1026BF007017759D018012759D02800D759D0480A8
:1026CF0008759D088003759D8053A2FBE4F5BDF549
:1026DF00BE53070775BC4000EF42BC0043BC8012DD
:1026EF0029A043BC081229A0E4FFEF7007E5BC54F2
:1026FF0010FF80F653BCE7E4F59DAFBDEF75F00416
:0F270F00A4AEF0ADBE7C002D78B7F6EC3E18F608
:01271E002298
:020006000022D6
:10297600E4FDFCED1D70011CED4C70F7EF1F7001BE
:052986001EEF4E70EE93
:01298B002229
:06299E00D2C47F0A7E0096
:0A29A400EF1F70011EEF4E70F722C6
:0300030002298C43
:10298C0020B50512000680010020A50412000632B5
:02299C00003207
:03001300020008E0
:020008000032C4
:0300230002290FA0
:10290F00C0E0C0D075D018309814C298E599B40AB9
:10291F0004D20080097425254CF8A699054CD0D017
:03292F00D0E032C3
:03000B000228EADE
:1028EA00C0E0C0D075D008758A30758CF8E535150A
:1028FA0035AE34700215344E70067534037535E8FA
:05290A00D0D0D0E03246
:10293200785E7C007D007BFF7A2879BC7E007F0A6E
:102942001217577B007A00795E7D0A1227CFE4F5D1
:012952004C38
:012953002261
:10295400785E7C007D007BFF7A2879C67E007F0B41
:102964001217577B007A00795E7D0B1227CFE4F5AE
:012974004C16
:01297500223F
:1027F300755E06785F7C007D007BFF7A2879D17E49
:10280300007F071217577B007A00795F7D07122735
:10281300CF7F327E00122976D55EF67B007A00796F
:102823005F7D051227CF755E067F327E0012297603
:0E283300D55EF67B007A00795F7D050227CF27
:101FE100754F0AE4F55012231412288530C31512D7
:101FF1002632007D191226457D19E4FF122645007F
:102001007D198022788E760008761E087600087683
:102011001E7D58122641007D581226457D58E4FF49
:10202100122645007D581226457F017E0012297631
:10203100300008120026C200E4F54C003002EA121A
:102041001C25121E70D378D3E6945E18E6940140E5
:012051003E50
:1020520078517C007D007BFF7A2879D87E007F0949
:1020620012175730C30E1222307D037C007F0312F9
:102072002236800C12247E7D1E7C007F0312248473
:0E208200C2B6C2A67A0079511227CBE4F54C03
:0C209000D378D5E6945E18E69401404237
:10209C0078517C007D007BFF7A2879E17E007F09F6
:1020AC0012175730C30E1222307D037C007F0312AF
:1020BC002236800C12247E7D1E7C007F0312248429
:1020CC00C2B6C2A67B007A0079517D091227CFE4F3
:0220DC00F54CC1
:1020DE001225A912271F787EE6FC08E6FDE41215EC
:1020EE00CD7B667A667946784012155B50031200F6
:1020FE00067880E6FC08E6FDE41215CD7B667A666E
:10210E007946784012155B400302202A120006021F
:02211E00202A75
:1012BD00021672E86480F8E933E83360110460F0D7
:1012CD00ED33EC337009E8FCE9FDEAFEEBFF220497
:1012DD0060DED3EB9FEA9EE99DE8C2E78CF0C2F792
:1012ED0095F0400CE8CCF8E9CDF9EACEFAEBCFFB5E
:1012FD0012163D85D0F05804700320D5B3E8047064
:10130D00075002B2D502167C92D5EC0460F7E4CCFE
:10131D00C0E0C398F8603B94186008400DD0E0FB26
:10132D00021654E4FBFAC9FC8028E830E406E4C94F
:10133D00FBE4CAFCE830E305E4C9CACBFCE854077A
:10134D006010F8C3E913F9EA13FAEB13FBEC13FC85
:10135D00D8F130F52FC3E49CFCEF9BFFEE9AFEED28
:10136D0099FDD0E0FBEF4E4D4C701222DB030216BF
:10137D0079EC2CFCEF33FFEE33FEED33FDED30E772
:10138D00EB021654EF2BFFEE3AFEED39FDD0E0FBEC
:10139D0050130BBB000302167CED13FDEE13FEEF95
:0813AD0013FFEC13FC021654BF
:1013B500EC4D6011E8497017ED33EC3304600DE432
:1013C500FCFFFEFD22E933E8330470F802167212C1
:1013D500163D58046009E4CC2481500628500902C2
:1013E500167C284003021679C0E0EB4A7044B980A8
:1013F50006D0E0FB021668EF4E701CBD8008EBFFBF
:10140500EAFEE9FD80EBE98DF0A4FEE5F002149E0D
:10141500E9CDF9EAFEEBFFEF89F0A4FCE5F0CE8912
:10142500F0A42EFFE435F0CD89F0A42DFEE435F0CF
:101435008067EF4E7005BD80D780C3EF8BF0A4ACFD
:10144500F0EE8BF0A42CFCE435F0F8EF8AF0A42C38
:10145500E5F038FCE433CB8DF0A42CFCE5F03BF84B
:10146500EE8AF0A42CFCE5F038F8E433CF89F0A43B
:101475002CFCE5F038CF3400CE89F0A42FFFE5F041
:101485003EFEE433C98DF0A42EFEE5F039CD8AF099
:10149500A42FFFE5F03EFEE43DFD33D0E0FB500711
:1014A5000BBB000F02167CEC2CFCEF33FFEE33FE7A
:0614B500ED33FD021654A8
:1014BB0002167CEC5D046005E85904700302167299
:1014CB0012163D580460F6EC4860F2EC7004FDFE19
:1014DB00FF22C860DB2481C85009C3986002500604
:1014EB000216799850CAF582E9294B4A7005AB82EE
:1014FB0002166875F0007C1A7880C3EF9BEE9AEDAC
:10150B0099400DC3EF9BFFEE9AFEED99FDE842F07B
:10151B00DC23ACF0D0E0FFD0E0FED0E0FDAB8220CE
:10152B00E7101BEB60BAEC2CFCEF33FFEE33FEED58
:10153B0033FD021654E803F830E705C0F075F000F0
:10154B00EF2FFFEE33FEED33FD40B830E7C280AA3C
:10155B0074F8CC6480CCC86480C8F582046043C343
:10156B00EB9FF5F0EA9E42F0E99D42F0E89C45F0D6
:10157B0060305018E5825FFFE582F42B5582FB50FB
:10158B00210ABA001D09B90019088016E5825BFB18
:10159B00E582F42F5582FF50090EBE00050DBD00EC
:1015AB00010CC3EB9FF5F0EA9E42F0E99D42F0E897
:0D15BB009C45F06007CC4820E701B3EC220E
:1015C80075F020800E75F010800575F0087D007E9E
:1015D800007F003392D530D503121811EC33401038
:1015E800EF33FFEE33FEED33FDEC33FCD5F0ED22A7
:0E15F800E5F0247EA2D513CC92E7CDCEFF22E3
:10160600EDD2E7CD33EC3392D524814006E4FFFEDC
:10161600FDFC22FCE4CFCECDCC24E0501174FF803B
:10162600EDC3CC13CCCD13CDCE13CECF13CF0470D8
:07163600F030D5DE021811AF
:10163D00E9D2E7C933E833F892D5EDD2E7CD33ECF3
:07164D0033FC5002B2D5226C
:10165400EC30E7100FBF000C0EBE00080DBD0004F7
:101664000BEB6014A2D5EB13FCED92E7FD2274FFA3
:10167400FCFDFEFF22E480F8A2D574FF13FC7D80FC
:03168400E480EF10
:0300000002251DB9
:0C251D00787FE4F6D8FD7581E9022564A2
:10168700E709F608DFFA8046E709F208DFFA803E45
:1016970088828C83E709F0A3DFFA8032E309F60832
:1016A700DFFA8078E309F208DFFA807088828C839A
:1016B700E309F0A3DFFA806489828A83E0A3F6084E
:1016C700DFFA805889828A83E0A3F208DFFA804C28
:1016D70080D280FA80C680D4806980F280338010FF
:1016E70080A680EA809A80A880DA80E280CA803368
:1016F70089828A83ECFAE493A3C8C582C8CCC583E0
:10170700CCF0A3C8C582C8CCC583CCDFE9DEE780AF
:101717000D89828A83E493A3F608DFF9ECFAA9F02E
:10172700EDFB2289828A83ECFAE0A3C8C582C8CC84
:10173700C583CCF0A3C8C582C8CCC583CCDFEADE9D
:10174700E880DB89828A83E493A3F208DFF980CCFF
:1017570088F0EF60010E4E60C388F0ED2402B404F8
:101767000050B9F582EB2402B4040050AF2323459F
:0617770082239016D773D7
:10177D00BB010CE58229F582E5833AF583E0225021
:10178D0006E92582F8E622BBFE06E92582F8E2226B
:0D179D00E58229F582E5833AF583E4932285
:1017AA00EF8DF0A4A8F0CF8CF0A428CE8DF0A42E53
:0217BA00FE220D
:1017BC00BC000BBE0029EF8DF084FFADF022E4CC11
:1017CC00F875F008EF2FFFEE33FEEC33FCEE9DECDA
:1017DC00984005FCEE9DFE0FD5F0E9E4CEFD22ED20
:1017EC00F8F5F0EE8420D21CFEADF075F008EF2F6A
:1017FC00FFED33FD4007985006D5F0F222C398FD5B
:05180C000FD5F0EA22F7
:10284100C2D5E830E70FB2D5E4C39BFBE49AFAE4C2
:1028510099F9E498F8EC30E717B2D51228771218F5
:1028610073E4C39BFBE49AFAE499F9E498F88003D2
:1028710012187330D50DE4C39FFFE49EFEE49DFD65
:04288100E49CFC22B5
:0E181100C3E49FFFE49EFEE49DFDE49CFC22E8
:0C181F00E6FC08E6FD08E6FE08E6FF22F5
:0C182B00ECF608EDF608EEF608EFF622E9
:10252900021FE1E493A3F8E493A34003F68001F2C8
:1025390008DFF48029E493A3F85407240CC8C333B3
:10254900C4540F4420C8834004F456800146F6DF82
:10255900E4800B0102040810204080900016E47EFC
:10256900019360BCA3FF543F30E509541FFEE49377
:10257900A360010ECF54C025E060A840B8E493A33E
:10258900FAE493A3F8E493A3C8C582C8CAC583CA69
:10259900F0A3C8C582C8CAC583CADFE9DEE780BE21
:0100210000DE
:1018370075F008758200EF2FFFEE33FECD33CDCC68
:1018470033CCC58233C5829BED9AEC99E5829840EB
:101857000CF582EE9BFEED9AFDEC99FC0FD5F0D6C8
:10186700E4CEFBE4CDFAE4CCF9A88222B800C1B9F2
:101877000059BA002DEC8BF084CFCECDFCE5F0CB30
:10188700F97818EF2FFFEE33FEED33FDEC33FCEB69
:1018970033FB10D703994004EB99FB0FD8E5E4F924
:1018A700FA227818EF2FFFEE33FEED33FDEC33FC11
:1018B700C933C910D7059BE99A4007EC9BFCE99A05
:1018C700F90FD8E0E4C9FAE4CCFB2275F010EF2F4A
:1018D700FFEE33FEED33FDCC33CCC833C810D7074A
:1018E7009BEC9AE899400AED9BFDEC9AFCE899F885
:0E18F7000FD5F0DAE4CDFBE4CCFAE4C8F92218
:00000001FF
