:10269F007365746661756C740D0A73657473756315
:1026AF006365640D0A416C61726D0D0A746D705F24
:0E26BF006572720D0A746D705F6572720D0A9D
:0B001600025903E8017100C100C101A4
:102576007C007D64121701EF2430F54DAE2CAF2D93
:102586007C007D0A1217017C007D0A121701ED24DA
:1025960030F54E754F2EAE2CAF2D7C007D0A1217EE
:1025A60001ED2430F55075510D75520A7A00794ABD
:0425B6007B007D0920
:0625BA008B3B8A3C893DC9
:1025C000E4FFAB3BAA3CA93D8F827583001216C283
:0D25D000F5993099FDC2990FEFC39D40E5CC
:0125DD0022DB
:10266800438780759850759C64438E04438E01435C
:102678008E10758921538E3F75B71475B824D2AC66
:10268800D2A9D288D2A8D28AD2AAD2AF758A3075F6
:072698008CF8C28DC28C22F8
:1021A500E4F5BDF5BEC200C201F571F56CD2027849
:1021B50072F608F608F608F608F608F67880F608C6
:1021C500F67884F608F6D2C0D2A2C2B7C2A0C2A1E0
:1021D5007DF97C047F02122428007DF97C047F02AE
:1021E500122428007DF97C047F01122428007DF942
:1021F5007C047F0112242830C315122415001224F3
:10220500227D197C00E4FF122428007D19802478A2
:1022150088760008761E08760008761E7D5C1224F6
:1022250024007D5C1224247D597C00E4FF122428BF
:10223500007D597C00E4FF12242875BB3075910799
:10224500E4F592D2A4D297D296D2B6D2B5D2A6D27E
:0C225500A5C28CC2A9C28EC2ABC2A822D6
:1026CD007D30E4FF12277E1228087D01E4FF1227DA
:1026DD007E1228087D06E4FF12277E1228087D0C45
:0526ED00E4FF02277E5E
:08262C008B2C8A2D892E8D2FC5
:10263400E4F531AD30FF12277EE4F531E531C39581
:102644002F5019AB2CAA2DA92E8531827583001227
:1026540016C2FD7F0112277E053180E07F027E00D5
:032664001227CF6B
:012667002250
:1027F7007D30E4FF12277E1228087D01E4FF0227BF
:012807007E52
:10279D007580FF00C2C1D2C500000000D2C4000088
:0927AD0000002087FD00C2C422D7
:10277E0012279DEF6006D2C1C2C58004C2C1C2C578
:0F278E008D8000000000D2C400000000C2C422F1
:10002600E54AB4491DE54BB44E18E54CB44913E511
:100036004DB4540EE54EB449091221A512266802A4
:1000460011F9E54A644C60030200EFE54B64446035
:10005600030200EFE54C64316009E54C643260034D
:0C0066000200EFE54D643D60030200EF76
:10007200E54FB40D0DE54E24D0F52DE434FFF52CFB
:100082008046E550B40D0FE54E24D075F00AA4FF6A
:10009200AEF0E54F8020E551B40D2BE54F24D0752D
:1000A200F00AA4FDACF0E54E24D075F064A42DFF57
:1000B200E5F03CFEE55024D0FDE434FFCD2FF52DD4
:1000C200ED3EF52C80028020E54CB43105752E03FF
:1000D2008008E54CB43211E4F52EAD2DAC2CAF2ED8
:0C00E20012226712275C800312273A00EC
:1000EE0022E54A64496003020190E54B644E6003C9
:1000FE00020190E54C64496003020190E54D6443B2
:0B010E006003020190E54E643D707735
:10011900E551B40D0DE55024D0F52DE434FFF52C4F
:100129008046E552B40D0FE55024D075F00AA4FFBE
:10013900AEF0E5518020E553B40D2BE55124D0757F
:10014900F00AA4FDACF0E55024D075F064A42DFFAD
:10015900E5F03CFEE55224D0FDE434FFCD2FF52D2A
:10016900ED3EF52C8002801AE54FB45308852C6DBD
:10017900852D6E8010E54FB44108852C6F852D7053
:06018900800312273A007A
:10018F0022E54A64497045E54B644E703FE54C6487
:0F019F00497039E54D64457033E54E643D702D70
:1001AE00E550B40D23E54F24D0F52DE434FFF52CA6
:1001BE00C394004016D3E52D9403E52C9400500B08
:0C01CE00852C5B852D5C800312273A0015
:1001DA0022E54A64506003020279E54B6431600902
:1001EA00E54B64326003020279E54C643D60030228
:0201FA00027988
:1001FC00E54EB40D0DE54D24D0F52DE434FFF52C72
:10020C008046E54FB40D0FE54D24D075F00AA4FFE0
:10021C00AEF0E54E8020E550B40D2BE54E24D075A4
:10022C00F00AA4FDACF0E54D24D075F064A42DFFCC
:10023C00E5F03CFEE54F24D0FDE434FFCD2FF52D49
:10024C00ED3EF52C80028020E54CB4310575F903A8
:10025C008008E54CB43211E4F5F9AD2DAC2CAF2E81
:0C026C001220C712275C800312273A0002
:1002780022E54A645460030203A5E54B6431600932
:10028800E54B643260030203A5E54C643D6003025C
:0202980003A5BC
:10029A00F52CF52DF52EF52FE54F640D704AE54D39
:1002AA0024D075F00AA4FFAEF0E54E24D0FDE43464
:1002BA00FFCD2FF52DED3EF52CFEAF2D7C027DB343
:1002CA001216EFEF2437FFEE34D8FE7C077DD012EA
:1002DA001701AA06AB07AE2CAF2D7C007D7612164D
:1002EA00EFEF2BFFEE3A8070E551640D60030203D5
:1002FA00A0E54D24D075F00AA4FFAEF0E54E24D057
:10030A00FDE434FFCD2FF52DED3EF52CFEAF2D7C0F
:10031A00027DB31216EFAA06AB07E55075F045A4A5
:10032A002BFFEA35F0CF2447CF34CBFE7C077DD0B4
:10033A00121701AA06AB07AE2CAF2D7C007D7612F0
:10034A0016EFEF2BFFEE3AFEE55024D075F03BA4F2
:10035A0075F005842FFFEC3ECF2470F52FEF34F9AA
:10036A00F52EE54BB43112AD2FAC2E7F02122428A4
:10037A0000AD2FAC2E7F028015E54BB43218AD2F9D
:10038A00AC2E7F0112242800AD2FAC2E7F0112243F
:0A039A002812275C800312273A00A6
:1003A40022E54A64506003020457E54B6455600338
:1003B400020457E54C64526003020457E54D64415E
:0E03C4006003020457E54E643D6003020457D7
:1003D200E550B40D0DE54F24D0F52DE434FFF52C96
:1003E200806BE551B40D0FE55024D075F00AA4FFDF
:1003F200AEF0E54F8042E552B40D1DE55024D075B4
:10040200F00AA4FDACF0E54F24D075F064A42DFFF2
:10041200E5F03CFEE5518020E552B40D2BE5502479
:10042200D075F00AA4FDACF0E54F24D075F064A4B9
:100432002DFFE5F03CFEE55124D0FDE434FFCD2F45
:10044200F52DED3EF52C800512273A80061227B6CF
:0404520012275C0011
:1004560022E54A64506003020509E54B64556003D2
:10046600020509E54C64576003020509E54D644938
:0E0476006003020509E54E643D6003020509BE
:10048400E550B40D0DE54F24D0F52DE434FFF52CE3
:10049400806BE551B40D0FE55024D075F00AA4FF2C
:1004A400AEF0E54F8042E552B40D1DE55024D07501
:1004B400F00AA4FDACF0E54F24D075F064A42DFF40
:1004C400E5F03CFEE5518020E552B40D2BE55024C7
:1004D400D075F00AA4FDACF0E54F24D075F064A407
:1004E4002DFFE5F03CFEE55124D0FDE434FFCD2F93
:1004F400F52DED3EF52C800512273A80061227B61D
:0405040012275C005E
:1005080022E54A64447059E54B64457053E54C64F0
:0F0518004C704DE54D64597047E54E643D7041A0
:10052700E550B40D0DE54F24D0F52DE434FFF52C3F
:100537008027E551B40D1DE55024D075F00AA4FFBE
:10054700AEF0E54F24D0FDE434FFCD2FF52DED3E81
:10055700F52C800512273A80061227B612275C0071
:1005670022E54A64537042E54B6448703CE54C64AD
:10057700447036E54D644E7030E54E643D702AE5B3
:100587004FB4530EE551B40D09E55024D01392B67C
:100597008011E54FB4410FE551B40D0AE55024D061
:1005A7001392A612275C0211FEE54A6444705FE5C8
:1005B7004B644C7059E54C64497053E54D644D707C
:1005C7004DE54E643D7047E551640D703CE54FB411
:1005D7005309E55024D01392B58010E54FB4410973
:1005E700E55024D01392A58002801E20B5087D32E5
:1005F7007C007F03800920A50E7D327C00E4FF127A
:10060700226712275C8005800012273A0022E54AFC
:1006170064536003020A4EE54B64546003020A4EBA
:10062700E54C64416003020A4EE54D6454600302E1
:0B0637000A4EE54E643F6003020A4ECD
:10064200754A0DFB7A00794A7D011225BA754A4C2A
:10065200754B44754C31754D3DC37875E6940A1857
:10066200E69400501708E62430F54E754F0D75508C
:100672000A7B007A00794A7D07020716C37875E67D
:10068200946418E694005034E6FA08E6FB7C007D98
:100692000AFFAE02121701EF2430F54E7C007D0AEC
:1006A200AF03AE02121701ED2430F54F75500D75F0
:1006B200510A7B007A00794A7D088058C37875E632
:1006C20094E818E694035051E6FA08E6FB7C007DB4
:1006D20064FFAE02121701EF2430F54E7C007D0A52
:1006E200AF03AE021217017C007D0A121701ED243E
:1006F20030F54F7874E6FE08E6FF7C007D0A12179B
:1007020001ED2430F55075510D75520A7B007A00C7
:10071200794A7D091225BA800312273A754A4C7527
:100722004B44754C32754D3DC37877E6940A18E612
:100732009400501708E62430F54E754F0D75500A97
:100742007B007A00794A7D070207E5C37877E69451
:100752006418E694005034E6FA08E6FB7C007D0A51
:10076200FFAE02121701EF2430F54E7C007D0AAF76
:1007720003AE02121701ED2430F54F75500D75517D
:100782000A7B007A00794A7D088058C37877E6941C
:10079200E818E694035051E6FA08E6FB7C007D6413
:1007A200FFAE02121701EF2430F54E7C007D0AAF36
:1007B20003AE021217017C007D0A121701ED2430EC
:1007C200F54F7876E6FE08E6FF7C007D0A121701F7
:1007D200ED2430F55075510D75520A7B007A00797F
:1007E2004A7D091225BA800312273A754A0D7B0009
:1007F2007A00794A7D011225BA754A50754B3175D6
:100802004C3DC37881E6940A18E69400501708E636
:100812002430F54D754E0D754F0A7B007A00794AEA
:100822007D060208BFC37881E6946418E6940050FE
:1008320034E6FA08E6FB7C007D0AFFAE02121701DD
:10084200EF2430F54D7C007D0AAF03AE0212170192
:10085200ED2430F54E754F0D75500A7B007A007904
:100862004A7D078058C37881E694E818E6940350DD
:1008720051E6FA08E6FB7C007D64FFAE0212170126
:10088200EF2430F54D7C007D0AAF03AE0212170152
:100892007C007D0A121701ED2430F54E7880E6FEC9
:1008A20008E6FF7C007D0A121701ED2430F54F7532
:1008B200500D75510A7B007A00794A7D081225BADB
:1008C200800312273A754A50754B32754C3DC378F6
:1008D20085E6940A18E69400501708E62430F54D90
:1008E200754E0D754F0A7B007A00794A7D06020922
:1008F2008BC37885E6946418E694005034E6FA08CF
:10090200E6FB7C007D0AFFAE02121701EF2430F5F0
:100912004D7C007D0AAF03AE02121701ED2430F5C3
:100922004E754F0D75500A7B007A00794A7D07801B
:1009320058C37885E694E818E694035051E6FA081D
:10094200E6FB7C007D64FFAE02121701EF2430F556
:100952004D7C007D0AAF03AE021217017C007D0AB6
:10096200121701ED2430F54E7884E6FE08E6FF7C8E
:10097200007D0A121701ED2430F54F75500D7551A7
:100982000A7B007A00794A7D081225BA8003122771
:100992003A754A0D7B007A00794A7D011225BA78B0
:1009A2009812176412154B8E2C8F2D754A54754B65
:1009B20031754C3DC3E52D94E8E52C9403500512A6
:1009C200257680031225DE789C12176412154B8E51
:1009D2002C8F2D754A54754B32754C3DC3E52D94C1
:1009E200E8E52C9403500512257680031225DE7566
:1009F2004A0D7B007A00794A7D011225BA30A30E96
:100A0200754A54754B31754C4F754D4B800C754A78
:100A120054754B31754C4E754D4F754E0D754F0AD1
:100A22007B007A00794A7D061225BA30A70F754AF3
:100A320054754B32754C4F754D4B020C5D754A54D3
:090A4200754B32754C4E754D4F99
:100A4B00020C5DE54A644C6003020B7AE54B64448F
:100A5B006003020B7AE54C64316009E54C6432604B
:100A6B0003020B7AE54D643F6003020B7AE54C649D
:100A7B00317067754A4C754B44754C31754D3DC3A0
:100A8B007875E6940A18E694005002806EC3787568
:100A9B00E6946418E6940050028071C37875E6946E
:100AAB00E818E694035030E6FA08E6FB7C007D6418
:100ABB00FFAE02121701EF2430F54E7C007D0AAF1A
:100ACB0003AE021217017C007D0A121701ED2430D0
:100ADB00F54F7874020B6F0211FEE54C6432600324
:100AEB00021201754A4C754B44754C32754D3DC322
:100AFB007877E6940A18E69400500508E6020C9AFB
:100B0B00C37877E6946418E69400501FE6FA08E67B
:100B1B00FB7C007D0AFFAE02121701EF2430F54E6D
:100B2B007C007D0AAF03AE02020CF1C37877E6942A
:100B3B00E818E694035035E6FA08E6FB7C007D6482
:100B4B00FFAE02121701EF2430F54E7C007D0AAF89
:100B5B0003AE021217017C007D0A121701ED24303F
:100B6B00F54F7876E6FE08E6FF020D810211FEE5F1
:100B7B004A64506003020D0DE54B64316009E54B8F
:100B8B0064326003020D0DE54C643F6003020D0DF2
:100B9B00E54B64316003020C39754A50754B317566
:100BAB004C3DC37881E6940A18E69400500908E698
:100BBB002430F54D020C5DC37881E6946418E694FD
:100BCB00005023E6FA08E6FB7C007D0AFFAE02121A
:100BDB001701EF2430F54D7C007D0AAF03AE0212F6
:100BEB001701ED020C9AC37881E694E818E694039A
:100BFB005039E6FA08E6FB7C007D64FFAE02121763
:100C0B0001EF2430F54D7C007D0AAF03AE021217C5
:100C1B00017C007D0A121701ED2430F54E7880E639
:100C2B00FE08E6FF7C007D0A020CF10211FEE54B8B
:100C3B0064326003021201754A50754B32754C3D9C
:100C4B00C37885E6940A18E69400501708E624301A
:100C5B00F54D754E0D754F0A7B007A00794A7D066E
:100C6B000211CEC37885E6946418E694005035E6FD
:100C7B00FA08E6FB7C007D0AFFAE02121701EF2497
:100C8B0030F54D7C007D0AAF03AE02121701ED2447
:100C9B0030F54E754F0D75500A7B007A00794A7D01
:100CAB00070211CEC37885E694E818E69403504FFB
:100CBB00E6FA08E6FB7C007D64FFAE02121701EF3B
:100CCB002430F54D7C007D0AAF03AE021217017C78
:100CDB00007D0A121701ED2430F54E7884E6FE08EC
:100CEB00E6FF7C007D0A121701ED2430F54F75509D
:100CFB000D75510A7B007A00794A7D080211CE02EC
:100D0B0011FEE54A64546003020E11E54B64316039
:100D1B0009E54B64326003020E11E54C643F60033E
:030D2B00020E11A4
:100D2E00E54B6431706A789812176412154B8E2C4D
:100D3E008F2D754A54754B31754C3DC3E52D94E896
:100D4E00E52C94034003020E0E7C007D6412170105
:100D5E00EF2430F54DAE2CAF2D7C007D0A1217011D
:100D6E007C007D0A121701ED2430F54E754F2EAE24
:100D7E002CAF2D7C007D0A121701ED2430F5507535
:100D8E00510D75520A7B007A00794A7D090211CE07
:100D9E00E54B64326003021201789C12176412153F
:100DAE004B8E2C8F2D754A54754B32754C3DC3E5C9
:100DBE002D94E8E52C940350477C007D64121701B6
:100DCE00EF2430F54DAE2CAF2D7C007D0A121701AD
:100DDE007C007D0A121701ED2430F54E754F2EAEB4
:100DEE002CAF2D7C007D0A121701ED2430F55075C5
:100DFE00510D75520A7B007A00794A7D090211CE97
:030E0E000225DEDC
:100E1100E54A64506003020F30E54B64446003020D
:100E21000F30E54C64496003020F30E54D644360C7
:100E310003020F30E54E643F6003020F30787CE619
:100E4100FA08E6FB7C0F7DFFFFAE021217018F50FF
:100E51007C0F7DFFAF03AE021217017E007F0A12E5
:100E610016EFAA06AB077C0F7DFF1217018F527C8C
:100E71000F7DFFAF03AE021217017E007F0A12162B
:100E8100EF7C0F7DFF1217018F53754E53754F3D48
:100E910074302550F55075512E74302552F5527429
:100EA100302553F55375540D75550A7B007A007939
:100EB1004A7D0C1225BA787EE6FA08E6FB7C0F7DA6
:100EC100FFFFAE021217018F507C0F7DFFAF03AE03
:100ED100021217017E007F0A1216EFAA06AB077CE9
:100EE1000F7DFF1217018F527C0F7DFFAF03AE0202
:100EF1001217017E007F0A1216EF7C0F7DFF121779
:100F0100018F53754E41754F3D74302550F5507525
:100F1100512E74302552F55274302553F5537554C2
:100F21000D75550A7B007A00794A7D0C0211CEE5D8
:100F31004A6456600302101DE54B644F60030210C2
:100F41001DE54C6454600302101DE54D64436003CC
:100F510002101DE54E643F600302101D7878E6FC27
:100F610008E6FDEC1313543FF550EC5403FEAF05B6
:100F71007C007D0A1216EFAC06EC1313543FF552B8
:100F8100EC5403FE7C001216EFEE1313543FF5539D
:100F9100754E53754F3D74302550F55075512E7473
:100FA100302552F55274302553F55375540D75554E
:100FB1000A7B007A00794A7D0C1225BA787AE6FC20
:100FC10008E6FDEC1313543FF550EC5403FEAF0556
:100FD1007C007D0A1216EFAC06EC1313543FF55258
:100FE100EC5403FE7C001216EFEE1313543FF5533D
:100FF100754E41754F3D74302550F55075512E7425
:10100100302552F55274302553F55375540D7555ED
:101011000A7B007A00794A7D0C0211CEE54A6454BC
:10102100707BE54B64507075E54C6447706FE54D1E
:1010310064447069E54E643F706330A315754E5387
:10104100754F2075504F75514B75520D75530AFBF5
:101051008014754E53754F2075504E75514F755212
:101061000D75530A7B007A00794A7D0A1225BA3040
:10107100A70E754E41754F2075504F75514B800C21
:10108100754E41754F2075504E75514F75520D7506
:10109100530A7B007A00794A7D0A0211CEE54A643F
:1010A10055600302116CE54B6454600302116CE559
:1010B1004C6445600302116CE54D64436003021109
:1010C1006CE54E643F600302116C30B624754A54DE
:1010D100754B45754C43754D31754E20754F4F75A8
:1010E100504E75510D75520AFB7A00794A7D09807F
:1010F10026754A54754B45754C43754D31754E20D7
:10110100754F4F75504675514675520D75530A7B93
:10111100007A00794A7D0A1225BA30A626754A540A
:10112100754B45754C43754D32754E20754F4F7556
:10113100504E75510D75520A7B007A00794A7D092E
:101141000211CE754A54754B45754C43754D327538
:101151004E20754F4F75504675514675520D75535A
:101161000A7B007A00794A7D0A8062E54A6443700D
:101171005FE54B644D7059E54C644F7053E54D6428
:1011810044704DE54E643F704730C31E754A4D753E
:101191004B4F754C44754D3D754E41754F507550D3
:1011A1004375510D75520AFB801D754A4D754B4FA4
:1011B100754C44754D3D754E41754F4375504375A2
:1011C100510D75520A7B007A00794A7D090225BAD0
:1011D100E54A64537027E54B644D7021E54C644F3B
:1011E100701BE54DB44416E54EB43D11E550B40D08
:1011F1000AE54F24D013920202275C800012273A9D
:0112010022CA
:101A9C00753510E478D0F608F608F608F6E4FF126F
:101AAC001FBD7872EEF608EFF678D0E6FC08E62F4C
:101ABC00F6EE3C18F67F03121FBD7872EEF608EFB7
:101ACC00F678D2E6FC08E62FF6EE3C18F6D535CDC6
:101ADC0079D0E7C4F854F0C868F709E7C4540F4844
:101AEC00F709E7C4F854F0C868F709E7C4540F487D
:101AFC00F778D0E6FE08E6FF7C007D0F1216EF7C2F
:101B0C00037D00121701AA06AB0778D0E6FE08E6A3
:101B1C00FF7C007D051216EF0D121701C3EF9BFF22
:101B2C00EE9AC313FEEF13FF7874EEF608EFF67817
:101B3C0082A60608F6C3940AEE940050137875E654
:101B4C00243078A0F608766D087641087620803827
:101B5C00C37875E6946418E694005031E6FA08E60A
:101B6C00FB7C007D0AFFAE02121701EF243078A037
:101B7C00F67C007D0AAF03AE02121701ED2430781B
:101B8C00A1F608766D0876410876208059C37875E1
:101B9C00E694E818E69403504DE6FA08E6FB7C0060
:101BAC007D64FFAE02121701EF243078A0F67C00A2
:101BBC007D64AF03AE021217017E007F0ACFCDCF3A
:101BCC00CECCCE121701EF243078A1F67874E6FE55
:101BDC0008E6FF7C007D0A121701ED243078A2F68E
:101BEC0008766D08764178D2E6FE08E6FF7C007D2B
:101BFC000F1216EF7C037D00121701AA06AB0778B3
:101C0C00D2E6FE08E6FF7C007D051216EF0D1217DA
:101C1C0001C3EF9BFFEE9AC313FEEF13FF7876EE32
:101C2C00F608EFF67886A60608F6C3940AEE94003A
:101C3C0050137877E6243078A6F608766D0876414E
:101C4C000876208038C37877E6946418E6940050C0
:101C5C0030E6FA08E6FB7C007D0AFFAE02121701A3
:101C6C00EF243078A6F67C007D0AAF03AE02121783
:101C7C0001ED243078A7F608766D087641087620B9
:101C8C0022C37877E694E818E69403504DE6FA08F8
:101C9C00E6FB7C007D64FFAE02121701EF24307866
:101CAC00A6F67C007D64AF03AE021217017E007FA6
:101CBC000ACFCDCFCECCCE121701EF243078A7F6B9
:101CCC007876E6FE08E6FF7C007D0A121701ED240B
:0A1CDC003078A8F608766D0876410E
:011CE60022DB
:10177C00753D0AE478E0F608F608F608F67F0112E3
:10178C001FBD7872EEF608EFF678E0121FB1787292
:10179C00EEF608EFF678E2E6FC08E62FF6EE3C18DB
:1017AC00F6D53DD978E0E6FE08E6FF7C007D0A120E
:1017BC00170178E0A60608A60708E6FE08E6FF7CF7
:1017CC00007D0A12170178E2A60608A60778E0E663
:1017DC00FE08E6FF7872EEF6FE08EFF6FFFDAC06AB
:1017EC00E41215128F418E408D3F8C3EE4FBFA794A
:1017FC002078401212FA8F418E408D3F8C3EE4FBD4
:10180C00FA798078451214037B9D7A1179A5783C7E
:10181C001212098F418E408D3F8C3EA804A905AA57
:10182C0006AB071212FA7BC57AA079EA784212123B
:10183C00FAC004C005C006C0077F817EC57D897CC7
:10184C0043AB41AA40A93FA83E1212FAD003D002E2
:10185C00D001D0001212097B047A56794E78BF124F
:10186C0012098F458E448D438C4212154B7880EEB5
:10187C00F608EFF678ACA60608F6C3940AEE9400C8
:10188C0050137881E6243078C0F608766D087677A8
:10189C000876208038C37881E6946418E69400506A
:1018AC0031E6FA08E6FB7C007D0AFFAE0212170156
:1018BC00EF243078C0F67C007D0AAF03AE0212171D
:1018CC0001ED243078C1F608766D0876770876201D
:1018DC008059C37881E694E818E694035050E6FAF0
:1018EC0008E6FB7C007D64FFAE02121701EF24308A
:1018FC0078C0F67C007D64AF03AE021217017E0047
:10190C007F0ACFCDCFCECCCE121701EF243078C1C9
:10191C00F67880E6FE08E6FF7C007D0A121701EDE2
:10192C00243078C2F608766D08767708762078E24F
:10193C00E6FE08E6FF7872EEF6FE08EFF6FFFDAC69
:10194C0006E41215128F418E408D3F8C3EE4FBFA5B
:10195C00792078401212FA8F418E408D3F8C3EE4F4
:10196C00FBFA798078451214037B9D7A1179A5785E
:10197C003C1212098F418E408D3F8C3EA804A90564
:10198C00AA06AB071212FA7BC57AA079EA78421242
:10199C0012FAC004C005C006C0077F817EC57D89D0
:1019AC007C43AB41AA40A93FA83E1212FAD003D007
:1019BC0002D001D0001212097B047A56794E78BFFE
:1019CC001212098F458E448D438C4212154B78842C
:1019DC00EEF608EFF678AEA60608F6C3940AEE9477
:1019EC000050137885E6243078C6F608766D0876B4
:1019FC00770876208038C37885E6946418E69400DE
:101A0C005031E6FA08E6FB7C007D0AFFAE021217A5
:101A1C0001EF243078C6F67C007D0AAF03AE0212CB
:101A2C001701ED243078C7F608766D0876770876BE
:101A3C00208059C37885E694E818E694035050E664
:101A4C00FA08E6FB7C007D64FFAE02121701EF245E
:101A5C003078C6F67C007D64AF03AE021217017EAF
:101A6C00007F0ACFCDCFCECCCE121701EF24307829
:101A7C00C7F67884E6FE08E6FF7C007D0A121701A3
:0F1A8C00ED243078C8F608766D08767708762056
:011A9B002228
:101CE700E4F52CF52DF52EF52F75301078DCF60878
:101CF700F608F608F67F02121FBD7872EEF608EFB7
:101D0700F678DCE6FC08E62FF6EE3C18F67F0512BF
:101D17001FBD7872EEF608EFF678DEE6FC08E62FD0
:101D2700F6EE3C18F6D530CD79DCE7C4F854F0C8A8
:101D370068F709E7C4540F48F709E7C4F854F0C82F
:101D470068FE09E7C4540F48FF78DEEEF608EFF6A1
:101D570078DCE6FC08E6FD78CCA60408A60508A60C
:101D67000608A60778CCE6FC08E6FDE41215127B08
:101D7700327A6679BD78411214037B667A66790EEA
:101D87007843121209789812177078CEE6FC08E6A5
:101D9700FDE41215127B327A6679BD78411214037D
:101DA7007B667A66790E7843121209789C1217704F
:101DB700789812176412154B8E2C8F2D78CCA62C81
:101DC70008A62D789C12176412154B8E2E8F2F782C
:101DD700CEA62E08A62FAE2CAF2D7C007D64121741
:101DE70001EF2430788CF6AE2CAF2D7C007D0A12E3
:101DF70017017C007D0A121701ED2430788DF60853
:101E0700762EAE2CAF2D7C007D0A121701ED243003
:101E1700788FF6AE2EAF2F7C007D64121701EF246A
:101E2700307892F6AE2EAF2F7C007D0A1217017C18
:101E3700007D0A121701ED24307893F608762EAE4E
:101E47002EAF2F7C007D0A121701ED24307895F60E
:011E57002268
:10250A00752C14E478D8F608F608F608F67F011256
:10251A00249279B1E778D926F619E71836F67F02B8
:10252A0012249279B1E778DB26F619E71836F6D540
:10253A002CDB78D8E6FE08E6FF7C007D1412170132
:10254A00AA06AB077878EAF608EBF67C007D051256
:10255A0016EF7878A60608A60708EAF6FE08EBF64C
:0B256A00FF1216EF787AA60608A607FD
:012575002243
:10238C00752C0AE478D4F608F608F608F67F0112E4
:10239C001FBD7872EEF608EFF678D4121FB1787282
:1023AC00EEF608EFF678D6E6FC08E62FF6EE3C18CB
:1023BC00F6D52CD978D4E6FE08E6FF7C007D0A120F
:1023CC001701787CEEF6FA08EFF6FB78D6E6FE08F5
:1023DC00E6FF7C007D0A121701787EA60608A60788
:1023EC007C007D05AF03AE021216EFEEC313797CB1
:1023FC00F7EF1309F7787EE6FE08E6FF1216EFEE0C
:08240C00C31309F7EF1309F7F0
:0124140022A5
:0620C1007D037C00E4FF3A
:0620C7008F308C318D32D8
:1020CD00C3E5329403E53194005006753100753245
:1020DD0003D3E5329458E53194024006753102750B
:1020ED003258AC31AD32E41215128F368E358D3437
:1020FD008C33A804A905AA06AB071212FAE4FBFA61
:10210D00797A78441214037BA47A70795D78401241
:10211D0012FA8F3A8E398D388C377FB57E377DD058
:10212D007C40AB36AA35A934A8331212FA7B487A13
:10213D00E179EC7841121209AB3AAA39A938A837DE
:10214D001212058F3A8E398D388C3712154B8E3B06
:10215D008F3CE530B4031A30B613AD3CAC3B7F0376
:10216D0012242800AD3CAC3B7F0312242878B280AA
:10217D001BE530701E30A612AD3CAC3BFF1224287F
:10218D0000AD3CAC3BE4FF12242878B4A63108A680
:07219D003280010012177CE3
:0121A4002218
:062261007D1E7C00E4FF7D
:062267008F308C318D3236
:10226D00C3E532941EE53194005006753100753288
:10227D001ED3E5329484E531940340067531037520
:10228D003284AE31AF327C007D091216EF7D7D12A6
:10229D001701AA06AB07AE31AF327C007D031216D3
:1022AD00EFEF2BF534EE3AF533E530B4032030B6CD
:1022BD001AAD34AC337F0312242800AD34AC337F18
:1022CD00031224287888A63108A632008021E53033
:1022DD00701D30A619AD34AC33FF12242800AD3477
:1022ED00AC33E4FF122428788AA63108A6320012F6
:0222FD001A9C29
:0122FF0022BC
:0C1FB100E6FC08E62FF6EE3C18F67F0474
:101FBD00E4F546F547F9F548F549EFB40800503D0D
:101FCD00901FD4F8282873021FEC021FF0021FF493
:101FDD00021FF8021FFC022000022004022008E468
:101FED00FD801A7D0880167D1080127D18800E7D73
:101FFD0020800A7D2880067D3080027D38C2A400B5
:10200D00D297E4FB74807E00A803088006CEA2E779
:10201D0013CE13D8F8FFEDF582EF558224FF92957C
:10202D00C29700D297000BBB08DAD2A400C2A4005D
:10203D00E4FB74807E00A803088006CEA2E713CED1
:10204D0013D8F8FFEDF582EF558224FF9295C297D4
:10205D0000D29700A296E433F546C374079BFFE5C3
:10206D0046A807088002C333D8FCF54642010BBBD6
:10207D0008C08946E4F9FBC29700D297A296E433D3
:10208D00F547C374079BFFE547A807088002C333D4
:10209D00D8FCF5474201000BBB08DC8947E546FE3D
:1020AD00E5477A002400FFEA3E540FF5488F49D2E8
:0320BD00A400FE7E
:0120C00022FD
:0C27B6007B017A007D017C007F017E0029
:0D27C2008E308F318C328D338A348B35226E
:1024150078B276000876030876000876037D197C85
:03242500007F0332
:042428008C3D8D3E1C
:10242C00E4FBFAEF14601514601D1460252403708E
:10243C002AE4253EFBE53D3410FA801FE4253EFBE3
:10244C00E53D3450FA8014E4253EFBE53D3490FA2A
:10245C008009E4253EFBE53D34D0FAD2A200C2C08F
:10246C00D2B700C2B7E4FDEA3392A1D2A0EB25E0CB
:10247C00FBEA33FA00C2A00DBD10ECC2A200D2C020
:05248C00E4F53DF53E02
:012491002228
:10249200EF14601314601514601724FC60182407ED
:1024A2007017759D018012759D02800D759D0480C7
:1024B20008759D088003759D8053A2FBE4F5BDF568
:1024C200BE53070775BC4000EF42BC0043BC807F8F
:1024D2000A7E0012280C43BC087F0A7E0012280CD8
:1024E200E4FFEF7007E5BC5410FF80F653BCE7E44D
:1024F200F59DAFBDEF75F004A4AEF0ADBE7C002D2E
:0725020078B1F6EC3E18F67B
:0125090022AF
:020006000022D6
:1027CF00E4FDFCED1D70011CED4C70F7EF1F700167
:0527DF001EEF4E70EE3C
:0127E40022D2
:042808007F507EC3BC
:0A280C00EF1F70011EEF4E70F7225F
:030003000227E5EC
:1027E50020B50512000680010020A504120006325E
:0227F5000032B0
:03001300020008E0
:020008000032C4
:030023000227179A
:10271700C0E0C0D075D018309814C298E599B40AB3
:1027270004D2008009744A2571F8A6990571D0D0A2
:03273700D0E032BD
:03000B000226F2D8
:1026F200C0E0C0D075D008758A30758CF8E55A15DF
:102702005AAE59700215594E7006755903755AE83A
:05271200D0D0D0E03240
:10273A0078307C007D007BFF7A26799F7E007F0AB5
:10274A0012169C7B007A0079307D0A1225BAE4F5CC
:01275A00710D
:01275B00225B
:10275C0078307C007D007BFF7A2679A97E007F0B88
:10276C0012169C7B007A0079307D0B1225BAE4F5A9
:01277C0071EB
:01277D002239
:1025DE0075300678317C007D007BFF7A2679B47EDB
:1025EE00007F0712169C7B007A0079317D07122539
:1025FE00BA7F327E001227CFD530F67B007A007973
:10260E00317D051225BA7530067F327E001227CF36
:0E261E00D530F67B007A0079317D050225BAB1
:101E580075210AE4F5221221A512266830C315124D
:101E68002415007D191224287D19E4FF1224280066
:101E78007D1980227888760008761E087600087614
:101E88001E7D58122424007D581224287D58E4FF12
:101E9800122428007D581224287F017E001227CFA3
:101EA800300008120026C200E4F571003002EA1280
:101EB8001A9C121CE7D378CDE6941818E6940140D2
:011EC8004BCE
:101EC90078237C007D007BFF7A2679BB7E007F0921
:101ED90012169C30C30E1220C17D037C007F0312B1
:101EE90020C7800C1222617D1E7C007F03122267AD
:101EF900C2B6C2A67A0079231225B6E4F571FB7A37
:0B1F09000079237530867D0712262C1E
:0C1F1400D378CFE6941818E69401404FF3
:101F200078237C007D007BFF7A2679C47E007F09C0
:101F300012169C30C30E1220C17D037C007F031259
:101F400020C7800C1222617D1E7C007F0312226755
:101F5000C2B6C2A67B007A0079237D091225BAE4B5
:0F1F6000F571FB7A0079237530967D0712262CD8
:101F6F0012238C12250A7878E6FC08E6FDE4121598
:101F7F00127B667A66794678401214A050031200DD
:101F8F0006787AE6FC08E6FDE41215127B667A669F
:101F9F00794678401214A04003021EA112000602D7
:021FAF001EA171
:101202000215B7E86480F8E933E83360110460F04E
:10121200ED33EC337009E8FCE9FDEAFEEBFF220452
:1012220060DED3EB9FEA9EE99DE8C2E78CF0C2F74D
:1012320095F0400CE8CCF8E9CDF9EACEFAEBCFFB19
:1012420012158285D0F05804700320D5B3E80470DB
:10125200075002B2D50215C192D5EC0460F7E4CC76
:10126200C0E0C398F8603B94186008400DD0E0FBE2
:10127200021599E4FBFAC9FC8028E830E406E4C9C7
:10128200FBE4CAFCE830E305E4C9CACBFCE8540736
:101292006010F8C3E913F9EA13FAEB13FBEC13FC41
:1012A200D8F130F52FC3E49CFCEF9BFFEE9AFEEDE4
:1012B20099FDD0E0FBEF4E4D4C701222DB0302157C
:1012C200BEEC2CFCEF33FFEE33FEED33FDED30E7E9
:1012D200EB021599EF2BFFEE3AFEED39FDD0E0FB64
:1012E20050130BBB00030215C1ED13FDEE13FEEF0D
:0812F20013FFEC13FC02159937
:1012FA00EC4D6011E8497017ED33EC3304600DE4EE
:10130A00FCFFFEFD22E933E8330470F80215B71238
:10131A00158258046009E4CC248150062850090239
:10132A0015C12840030215BEC0E0EB4A7044B980DB
:10133A0006D0E0FB0215ADEF4E701CBD8008EBFF36
:10134A00EAFEE9FD80EBE98DF0A4FEE5F00213E385
:10135A00E9CDF9EAFEEBFFEF89F0A4FCE5F0CE89CE
:10136A00F0A42EFFE435F0CD89F0A42DFEE435F08B
:10137A008067EF4E7005BD80D780C3EF8BF0A4ACB9
:10138A00F0EE8BF0A42CFCE435F0F8EF8AF0A42CF4
:10139A00E5F038FCE433CB8DF0A42CFCE5F03BF807
:1013AA00EE8AF0A42CFCE5F038F8E433CF89F0A4F7
:1013BA002CFCE5F038CF3400CE89F0A42FFFE5F0FD
:1013CA003EFEE433C98DF0A42EFEE5F039CD8AF055
:1013DA00A42FFFE5F03EFEE43DFD33D0E0FB5007CD
:1013EA000BBB000F0215C1EC2CFCEF33FFEE33FEF2
:0613FA00ED33FD02159920
:101400000215C1EC5D046005E8590470030215B7CC
:10141000121582580460F6EC4860F2EC7004FDFE90
:10142000FF22C860DB2481C85009C39860025006BF
:101430000215BE9850CAF582E9294B4A7005AB8265
:101440000215AD75F0007C1A7880C3EF9BEE9AED23
:1014500099400DC3EF9BFFEE9AFEED99FDE842F037
:10146000DC23ACF0D0E0FFD0E0FED0E0FDAB82208A
:10147000E7101BEB60BAEC2CFCEF33FFEE33FEED14
:1014800033FD021599E803F830E705C0F075F00068
:10149000EF2FFFEE33FEED33FD40B830E7C280AAF8
:1014A00074F8CC6480CCC86480C8F582046043C3FF
:1014B000EB9FF5F0EA9E42F0E99D42F0E89C45F092
:1014C00060305018E5825FFFE582F42B5582FB50B7
:1014D000210ABA001D09B90019088016E5825BFBD4
:1014E000E582F42F5582FF50090EBE00050DBD00A8
:1014F000010CC3EB9FF5F0EA9E42F0E99D42F0E853
:0D1500009C45F06007CC4820E701B3EC22C9
:10150D0075F020800E75F010800575F0087D007E59
:10151D00007F003392D530D503121756EC334010AF
:10152D00EF33FFEE33FEED33FDEC33FCD5F0ED2262
:0E153D00E5F0247EA2D513CC92E7CDCEFF229E
:10154B00EDD2E7CD33EC3392D524814006E4FFFE98
:10155B00FDFC22FCE4CFCECDCC24E0501174FF80F7
:10156B00EDC3CC13CCCD13CDCE13CECF13CF047094
:07157B00F030D5DE02175627
:10158200E9D2E7C933E833F892D5EDD2E7CD33ECAF
:0715920033FC5002B2D52228
:10159900EC30E7100FBF000C0EBE00080DBD0004B3
:1015A9000BEB6014A2D5EB13FCED92E7FD2274FF5F
:1015B900FCFDFEFF22E480F8A2D574FF13FC7D80B8
:0315C900E480EFCC
:03000000022300D8
:0C230000787FE4F6D8FD7581E3022347E6
:1015CC00E709F608DFFA8046E709F208DFFA803E01
:1015DC0088828C83E709F0A3DFFA8032E309F608EE
:1015EC00DFFA8078E309F208DFFA807088828C8356
:1015FC00E309F0A3DFFA806489828A83E0A3F6080A
:10160C00DFFA805889828A83E0A3F208DFFA804CE3
:10161C0080D280FA80C680D4806980F280338010BA
:10162C0080A680EA809A80A880DA80E280CA803323
:10163C0089828A83ECFAE493A3C8C582C8CCC5839B
:10164C00CCF0A3C8C582C8CCC583CCDFE9DEE7806B
:10165C000D89828A83E493A3F608DFF9ECFAA9F0EA
:10166C00EDFB2289828A83ECFAE0A3C8C582C8CC40
:10167C00C583CCF0A3C8C582C8CCC583CCDFEADE59
:10168C00E880DB89828A83E493A3F208DFF980CCBB
:10169C0088F0EF60010E4E60C388F0ED2402B404B4
:1016AC000050B9F582EB2402B4040050AF2323455B
:0616BC00822390161C734E
:1016C200BB010CE58229F582E5833AF583E02250DD
:1016D20006E92582F8E622BBFE06E92582F8E22227
:0D16E200E58229F582E5833AF583E4932241
:1016EF00EF8DF0A4A8F0CF8CF0A428CE8DF0A42E0F
:0216FF00FE22C9
:10170100BC000BBE0029EF8DF084FFADF022E4CCCC
:10171100F875F008EF2FFFEE33FEEC33FCEE9DEC95
:10172100984005FCEE9DFE0FD5F0E9E4CEFD22EDDB
:10173100F8F5F0EE8420D21CFEADF075F008EF2F25
:10174100FFED33FD4007985006D5F0F222C398FD16
:051751000FD5F0EA22B3
:0E175600C3E49FFFE49EFEE49DFDE49CFC22A4
:0C176400E6FC08E6FD08E6FE08E6FF22B1
:0C177000ECF608EDF608EEF608EFF622A5
:10230C00021E58E493A3F8E493A34003F68001F271
:10231C0008DFF48029E493A3F85407240CC8C333D2
:10232C00C4540F4420C8834004F456800146F6DFA1
:10233C00E4800B0102040810204080900016E47E1B
:10234C00019360BCA3FF543F30E509541FFEE49396
:10235C00A360010ECF54C025E060A840B8E493A35D
:10236C00FAE493A3F8E493A3C8C582C8CAC583CA88
:10237C00F0A3C8C582C8CAC583CADFE9DEE780BE40
:0100210000DE
:00000001FF
