:102261007365746661756C740D0A73657473756357
:102271006365640D0A416C61726D0D0A746D705F66
:0E2281006572720D0A746D705F6572720D0ADF
:0B001600025903E8017100C100C101A4
:1021A100754E53754F3D74302550F55075512E7451
:1021B100302552F55274302553F55375540D75552C
:0921C1000A7B007A00794A7D0CCA
:0621CA008B3B8A3C893DBD
:1021D000E4FFAB3BAA3CA93D8F8275830012129BA2
:0D21E000F5993099FDC2990FEFC39D40E5C0
:0121ED0022CF
:10222A00438780759850759C64438E04438E01439E
:10223A008E10758921538E3F75B71475B824D2ACA8
:10224A00D2A9D288D2A8D28AD2AAD2AF758A307538
:07225A008CF8C28DC28C223A
:101D8200E4F5BDF5BEC200C201F571F56CD2027870
:101D920072F608F608F608F608F608F67880F608ED
:101DA200F67884F608F6D2C0D2A2C2B7C2A0C2A107
:101DB2007DF97C047F02122005007DF97C047F02FC
:101DC200122005007DF97C047F01122005007DF9B7
:101DD2007C047F0112200530C315121FF200121F6E
:101DE200FF7D197C00E4FF122005007D1980247814
:101DF20088760008761E08760008761E7D5C122022
:101E020001007D5C1220017D597C00E4FF12200557
:101E1200007D597C00E4FF12200575BB30759107E7
:101E2200E4F592D2A4D297D296D2B6D2B5D2A6D2A5
:0C1E3200A5C28CC2A9C28EC2ABC2A822FD
:10228F007D30E4FF1223401223CA7D01E4FF1223A5
:10229F00401223CA7D06E4FF1223401223CA7D0C8D
:0522AF00E4FF022340E2
:0821EE008B2C8A2D892E8D2F08
:1021F600E4F531AD30FF122340E4F531E531C39506
:102206002F5019AB2CAA2DA92E8531827583001269
:10221600129BFD7F01122340053180E07F027E0084
:03222600122391EF
:012229002292
:1023B9007D30E4FF1223401223CA7D01E4FF02238A
:0123C90040D3
:10235F007580FF00C2C1D2C500000000D2C40000CA
:09236F0000002087FD00C2C42219
:1023400012235FEF6006D2C1C2C58004C2C1C2C5FC
:0F2350008D8000000000D2C400000000C2C42233
:10002600E54AB4491DE54BB44E18E54CB44913E511
:100036004DB4540EE54EB44909121D8212222A020D
:100046000DD2E54A645360030200F2E54B64446056
:10005600030200F2E54C644960030200F2E54D64D8
:0F0066004F60030200F2E54E643D60030200F2BA
:10007500E551B40D0DE55024D0F52DE434FFF52CF4
:100085008046E552B40D0FE55024D075F00AA4FF63
:10009500AEF0E5518020E553B40D2BE55124D07524
:1000A500F00AA4FDACF0E55024D075F064A42DFF52
:1000B500E5F03CFEE55224D0FDE434FFCD2FF52DCF
:1000C500ED3EF52C80028020E54FB45305752E03D7
:1000D5008008E54FB44111E4F52EAD2DAC2CAF2EC3
:0C00E500121E4412231E80031222FC0095
:1000F10022E54A64496003020193E54B644E6003C3
:10010100020193E54C64496003020193E54D6443A8
:0B0111006003020193E54E643D70772F
:10011C00E551B40D0DE55024D0F52DE434FFF52C4C
:10012C008046E552B40D0FE55024D075F00AA4FFBB
:10013C00AEF0E5518020E553B40D2BE55124D0757C
:10014C00F00AA4FDACF0E55024D075F064A42DFFAA
:10015C00E5F03CFEE55224D0FDE434FFCD2FF52D27
:10016C00ED3EF52C8002801AE54FB45308852C6DBA
:10017C00852D6E8010E54FB44108852C6F852D7050
:06018C0080031222FC00BA
:1001920022E54A64497045E54B644E703FE54C6484
:0F01A200497039E54D64457033E54E643D702D6D
:1001B100E550B40D23E54F24D0F52DE434FFF52CA3
:1001C100C394004016D3E52D9403E52C9400500B05
:0C01D100852C5B852D5C80031222FC0055
:1001DD0022E54A64536003020288E54B64506003D4
:1001ED00020288E54C644F6003020288E54D6457B6
:0E01FD006003020288E54E643D600302028842
:10020B00E550B40D0DE54F24D0F52DE434FFF52C5E
:10021B008046E551B40D0FE54F24D075F00AA4FFCD
:10022B00AEF0E5508020E552B40D2BE55024D0758F
:10023B00F00AA4FDACF0E54F24D075F064A42DFFBB
:10024B00E5F03CFEE55124D0FDE434FFCD2FF52D38
:10025B00ED3EF52C80028020E54FB4530575F90374
:10026B008008E54FB44111E4F5F9AD2DAC2CAF2E60
:0C027B00121CA412231E80031222FC009F
:1002870022E54A645360030203C0E54B64546003EC
:100297000203C0E54C644560030203C0E54D6450AA
:0E02A70060030203C0E54E643D60030203C025
:1002B500F52CF52DF52EF52FE552640D704AE55018
:1002C50024D075F00AA4FFAEF0E55124D0FDE43446
:1002D500FFCD2FF52DED3EF52CFEAF2D7C027DB328
:1002E5001212C8EF2437FFEE34D8FE7C077DD012FA
:1002F50012DAAA06AB07AE2CAF2D7C007D76121262
:10030500C8EF2BFFEE3A8070E554640D60030203DD
:10031500BBE55024D075F00AA4FFAEF0E55124D01A
:10032500FDE434FFCD2FF52DED3EF52CFEAF2D7CF4
:10033500027DB31212C8AA06AB07E55375F045A4B2
:100345002BFFEA35F0CF2447CF34CBFE7C077DD099
:100355001212DAAA06AB07AE2CAF2D7C007D761201
:1003650012C8EF2BFFEE3AFEE55324D075F03BA4FF
:1003750075F005842FFFEC3ECF2470F52FEF34F98F
:10038500F52EE54FB45312AD2FAC2E7F021220058A
:1003950000AD2FAC2E7F028015E54FB44118AD2F6F
:1003A500AC2E7F0112200500AD2FAC2E7F0112204F
:0A03B5000512231E80031222FC0033
:1003BF0022E54A64506003020472E54B6455600302
:1003CF00020472E54C64526003020472E54D64410D
:0E03DF006003020472E54E643D600302047286
:1003ED00E550B40D0DE54F24D0F52DE434FFF52C7B
:1003FD00806BE551B40D0FE55024D075F00AA4FFC4
:10040D00AEF0E54F8042E552B40D1DE55024D07598
:10041D00F00AA4FDACF0E54F24D075F064A42DFFD7
:10042D00E5F03CFEE5518020E552B40D2BE550245E
:10043D00D075F00AA4FDACF0E54F24D075F064A49E
:10044D002DFFE5F03CFEE55124D0FDE434FFCD2F2A
:10045D00F52DED3EF52C80051222FC800612237839
:04046D0012231E0038
:1004710022E54A64506003020524E54B645560039C
:10048100020524E54C64576003020524E54D6449E7
:0E0491006003020524E54E643D60030205246D
:10049F00E550B40D0DE54F24D0F52DE434FFF52CC8
:1004AF00806BE551B40D0FE55024D075F00AA4FF11
:1004BF00AEF0E54F8042E552B40D1DE55024D075E6
:1004CF00F00AA4FDACF0E54F24D075F064A42DFF25
:1004DF00E5F03CFEE5518020E552B40D2BE55024AC
:1004EF00D075F00AA4FDACF0E54F24D075F064A4EC
:1004FF002DFFE5F03CFEE55124D0FDE434FFCD2F78
:10050F00F52DED3EF52C80051222FC800612237886
:04051F0012231E0085
:1005230022E54A64447059E54B64457053E54C64D5
:0F0533004C704DE54D64597047E54E643D704185
:10054200E550B40D0DE54F24D0F52DE434FFF52C24
:100552008027E551B40D1DE55024D075F00AA4FFA3
:10056200AEF0E54F24D0FDE434FFCD2FF52DED3E66
:10057200F52C80051222FC800612237812231E001D
:1005820022E54A64537042E54B6448703CE54C6492
:10059200447036E54D644E7030E54E643D702AE598
:1005A2004FB4530EE551B40D09E55024D01392B661
:1005B2008011E54FB4410FE551B40D0AE55024D046
:1005C2001392A612231E020DD7E54A6444705FE51A
:1005D2004B644C7059E54C64497053E54D644D7061
:1005E2004DE54E643D7047E551640D703CE54FB4F6
:1005F2005309E55024D01392B58010E54FB4410958
:10060200E55024D01392A58002801E20B5087D32C9
:100612007C007F03800920A50E7D327C00E4FF125E
:100622001E4412231E800580001222FC0022E54A8D
:1006320064446003020795E54B6449600302079531
:10064200E54C644F6003020795E54D644360030285
:100652000795E54E643F6003020795C37875E694FB
:100662000A18E69400501D754E53754F3D08E62456
:1006720030F55075510D75520A7B007A00794A7D2A
:100682000902072AC37875E6946418E69400503A82
:10069200754E53754F3DE6FA08E6FB7C007D0AFF76
:1006A200AE021212DAEF2430F5507C007D0AAF035D
:1006B200AE021212DAED2430F55175520D75530A5D
:1006C2007B007A00794A7D0A805EC37875E694E8F9
:1006D20018E694035057754E53754F3DE6FA08E6F7
:1006E200FB7C007D64FFAE021212DAEF2430F5507B
:1006F2007C007D0AAF03AE021212DA7C007D0A1280
:1007020012DAED2430F5517874E6FE08E6FF7C003B
:100712007D0A1212DAED2430F55275530D75540A22
:100722007B007A00794A7D0B1221CA80031222FCD7
:10073200C37877E6940A18E6940050030208A3C32C
:100742007877E6946418E6940050030208BEC378F2
:1007520077E694E818E694035036754E41754F3D9E
:10076200E6FA08E6FB7C007D64FFAE021212DAEFC5
:100772002430F5507C007D0AAF03AE021212DA7CFF
:10078200007D0A1212DAED2430F551787602092A38
:10079200020DD7E54A644C600302094FE54B644100
:1007A200600302094FE54C6450600302094FE54DB6
:1007B200644F600302094FE54E643F600302094F34
:1007C200C37881E6940A18E69400501D754E53755D
:1007D2004F3D08E62430F55075510D75520A7B00E5
:1007E2007A00794A7D0902088FC37881E6946418F9
:1007F200E69400503A754E53754F3DE6FA08E6FB13
:100802007C007D0AFFAE021212DAEF2430F5507C32
:10081200007D0AAF03AE021212DAED2430F55175F3
:10082200520D75530A7B007A00794A7D0A805EC3B5
:100832007881E694E818E694035057754E53754F45
:100842003DE6FA08E6FB7C007D64FFAE021212DA96
:10085200EF2430F5507C007D0AAF03AE021212DAAB
:100862007C007D0A1212DAED2430F5517880E6FE22
:1008720008E6FF7C007D0A1212DAED2430F552758B
:10088200530D75540A7B007A00794A7D0B1221CAF6
:1008920080031222FCC37885E6940A18E69400507D
:1008A2000F754E41754F3D08E62430F550020D0C90
:1008B200C37885E6946418E69400502D754E417510
:1008C2004F3DE6FA08E6FB7C007D0AFFAE021212FB
:1008D200DAEF2430F5507C007D0AAF03AE0212122B
:1008E200DAED2430F551020C66C37885E694E818F7
:1008F200E694035055754E41754F3DE6FA08E6FB06
:100902007C007D64FFAE021212DAEF2430F5507CD7
:10091200007D0AAF03AE021212DA7C007D0A1212C7
:10092200DAED2430F5517884E6FE08E6FF7C007D9E
:100932000A1212DAED2430F55275530D75540A7B02
:10094200007A00794A7D0B020DA7020DD7E54A64B1
:10095200546003020A3CE54B64456003020A3CE52D
:100962004C64436003020A3CE54D64506003020A92
:0A0972003CE54E643F6003020A3CBE
:10097C00789812133D1211248E2C8F2DC3E52D94D3
:10098C00E8E52C9403503F754E53754F3D7C007D2C
:10099C00641212DAEF2430F550AE2CAF2D7C007DB2
:1009AC000A1212DA7C007D0A1212DAED2430F551AB
:1009BC0075522EAE2CAF2D7C007D0A1212DAED246E
:1009CC00301221BA8003122153789C12133D12115C
:1009DC00248E2C8F2DC3E52D94E8E52C9403504DDB
:1009EC00754E41754F3D7C007D641212DAEF243058
:1009FC00F550AE2CAF2D7C007D0A1212DA7C007DF6
:100A0C000A1212DAED2430F55175522EAE2CAF2DA0
:100A1C007C007D0A1212DAED2430F55375540D75F5
:100A2C00550A7B007A00794A7D0C020DA7022153EE
:100A3C00E54A64506003020B32E54B6444600302E8
:100A4C000B32E54C64496003020B32E54D644360A4
:100A5C0003020B32E54E643F6003020B32787CE6F6
:100A6C00FA08E6FB7C0F7DFFFFAE021212DA8F5004
:100A7C007C0F7DFFAF03AE021212DA7E007F0A12EA
:100A8C0012C8AA06AB077C0F7DFF1212DA8F527CBC
:100A9C000F7DFFAF03AE021212DA7E007F0A121234
:100AAC00C87C0F7DFF1212DA8F531221A1787EE6DB
:100ABC00FA08E6FB7C0F7DFFFFAE021212DA8F50B4
:100ACC007C0F7DFFAF03AE021212DA7E007F0A129A
:100ADC0012C8AA06AB077C0F7DFF1212DA8F527C6C
:100AEC000F7DFFAF03AE021212DA7E007F0A1212E4
:100AFC00C87C0F7DFF1212DA8F53754E41754F3D36
:100B0C0074302550F55075512E74302552F55274B1
:100B1C00302553F55375540D75550A7B007A0079C1
:100B2C004A7D0C020DA7E54A64566003020BF6E5FC
:100B3C004B644F6003020BF6E54C64546003020BEC
:100B4C00F6E54D64436003020BF6E54E643F60032B
:100B5C00020BF67878E6FC08E6FDEC1313543FF52F
:100B6C0050EC5403FEAF057C007D0A1212C8AC0693
:100B7C00EC1313543FF552EC5403FE7C001212C8D4
:100B8C00EE1313543FF5531221A1787AE6FC08E6D4
:100B9C00FDEC1313543FF550EC5403FEAF057C00F1
:100BAC007D0A1212C8AC06EC1313543FF552EC54E8
:100BBC0003FE7C001212C8EE1313543FF553754E0E
:100BCC0041754F3D74302550F55075512E743025BC
:100BDC0052F55274302553F55375540D75550A7BE7
:100BEC00007A00794A7D0C020DA7E54A6454707BAB
:100BFC00E54B64507075E54C6447706FE54D64448B
:100C0C007069E54E643F706330A315754E53754F94
:100C1C002075504F75514B75520D75530AFB80144E
:100C2C00754E53754F2075504E75514F75520D754D
:100C3C00530A7B007A00794A7D0A1221CA30A70E2A
:100C4C00754E41754F2075504F75514B800C754E3C
:100C5C0041754F2075504E75514F75520D75530A95
:100C6C007B007A00794A7D0A020DA7E54A6455603B
:100C7C0003020D45E54B64546003020D45E54C64DD
:100C8C00456003020D45E54D64436003020D45E5E7
:100C9C004E643F6003020D4530B624754A54754BC3
:100CAC0045754C43754D31754E20754F4F75504EF3
:100CBC0075510D75520AFB7A00794A7D09802675AB
:100CCC004A54754B45754C43754D31754E20754FD7
:100CDC004F75504675514675520D75530A7B007A07
:100CEC0000794A7D0A1221CA30A626754A54754BE2
:100CFC0045754C43754D32754E20754F4F75504EA2
:100D0C0075510D75520A7B007A00794A7D09020DE6
:100D1C00A7754A54754B45754C43754D32754E202D
:100D2C00754F4F75504675514675520D75530A7B6C
:100D3C00007A00794A7D0A8062E54A6443705FE577
:100D4C004B644D7059E54C644F7053E54D644470E1
:100D5C004DE54E643F704730C31E754A4D754B4F81
:100D6C00754C44754D3D754E41754F5075504375DE
:100D7C00510D75520AFB801D754A4D754B4F754CC4
:100D8C0044754D3D754E41754F4375504375510D2E
:100D9C0075520A7B007A00794A7D090221CAE54A1C
:100DAC0064537027E54B644D7021E54C644F701B08
:100DBC00E54DB44416E54EB43D11E550B40D0AE5CD
:0E0DCC004F24D013920202231E80001222FC3C
:010DDA0022F6
:10167500753510E478D0F608F608F608F6E4FF129A
:101685001B9A7872EEF608EFF678D0E6FC08E62F9E
:10169500F6EE3C18F67F03121B9A7872EEF608EF09
:1016A500F678D2E6FC08E62FF6EE3C18F6D535CDF1
:1016B50079D0E7C4F854F0C868F709E7C4540F486F
:1016C500F709E7C4F854F0C868F709E7C4540F48A8
:1016D500F778D0E6FE08E6FF7C007D0F1212C87C85
:1016E500037D001212DAAA06AB0778D0E6FE08E6FB
:1016F500FF7C007D051212C80D1212DAC3EF9BFFA5
:10170500EE9AC313FEEF13FF7874EEF608EFF67842
:1017150082A60608F6C3940AEE940050137875E67F
:10172500243078A0F608766D087641087620803852
:10173500C37875E6946418E694005031E6FA08E635
:10174500FB7C007D0AFFAE021212DAEF243078A08E
:10175500F67C007D0AAF03AE021212DAED24307872
:10176500A1F608766D0876410876208059C378750C
:10177500E694E818E69403504DE6FA08E6FB7C008B
:101785007D64FFAE021212DAEF243078A0F67C00F9
:101795007D64AF03AE021212DA7E007F0ACFCDCF91
:1017A500CECCCE1212DAEF243078A1F67874E6FEAC
:1017B50008E6FF7C007D0A1212DAED243078A2F6E5
:1017C50008766D08764178D2E6FE08E6FF7C007D56
:1017D5000F1212C87C037D001212DAAA06AB077835
:1017E500D2E6FE08E6FF7C007D051212C80D121236
:1017F500DAC3EF9BFFEE9AC313FEEF13FF7876EE85
:10180500F608EFF67886A60608F6C3940AEE940065
:1018150050137877E6243078A6F608766D08764179
:101825000876208038C37877E6946418E6940050EB
:1018350030E6FA08E6FB7C007D0AFFAE021212DAFA
:10184500EF243078A6F67C007D0AAF03AE021212B3
:10185500DAED243078A7F608766D0876410876200B
:1018650022C37877E694E818E69403504DE6FA0823
:10187500E6FB7C007D64FFAE021212DAEF243078BD
:10188500A6F67C007D64AF03AE021212DA7E007FFD
:101895000ACFCDCFCECCCE1212DAEF243078A7F610
:1018A5007876E6FE08E6FF7C007D0A1212DAED2462
:0A18B5003078A8F608766D08764139
:0118BF002206
:10135500753D0AE478E0F608F608F608F67F01120E
:101365001B9A7872EEF608EFF678E0121B8E78720B
:10137500EEF608EFF678E2E6FC08E62FF6EE3C1806
:10138500F6D53DD978E0E6FE08E6FF7C007D0A1239
:1013950012DA78E0A60608A60708E6FE08E6FF7C4E
:1013A500007D0A1212DA78E2A60608A60778E0E6BA
:1013B500FE08E6FF7872EEF6FE08EFF6FFFDAC06D6
:1013C500E41210EB8F418E408D3F8C3EE4FBFA79A1
:1013D500207840120ED38F418E408D3F8C3EE4FB2A
:1013E500FA79807845120FDC7B9D7A1179A5783CD6
:1013F500120DE28F418E408D3F8C3EA804A905AAAF
:1014050006AB07120ED37BC57AA079EA7842120E95
:10141500D3C004C005C006C0077F817EC57D897C19
:1014250043AB41AA40A93FA83E120ED3D003D00238
:10143500D001D000120DE27B047A56794E78BF12A6
:101445000DE28F458E448D438C421211247880EE37
:10145500F608EFF678ACA60608F6C3940AEE9400F3
:1014650050137881E6243078C0F608766D087677D3
:101475000876208038C37881E6946418E694005095
:1014850031E6FA08E6FB7C007D0AFFAE021212DAAD
:10149500EF243078C0F67C007D0AAF03AE0212124D
:1014A500DAED243078C1F608766D0876770876206F
:1014B5008059C37881E694E818E694035050E6FA1B
:1014C50008E6FB7C007D64FFAE021212DAEF2430E1
:1014D50078C0F67C007D64AF03AE021212DA7E009E
:1014E5007F0ACFCDCFCECCCE1212DAEF243078C121
:1014F500F67880E6FE08E6FF7C007D0A1212DAED3A
:10150500243078C2F608766D08767708762078E27A
:10151500E6FE08E6FF7872EEF6FE08EFF6FFFDAC94
:1015250006E41210EB8F418E408D3F8C3EE4FBFAB2
:1015350079207840120ED38F418E408D3F8C3EE44A
:10154500FBFA79807845120FDC7B9D7A1179A578B5
:101555003C120DE28F418E408D3F8C3EA804A905BB
:10156500AA06AB07120ED37BC57AA079EA78421298
:101575000ED3C004C005C006C0077F817EC57D8926
:101585007C43AB41AA40A93FA83E120ED3D003D05D
:1015950002D001D000120DE27B047A56794E78BF55
:1015A500120DE28F458E448D438C421211247884AE
:1015B500EEF608EFF678AEA60608F6C3940AEE94A2
:1015C5000050137885E6243078C6F608766D0876DF
:1015D500770876208038C37885E6946418E6940009
:1015E5005031E6FA08E6FB7C007D0AFFAE021212D6
:1015F500DAEF243078C6F67C007D0AAF03AE02121E
:1016050012DAED243078C7F608766D087677087615
:10161500208059C37885E694E818E694035050E68F
:10162500FA08E6FB7C007D64FFAE021212DAEF24B5
:101635003078C6F67C007D64AF03AE021212DA7E06
:10164500007F0ACFCDCFCECCCE1212DAEF24307880
:10165500C7F67884E6FE08E6FF7C007D0A1212DAFA
:0F166500ED243078C8F608766D08767708762081
:011674002253
:1018C000E4F52CF52DF52EF52F75301078DCF608A3
:1018D000F608F608F67F02121B9A7872EEF608EF09
:1018E000F678DCE6FC08E62FF6EE3C18F67F0512EB
:1018F0001B9A7872EEF608EFF678DEE6FC08E62F23
:10190000F6EE3C18F6D530CD79DCE7C4F854F0C8D3
:1019100068F709E7C4540F48F709E7C4F854F0C85A
:1019200068FE09E7C4540F48FF78DEEEF608EFF6CC
:1019300078DCE6FC08E6FD78CCA60408A60508A637
:101940000608A60778CCE6FC08E6FDE41210EB7B5F
:10195000327A6679BD7841120FDC7B667A66790E41
:101960007843120DE2789812134978CEE6FC08E627
:10197000FDE41210EB7B327A6679BD7841120FDC00
:101980007B667A66790E7843120DE2789C121349D1
:10199000789812133D1211248E2C8F2D78CCA62C02
:1019A00008A62D789C12133D1211248E2E8F2F78AD
:1019B000CEA62E08A62FAE2CAF2D7C007D64121271
:1019C000DAEF2430788CF6AE2CAF2D7C007D0A1235
:1019D00012DA7C007D0A1212DAED2430788DF608D6
:1019E000762EAE2CAF2D7C007D0A1212DAED24305B
:1019F000788FF6AE2EAF2F7C007D641212DAEF24C2
:101A0000307892F6AE2EAF2F7C007D0A1212DA7C6F
:101A1000007D0A1212DAED24307893F608762EAEA5
:101A20002EAF2F7C007D0A1212DAED24307895F665
:011A30002293
:1020E700752C14E478D8F608F608F608F67F01127E
:1020F700206F79B1E778D926F619E71836F67F0207
:1021070012206F79B1E778DB26F619E71836F6D58E
:102117002CDB78D8E6FE08E6FF7C007D141212DA85
:10212700AA06AB077878EAF608EBF67C007D05127D
:1021370012C87878A60608A60708EAF6FE08EBF69E
:0B214700FF1212C8787AA60608A6074F
:01215200226A
:101F6900752C0AE478D4F608F608F608F67F01120B
:101F79001B9A7872EEF608EFF678D4121B8E7872F7
:101F8900EEF608EFF678D6E6FC08E62FF6EE3C18F2
:101F9900F6D52CD978D4E6FE08E6FF7C007D0A1236
:101FA90012DA787CEEF6FA08EFF6FB78D6E6FE0848
:101FB900E6FF7C007D0A1212DA787EA60608A607DB
:101FC9007C007D05AF03AE021212C8EEC313797C03
:101FD900F7EF1309F7787EE6FE08E6FF1212C8EE5E
:081FE900C31309F7EF1309F718
:011FF10022CD
:061C9E007D037C00E4FF61
:061CA4008F308C318D32FF
:101CAA00C3E5329403E5319400500675310075326C
:101CBA0003D3E5329458E531940240067531027532
:101CCA003258AC31AD32E41210EB8F368E358D348A
:101CDA008C33A804A905AA06AB07120ED3E4FBFAB3
:101CEA00797A7844120FDC7BA47A70795D78401295
:101CFA000ED38F3A8E398D388C377FB57E377DD0AB
:101D0A007C40AB36AA35A934A833120ED37B487A65
:101D1A00E179EC7841120DE2AB3AAA39A938A83731
:101D2A00120DDE8F3A8E398D388C371211248E3B84
:101D3A008F3CE530B4031A30B613AD3CAC3B7F039D
:101D4A0012200500AD3CAC3B7F0312200578B2801F
:101D5A001BE530701E30A612AD3CAC3BFF122005CD
:101D6A0000AD3CAC3BE4FF12200578B4A63108A6CE
:071D7A003280010012135535
:011D8100223F
:061E3E007D1E7C00E4FFA4
:061E44008F308C318D325D
:101E4A00C3E532941EE531940050067531007532AF
:101E5A001ED3E5329484E531940340067531037547
:101E6A003284AE31AF327C007D091212C87D7D12F8
:101E7A0012DAAA06AB07AE31AF327C007D0312122A
:101E8A00C8EF2BF534EE3AF533E530B4032030B61B
:101E9A001AAD34AC337F0312200500AD34AC337F66
:101EAA00031220057888A63108A632008021E53081
:101EBA00701D30A619AD34AC33FF12200500AD34C5
:101ECA00AC33E4FF122005788AA63108A632001244
:021EDA0016757B
:011EDC0022E3
:0C1B8E00E6FC08E62FF6EE3C18F67F049B
:101B9A00E4F546F547F9F548F549EFB40800503D34
:101BAA00901BB1F8282873021BC9021BCD021BD156
:101BBA00021BD5021BD9021BDD021BE1021BE5E455
:101BCA00FD801A7D0880167D1080127D18800E7D9A
:101BDA0020800A7D2880067D3080027D38C2A400DC
:101BEA00D297E4FB74807E00A803088006CEA2E7A1
:101BFA0013CE13D8F8FFEDF582EF558224FF9295A4
:101C0A00C29700D297000BBB08DAD2A400C2A40084
:101C1A00E4FB74807E00A803088006CEA2E713CEF8
:101C2A0013D8F8FFEDF582EF558224FF9295C297FB
:101C3A0000D29700A296E433F546C374079BFFE5EA
:101C4A0046A807088002C333D8FCF54642010BBBFD
:101C5A0008C08946E4F9FBC29700D297A296E433FA
:101C6A00F547C374079BFFE547A807088002C333FB
:101C7A00D8FCF5474201000BBB08DC8947E546FE64
:101C8A00E5477A002400FFEA3E540FF5488F49D20F
:031C9A00A400FEA5
:011C9D002224
:0C2378007B017A007D017C007F017E006B
:0D2384008E308F318C328D338A348B3522B0
:101FF20078B276000876030876000876037D197CAD
:03200200007F0359
:042005008C3D8D3E43
:10200900E4FBFAEF14601514601D146025240370B5
:102019002AE4253EFBE53D3410FA801FE4253EFB0A
:10202900E53D3450FA8014E4253EFBE53D3490FA51
:102039008009E4253EFBE53D34D0FAD2A200C2C0B6
:10204900D2B700C2B7E4FDEA3392A1D2A0EB25E0F2
:10205900FBEA33FA00C2A00DBD10ECC2A200D2C047
:05206900E4F53DF53E29
:01206E00224F
:10206F00EF14601314601514601724FC6018240714
:10207F007017759D018012759D02800D759D0480EE
:10208F0008759D088003759D8053A2FBE4F5BDF58F
:10209F00BE53070775BC4000EF42BC0043BC807FB6
:1020AF000A7E001223CE43BC087F0A7E001223CE85
:1020BF00E4FFEF7007E5BC5410FF80F653BCE7E474
:1020CF00F59DAFBDEF75F004A4AEF0ADBE7C002D55
:0720DF0078B1F6EC3E18F6A3
:0120E60022D7
:020006000022D6
:10239100E4FDFCED1D70011CED4C70F7EF1F7001A9
:0523A1001EEF4E70EE7E
:0123A6002214
:0423CA007F507EC3FF
:0A23CE00EF1F70011EEF4E70F722A2
:030003000223A72E
:1023A70020B50512000680010020A50412000632A0
:0223B7000032F2
:03001300020008E0
:020008000032C4
:030023000222D9DD
:1022D900C0E0C0D075D018309814C298E599B40AF6
:1022E90004D2008009744A2571F8A6990571D0D0E5
:0322F900D0E03200
:03000B000222B41A
:1022B400C0E0C0D075D008758A30758CF8E55A1521
:1022C4005AAE59700215594E7006755903755AE87D
:0522D400D0D0D0E03283
:1022FC0078307C007D007BFF7A2279617E007F0A3A
:10230C001212757B007A0079307D0A1221CAE4F52D
:01231C00714F
:01231D00229D
:10231E0078307C007D007BFF7A22796B7E007F0B0C
:10232E001212757B007A0079307D0B1221CAE4F50A
:01233E00712D
:01233F00227B
:1021530075300678317C007D007BFF7A2279767EAC
:10216300007F071212757B007A0079317D071221F7
:10217300CA7F327E00122391D530F67B007A007934
:10218300317D051221CA7530067F327E00122391FC
:0E219300D530F67B007A0079317D050221CA35
:101A310075210AE4F522121D8212222A30C31512E1
:101A41001FF2007D191220057D19E4FF1220050007
:101A51007D1980227888760008761E08760008763F
:101A61001E7D58122001007D581220057D58E4FF8B
:101A7100122005007D581220057F017E001223915E
:101A8100300008120026C200E4F571003002EA12AB
:101A910016751218C0D378CDE6941818E694014053
:011AA1004FF5
:101AA20078237C007D007BFF7A22797D7E007F098E
:101AB20012127530C30E121C9E7D037C007F03122E
:101AC2001CA4800C121E3E7D1E7C007F03121E444D
:101AD200C2B6C2A67B007A0079237D091221CAE42C
:0F1AE200F571FB7A0079237530867D071221EEAE
:0C1AF100D378CFE6941818E69401404F1B
:101AFD0078237C007D007BFF7A2279867E007F092A
:101B0D0012127530C30E121C9E7D037C007F0312D2
:101B1D001CA4800C121E3E7D1E7C007F03121E44F1
:101B2D00C2B6C2A67B007A0079237D091221CAE4D0
:0F1B3D00F571FB7A0079237530967D071221EE42
:101B4C00121F691220E77878E6FC08E6FDE4121013
:101B5C00EB7B667A66794678401210795003120056
:101B6C0006787AE6FC08E6FDE41210EB7B667A66F2
:101B7C00794678401210794003021A7A1200060254
:021B8C001A7AC3
:100DDB00021190E86480F8E933E83360110460F0A5
:100DEB00ED33EC337009E8FCE9FDEAFEEBFF22047E
:100DFB0060DED3EB9FEA9EE99DE8C2E78CF0C2F779
:100E0B0095F0400CE8CCF8E9CDF9EACEFAEBCFFB44
:100E1B0012115B85D0F05804700320D5B3E8047031
:100E2B00075002B2D502119A92D5EC0460F7E4CCCC
:100E3B00C0E0C398F8603B94186008400DD0E0FB0D
:100E4B00021172E4FBFAC9FC8028E830E406E4C91D
:100E5B00FBE4CAFCE830E305E4C9CACBFCE8540761
:100E6B006010F8C3E913F9EA13FAEB13FBEC13FC6C
:100E7B00D8F130F52FC3E49CFCEF9BFFEE9AFEED0F
:100E8B0099FDD0E0FBEF4E4D4C701222DB030211AB
:100E9B0097EC2CFCEF33FFEE33FEED33FDED30E73B
:100EAB00EB021172EF2BFFEE3AFEED39FDD0E0FBBA
:100EBB0050130BBB000302119AED13FDEE13FEEF63
:080ECB0013FFEC13FC0211728D
:100ED300EC4D6011E8497017ED33EC3304600DE419
:100EE300FCFFFEFD22E933E8330470F8021190128F
:100EF300115B58046009E4CC248150062850090290
:100F0300119A284003021197C0E0EB4A7044B9805C
:100F130006D0E0FB021186EF4E701CBD8008EBFF8C
:100F2300EAFEE9FD80EBE98DF0A4FEE5F0020FBCDB
:100F3300E9CDF9EAFEEBFFEF89F0A4FCE5F0CE89F9
:100F4300F0A42EFFE435F0CD89F0A42DFEE435F0B6
:100F53008067EF4E7005BD80D780C3EF8BF0A4ACE4
:100F6300F0EE8BF0A42CFCE435F0F8EF8AF0A42C1F
:100F7300E5F038FCE433CB8DF0A42CFCE5F03BF832
:100F8300EE8AF0A42CFCE5F038F8E433CF89F0A422
:100F93002CFCE5F038CF3400CE89F0A42FFFE5F028
:100FA3003EFEE433C98DF0A42EFEE5F039CD8AF080
:100FB300A42FFFE5F03EFEE43DFD33D0E0FB5007F8
:100FC3000BBB000F02119AEC2CFCEF33FFEE33FE48
:060FD300ED33FD02117276
:100FD90002119AEC5D046005E8590470030211904E
:100FE90012115B580460F6EC4860F2EC7004FDFEE7
:100FF900FF22C860DB2481C85009C39860025006EB
:101009000211979850CAF582E9294B4A7005AB82BB
:1010190002118675F0007C1A7880C3EF9BEE9AED79
:1010290099400DC3EF9BFFEE9AFEED99FDE842F062
:10103900DC23ACF0D0E0FFD0E0FED0E0FDAB8220B5
:10104900E7101BEB60BAEC2CFCEF33FFEE33FEED3F
:1010590033FD021172E803F830E705C0F075F000BE
:10106900EF2FFFEE33FEED33FD40B830E7C280AA23
:1010790074F8CC6480CCC86480C8F582046043C32A
:10108900EB9FF5F0EA9E42F0E99D42F0E89C45F0BD
:1010990060305018E5825FFFE582F42B5582FB50E2
:1010A900210ABA001D09B90019088016E5825BFBFF
:1010B900E582F42F5582FF50090EBE00050DBD00D3
:1010C900010CC3EB9FF5F0EA9E42F0E99D42F0E87E
:0D10D9009C45F06007CC4820E701B3EC22F5
:1010E60075F020800E75F010800575F0087D007E85
:1010F600007F003392D530D50312132FEC33401006
:10110600EF33FFEE33FEED33FDEC33FCD5F0ED228D
:0E111600E5F0247EA2D513CC92E7CDCEFF22C9
:10112400EDD2E7CD33EC3392D524814006E4FFFEC3
:10113400FDFC22FCE4CFCECDCC24E0501174FF8022
:10114400EDC3CC13CCCD13CDCE13CECF13CF0470BF
:07115400F030D5DE02132F7D
:10115B00E9D2E7C933E833F892D5EDD2E7CD33ECDA
:07116B0033FC5002B2D52253
:10117200EC30E7100FBF000C0EBE00080DBD0004DE
:101182000BEB6014A2D5EB13FCED92E7FD2274FF8A
:10119200FCFDFEFF22E480F8A2D574FF13FC7D80E3
:0311A200E480EFF7
:03000000021EDD00
:0C1EDD00787FE4F6D8FD7581E3021F2435
:1011A500E709F608DFFA8046E709F208DFFA803E2C
:1011B50088828C83E709F0A3DFFA8032E309F60819
:1011C500DFFA8078E309F208DFFA807088828C8381
:1011D500E309F0A3DFFA806489828A83E0A3F60835
:1011E500DFFA805889828A83E0A3F208DFFA804C0F
:1011F50080D280FA80C680D4806980F280338010E6
:1012050080A680EA809A80A880DA80E280CA80334E
:1012150089828A83ECFAE493A3C8C582C8CCC583C6
:10122500CCF0A3C8C582C8CCC583CCDFE9DEE78096
:101235000D89828A83E493A3F608DFF9ECFAA9F015
:10124500EDFB2289828A83ECFAE0A3C8C582C8CC6B
:10125500C583CCF0A3C8C582C8CCC583CCDFEADE84
:10126500E880DB89828A83E493A3F208DFF980CCE6
:1012750088F0EF60010E4E60C388F0ED2402B404DF
:101285000050B9F582EB2402B4040050AF23234586
:0612950082239011F573A5
:10129B00BB010CE58229F582E5833AF583E0225008
:1012AB0006E92582F8E622BBFE06E92582F8E22252
:0D12BB00E58229F582E5833AF583E493226C
:1012C800EF8DF0A4A8F0CF8CF0A428CE8DF0A42E3A
:0212D800FE22F4
:1012DA00BC000BBE0029EF8DF084FFADF022E4CCF8
:1012EA00F875F008EF2FFFEE33FEEC33FCEE9DECC1
:1012FA00984005FCEE9DFE0FD5F0E9E4CEFD22ED07
:10130A00F8F5F0EE8420D21CFEADF075F008EF2F50
:10131A00FFED33FD4007985006D5F0F222C398FD41
:05132A000FD5F0EA22DE
:0E132F00C3E49FFFE49EFEE49DFDE49CFC22CF
:0C133D00E6FC08E6FD08E6FE08E6FF22DC
:0C134900ECF608EDF608EEF608EFF622D0
:101EE900021A31E493A3F8E493A34003F68001F2C4
:101EF90008DFF48029E493A3F85407240CC8C333FA
:101F0900C4540F4420C8834004F456800146F6DFC8
:101F1900E4800B0102040810204080900016E47E42
:101F2900019360BCA3FF543F30E509541FFEE493BD
:101F3900A360010ECF54C025E060A840B8E493A384
:101F4900FAE493A3F8E493A3C8C582C8CAC583CAAF
:101F5900F0A3C8C582C8CAC583CADFE9DEE780BE67
:0100210000DE
:00000001FF
