:1026A8007365746661756C740D0A7365747375630C
:1026B8006365640D0A416C61726D0D0A746D705F1B
:0E26C8006572720D0A746D705F6572720D0A94
:0B001600025903E8017100C100C101A4
:10257F007C007D6412170AEF2430F54DAE2CAF2D81
:10258F007C007D0A12170A7C007D0A12170AED24BF
:10259F0030F54E754F2EAE2CAF2D7C007D0A1217E5
:1025AF000AED2430F55075510D75520A7A00794AAB
:0425BF007B007D0917
:0625C3008B3B8A3C893DC0
:1025C900E4FFAB3BAA3CA93D8F827583001216CB71
:0D25D900F5993099FDC2990FEFC39D40E5C3
:0125E60022D2
:10267100438780759850759C64438E04438E014353
:102681008E10758921538E3F75B71475B824D2AC5D
:10269100D2A9D288D2A8D28AD2AAD2AF758A3075ED
:0726A1008CF8C28DC28C22EF
:1021AE00E4F5BDF5BEC200C201F571F56CD2027840
:1021BE0072F608F608F608F608F608F67880F608BD
:1021CE00F67884F608F6D2C0D2A2C2B7C2A0C2A1D7
:1021DE007DF97C047F02122431007DF97C047F029C
:1021EE00122431007DF97C047F01122431007DF927
:1021FE007C047F0112243130C31512241E001224D8
:10220E002B7D197C00E4FF122431007D1980247887
:10221E0088760008761E08760008761E7D5C1224ED
:10222E002D007D5C12242D7D597C00E4FF1224319B
:10223E00007D597C00E4FF12243175BB3075910787
:10224E00E4F592D2A4D297D296D2B6D2B5D2A6D275
:0C225E00A5C28CC2A9C28EC2ABC2A822CD
:1026D6007D30E4FF1227871228117D01E4FF1227BF
:1026E600871228117D06E4FF1227871228117D0C18
:0526F600E4FF0227874C
:082635008B2C8A2D892E8D2FBC
:10263D00E4F531AD30FF122787E4F531E531C3956F
:10264D002F5019AB2CAA2DA92E853182758300121E
:10265D0016CBFD7F01122787053180E07F027E00BA
:03266D001227D859
:012670002247
:102800007D30E4FF1227871228117D01E4FF0227A3
:012810008740
:1027A6007580FF00C2C1D2C500000000D2C400007F
:0927B60000002087FD00C2C422CE
:102787001227A6EF6006D2C1C2C58004C2C1C2C566
:0F2797008D8000000000D2C400000000C2C422E8
:10002600E54AB4491DE54BB44E18E54CB44913E511
:100036004DB4540EE54EB449091221AE1226710292
:100046001202E54A644C60030200EFE54B6444602B
:10005600030200EFE54C64316009E54C643260034D
:0C0066000200EFE54D643D60030200EF76
:10007200E54FB40D0DE54E24D0F52DE434FFF52CFB
:100082008046E550B40D0FE54E24D075F00AA4FF6A
:10009200AEF0E54F8020E551B40D2BE54F24D0752D
:1000A200F00AA4FDACF0E54E24D075F064A42DFF57
:1000B200E5F03CFEE55024D0FDE434FFCD2FF52DD4
:1000C200ED3EF52C80028020E54CB43105752E03FF
:1000D2008008E54CB43211E4F52EAD2DAC2CAF2ED8
:0C00E200122270122765800312274300D1
:1000EE0022E54A64496003020190E54B644E6003C9
:1000FE00020190E54C64496003020190E54D6443B2
:0B010E006003020190E54E643D707735
:10011900E551B40D0DE55024D0F52DE434FFF52C4F
:100129008046E552B40D0FE55024D075F00AA4FFBE
:10013900AEF0E5518020E553B40D2BE55124D0757F
:10014900F00AA4FDACF0E55024D075F064A42DFFAD
:10015900E5F03CFEE55224D0FDE434FFCD2FF52D2A
:10016900ED3EF52C8002801AE54FB45308852C6DBD
:10017900852D6E8010E54FB44108852C6F852D7053
:0601890080031227430071
:10018F0022E54A64497045E54B644E703FE54C6487
:0F019F00497039E54D64457033E54E643D702D70
:1001AE00E550B40D23E54F24D0F52DE434FFF52CA6
:1001BE00C394004016D3E52D9403E52C9400500B08
:0C01CE00852C5B852D5C8003122743000C
:1001DA0022E54A64506003020279E54B6431600902
:1001EA00E54B64326003020279E54C643D60030228
:0201FA00027988
:1001FC00E54EB40D0DE54D24D0F52DE434FFF52C72
:10020C008046E54FB40D0FE54D24D075F00AA4FFE0
:10021C00AEF0E54E8020E550B40D2BE54E24D075A4
:10022C00F00AA4FDACF0E54D24D075F064A42DFFCC
:10023C00E5F03CFEE54F24D0FDE434FFCD2FF52D49
:10024C00ED3EF52C80028020E54CB4310575F903A8
:10025C008008E54CB43211E4F5F9AD2DAC2CAF2E81
:0C026C001220D0122765800312274300E7
:1002780022E54A645460030203A5E54B6431600932
:10028800E54B643260030203A5E54C643D6003025C
:0202980003A5BC
:10029A00F52CF52DF52EF52FE54F640D704AE54D39
:1002AA0024D075F00AA4FFAEF0E54E24D0FDE43464
:1002BA00FFCD2FF52DED3EF52CFEAF2D7C027DB343
:1002CA001216F8EF2437FFEE34D8FE7C077DD012E1
:1002DA00170AAA06AB07AE2CAF2D7C007D76121644
:1002EA00F8EF2BFFEE3A8070E551640D60030203CC
:1002FA00A0E54D24D075F00AA4FFAEF0E54E24D057
:10030A00FDE434FFCD2FF52DED3EF52CFEAF2D7C0F
:10031A00027DB31216F8AA06AB07E55075F045A49C
:10032A002BFFEA35F0CF2447CF34CBFE7C077DD0B4
:10033A0012170AAA06AB07AE2CAF2D7C007D7612E7
:10034A0016F8EF2BFFEE3AFEE55024D075F03BA4E9
:10035A0075F005842FFFEC3ECF2470F52FEF34F9AA
:10036A00F52EE54BB43112AD2FAC2E7F021224319B
:10037A0000AD2FAC2E7F028015E54BB43218AD2F9D
:10038A00AC2E7F0112243100AD2FAC2E7F01122436
:0A039A00311227658003122743008B
:1003A40022E54A64506003020457E54B6455600338
:1003B400020457E54C64526003020457E54D64415E
:0E03C4006003020457E54E643D6003020457D7
:1003D200E550B40D0DE54F24D0F52DE434FFF52C96
:1003E200806BE551B40D0FE55024D075F00AA4FFDF
:1003F200AEF0E54F8042E552B40D1DE55024D075B4
:10040200F00AA4FDACF0E54F24D075F064A42DFFF2
:10041200E5F03CFEE5518020E552B40D2BE5502479
:10042200D075F00AA4FDACF0E54F24D075F064A4B9
:100432002DFFE5F03CFEE55124D0FDE434FFCD2F45
:10044200F52DED3EF52C800512274380061227BFBD
:040452001227650008
:1004560022E54A64506003020509E54B64556003D2
:10046600020509E54C64576003020509E54D644938
:0E0476006003020509E54E643D6003020509BE
:10048400E550B40D0DE54F24D0F52DE434FFF52CE3
:10049400806BE551B40D0FE55024D075F00AA4FF2C
:1004A400AEF0E54F8042E552B40D1DE55024D07501
:1004B400F00AA4FDACF0E54F24D075F064A42DFF40
:1004C400E5F03CFEE5518020E552B40D2BE55024C7
:1004D400D075F00AA4FDACF0E54F24D075F064A407
:1004E4002DFFE5F03CFEE55124D0FDE434FFCD2F93
:1004F400F52DED3EF52C800512274380061227BF0B
:040504001227650055
:1005080022E54A64447059E54B64457053E54C64F0
:0F0518004C704DE54D64597047E54E643D7041A0
:10052700E550B40D0DE54F24D0F52DE434FFF52C3F
:100537008027E551B40D1DE55024D075F00AA4FFBE
:10054700AEF0E54F24D0FDE434FFCD2FF52DED3E81
:10055700F52C800512274380061227BF1227650056
:1005670022E54A64537042E54B6448703CE54C64AD
:10057700447036E54D644E7030E54E643D702AE5B3
:100587004FB4530EE551B40D09E55024D01392B67C
:100597008011E54FB4410FE551B40D0AE55024D061
:1005A7001392A6122765021207E54A6444705FE5B5
:1005B7004B644C7059E54C64497053E54D644D707C
:1005C7004DE54E643D7047E551640D703CE54FB411
:1005D7005309E55024D01392B58010E54FB4410973
:1005E700E55024D01392A58002801E20B5087D32E5
:1005F7007C007F03800920A50E7D327C00E4FF127A
:100607002270122765800580001227430022E54AE1
:1006170064536003020A57E54B64546003020A57A8
:10062700E54C64416003020A57E54D6454600302D8
:100637000A57E54E64456003020A57E54F643F6079
:0406470003020A5749
:10064B00754A0DFB7A00794A7D011225C3754A4C18
:10065B00754B44754C31754D3DC37875E6940A184E
:10066B00E69400501708E62430F54E754F0D755083
:10067B000A7B007A00794A7D0702071FC37875E66B
:10068B00946418E694005034E6FA08E6FB7C007D8F
:10069B000AFFAE0212170AEF2430F54E7C007D0ADA
:1006AB00AF03AE0212170AED2430F54F75500D75DE
:1006BB00510A7B007A00794A7D088058C37875E629
:1006CB0094E818E694035051E6FA08E6FB7C007DAB
:1006DB0064FFAE0212170AEF2430F54E7C007D0A40
:1006EB00AF03AE0212170A7C007D0A12170AED2423
:1006FB0030F54F7874E6FE08E6FF7C007D0A121792
:10070B000AED2430F55075510D75520A7B007A00B5
:10071B00794A7D091225C38003122743754A4C750C
:10072B004B44754C32754D3DC37877E6940A18E609
:10073B009400501708E62430F54E754F0D75500A8E
:10074B007B007A00794A7D070207EEC37877E6943F
:10075B006418E694005034E6FA08E6FB7C007D0A48
:10076B00FFAE0212170AEF2430F54E7C007D0AAF64
:10077B0003AE0212170AED2430F54F75500D75516B
:10078B000A7B007A00794A7D088058C37877E69413
:10079B00E818E694035051E6FA08E6FB7C007D640A
:1007AB00FFAE0212170AEF2430F54E7C007D0AAF24
:1007BB0003AE0212170A7C007D0A12170AED2430D1
:1007CB00F54F7876E6FE08E6FF7C007D0A12170AE5
:1007DB00ED2430F55075510D75520A7B007A007976
:1007EB004A7D091225C38003122743754A0D7B00EE
:1007FB007A00794A7D011225C3754A50754B3175C4
:10080B004C3DC37881E6940A18E69400501708E62D
:10081B002430F54D754E0D754F0A7B007A00794AE1
:10082B007D060208C8C37881E6946418E6940050EC
:10083B0034E6FA08E6FB7C007D0AFFAE0212170ACB
:10084B00EF2430F54D7C007D0AAF03AE0212170A80
:10085B00ED2430F54E754F0D75500A7B007A0079FB
:10086B004A7D078058C37881E694E818E6940350D4
:10087B0051E6FA08E6FB7C007D64FFAE0212170A14
:10088B00EF2430F54D7C007D0AAF03AE0212170A40
:10089B007C007D0A12170AED2430F54E7880E6FEB7
:1008AB0008E6FF7C007D0A12170AED2430F54F7520
:1008BB00500D75510A7B007A00794A7D081225C3C9
:1008CB008003122743754A50754B32754C3DC378E4
:1008DB0085E6940A18E69400501708E62430F54D87
:1008EB00754E0D754F0A7B007A00794A7D06020919
:1008FB0094C37885E6946418E694005034E6FA08BD
:10090B00E6FB7C007D0AFFAE0212170AEF2430F5DE
:10091B004D7C007D0AAF03AE0212170AED2430F5B1
:10092B004E754F0D75500A7B007A00794A7D078012
:10093B0058C37885E694E818E694035051E6FA0814
:10094B00E6FB7C007D64FFAE0212170AEF2430F544
:10095B004D7C007D0AAF03AE0212170A7C007D0AA4
:10096B0012170AED2430F54E7884E6FE08E6FF7C7C
:10097B00007D0A12170AED2430F54F75500D755195
:10098B000A7B007A00794A7D081225C3800312275F
:10099B0043754A0D7B007A00794A7D011225C37895
:1009AB009812176D1215548E2C8F2D754A54754B4A
:1009BB0031754C3DC3E52D94E8E52C94035005129D
:1009CB00257F80031225E7789C12176D1215548E24
:1009DB002C8F2D754A54754B32754C3DC3E52D94B8
:1009EB00E8E52C9403500512257F80031225E7754B
:1009FB004A0D7B007A00794A7D011225C330A30E84
:100A0B00754A54754B31754C4F754D4B800C754A6F
:100A1B0054754B31754C4E754D4F754E0D754F0AC8
:100A2B007B007A00794A7D061225C330A70F754AE1
:100A3B0054754B32754C4F754D4B020C66754A54C1
:090A4B00754B32754C4E754D4F90
:100A5400020C66E54A644C6003020B83E54B644474
:100A64006003020B83E54C64316009E54C64326039
:100A740003020B83E54D643F6003020B83E54C6482
:100A8400317067754A4C754B44754C31754D3DC397
:100A94007875E6940A18E694005002806EC378755F
:100AA400E6946418E6940050028071C37875E69465
:100AB400E818E694035030E6FA08E6FB7C007D640F
:100AC400FFAE0212170AEF2430F54E7C007D0AAF08
:100AD40003AE0212170A7C007D0A12170AED2430B5
:100AE400F54F7874020B78021207E54C6432600308
:100AF40002120A754A4C754B44754C32754D3DC310
:100B04007877E6940A18E69400500508E6020CA3E8
:100B1400C37877E6946418E69400501FE6FA08E672
:100B2400FB7C007D0AFFAE0212170AEF2430F54E5B
:100B34007C007D0AAF03AE02020CFAC37877E69418
:100B4400E818E694035035E6FA08E6FB7C007D6479
:100B5400FFAE0212170AEF2430F54E7C007D0AAF77
:100B640003AE0212170A7C007D0A12170AED243024
:100B7400F54F7876E6FE08E6FF020D8A021207E5D5
:100B84004A64506003020D16E54B64316009E54B7D
:100B940064326003020D16E54C643F6003020D16D7
:100BA400E54B64316003020C42754A50754B317554
:100BB4004C3DC37881E6940A18E69400500908E68F
:100BC4002430F54D020C66C37881E6946418E694EB
:100BD400005023E6FA08E6FB7C007D0AFFAE021211
:100BE400170AEF2430F54D7C007D0AAF03AE0212E4
:100BF400170AED020CA3C37881E694E818E694037F
:100C04005039E6FA08E6FB7C007D64FFAE02121759
:100C14000AEF2430F54D7C007D0AAF03AE021217B3
:100C24000A7C007D0A12170AED2430F54E7880E61E
:100C3400FE08E6FF7C007D0A020CFA021207E54B6F
:100C44006432600302120A754A50754B32754C3D8A
:100C5400C37885E6940A18E69400501708E6243011
:100C6400F54D754E0D754F0A7B007A00794A7D0665
:100C74000211D7C37885E6946418E694005035E6EB
:100C8400FA08E6FB7C007D0AFFAE0212170AEF2485
:100C940030F54D7C007D0AAF03AE0212170AED2435
:100CA40030F54E754F0D75500A7B007A00794A7DF8
:100CB400070211D7C37885E694E818E69403504FE9
:100CC400E6FA08E6FB7C007D64FFAE0212170AEF29
:100CD4002430F54D7C007D0AAF03AE0212170A7C66
:100CE400007D0A12170AED2430F54E7884E6FE08DA
:100CF400E6FF7C007D0A12170AED2430F54F75508B
:100D04000D75510A7B007A00794A7D080211D702D9
:100D14001207E54A64546003020E1AE54B6431601D
:100D240009E54B64326003020E1AE54C643F60032C
:030D3400020E1A92
:100D3700E54B6431706A789812176D1215548E2C32
:100D47008F2D754A54754B31754C3DC3E52D94E88D
:100D5700E52C94034003020E177C007D6412170AEA
:100D6700EF2430F54DAE2CAF2D7C007D0A12170A0B
:100D77007C007D0A12170AED2430F54E754F2EAE12
:100D87002CAF2D7C007D0A12170AED2430F5507523
:100D9700510D75520A7B007A00794A7D090211D7F5
:100DA700E54B6432600302120A789C12176D121524
:100DB700548E2C8F2D754A54754B32754C3DC3E5B7
:100DC7002D94E8E52C940350477C007D6412170AA4
:100DD700EF2430F54DAE2CAF2D7C007D0A12170A9B
:100DE7007C007D0A12170AED2430F54E754F2EAEA2
:100DF7002CAF2D7C007D0A12170AED2430F55075B3
:100E0700510D75520A7B007A00794A7D090211D784
:030E17000225E7CA
:100E1A00E54A64506003020F39E54B6444600302FB
:100E2A000F39E54C64496003020F39E54D644360AC
:100E3A0003020F39E54E643F6003020F39787CE6FE
:100E4A00FA08E6FB7C0F7DFFFFAE0212170A8F50ED
:100E5A007C0F7DFFAF03AE0212170A7E007F0A12D3
:100E6A0016F8AA06AB077C0F7DFF12170A8F527C71
:100E7A000F7DFFAF03AE0212170A7E007F0A121619
:100E8A00F87C0F7DFF12170A8F53754E53754F3D2D
:100E9A0074302550F55075512E74302552F5527420
:100EAA00302553F55375540D75550A7B007A007930
:100EBA004A7D0C1225C3787EE6FA08E6FB7C0F7D94
:100ECA00FFFFAE0212170A8F507C0F7DFFAF03AEF1
:100EDA000212170A7E007F0A1216F8AA06AB077CCE
:100EEA000F7DFF12170A8F527C0F7DFFAF03AE02F0
:100EFA0012170A7E007F0A1216F87C0F7DFF12175E
:100F0A000A8F53754E41754F3D74302550F5507513
:100F1A00512E74302552F55274302553F5537554B9
:100F2A000D75550A7B007A00794A7D0C0211D7E5C6
:100F3A004A64566003021026E54B644F60030210B0
:100F4A0026E54C64546003021026E54D64436003B1
:100F5A00021026E54E643F60030210267878E6FC0C
:100F6A0008E6FDEC1313543FF550EC5403FEAF05AD
:100F7A007C007D0A1216F8AC06EC1313543FF552A6
:100F8A00EC5403FE7C001216F8EE1313543FF5538B
:100F9A00754E53754F3D74302550F55075512E746A
:100FAA00302552F55274302553F55375540D755545
:100FBA000A7B007A00794A7D0C1225C3787AE6FC0E
:100FCA0008E6FDEC1313543FF550EC5403FEAF054D
:100FDA007C007D0A1216F8AC06EC1313543FF55246
:100FEA00EC5403FE7C001216F8EE1313543FF5532B
:100FFA00754E41754F3D74302550F55075512E741C
:10100A00302552F55274302553F55375540D7555E4
:10101A000A7B007A00794A7D0C0211D7E54A6454AA
:10102A00707BE54B64507075E54C6447706FE54D15
:10103A0064447069E54E643F706330A315754E537E
:10104A00754F2075504F75514B75520D75530AFBEC
:10105A008014754E53754F2075504E75514F755209
:10106A000D75530A7B007A00794A7D0A1225C3302E
:10107A00A70E754E41754F2075504F75514B800C18
:10108A00754E41754F2075504E75514F75520D75FD
:10109A00530A7B007A00794A7D0A0211D7E54A642D
:1010AA00556003021175E54B64546003021175E53E
:1010BA004C64456003021175E54D644360030211F7
:1010CA0075E54E643F600302117530B624754A54C3
:1010DA00754B45754C43754D31754E20754F4F759F
:1010EA00504E75510D75520AFB7A00794A7D098076
:1010FA0026754A54754B45754C43754D31754E20CE
:10110A00754F4F75504675514675520D75530A7B8A
:10111A00007A00794A7D0A1225C330A626754A54F8
:10112A00754B45754C43754D32754E20754F4F754D
:10113A00504E75510D75520A7B007A00794A7D0925
:10114A000211D7754A54754B45754C43754D327526
:10115A004E20754F4F75504675514675520D755351
:10116A000A7B007A00794A7D0A8062E54A64437004
:10117A005FE54B644D7059E54C644F7053E54D641F
:10118A0044704DE54E643F704730C31E754A4D7535
:10119A004B4F754C44754D3D754E41754F507550CA
:1011AA004375510D75520AFB801D754A4D754B4F9B
:1011BA00754C44754D3D754E41754F437550437599
:1011CA00510D75520A7B007A00794A7D090225C3BE
:1011DA00E54A64537027E54B644D7021E54C644F32
:1011EA00701BE54DB44416E54EB43D11E550B40DFF
:1011FA000AE54F24D0139202022765800012274382
:01120A0022C1
:101AA500753510E478D0F608F608F608F6E4FF1266
:101AB5001FC67872EEF608EFF678D0E6FC08E62F3A
:101AC500F6EE3C18F67F03121FC67872EEF608EFA5
:101AD500F678D2E6FC08E62FF6EE3C18F6D535CDBD
:101AE50079D0E7C4F854F0C868F709E7C4540F483B
:101AF500F709E7C4F854F0C868F709E7C4540F4874
:101B0500F778D0E6FE08E6FF7C007D0F1216F87C1C
:101B1500037D0012170AAA06AB0778D0E6FE08E691
:101B2500FF7C007D051216F80D12170AC3EF9BFF07
:101B3500EE9AC313FEEF13FF7874EEF608EFF6780E
:101B450082A60608F6C3940AEE940050137875E64B
:101B5500243078A0F608766D08764108762080381E
:101B6500C37875E6946418E694005031E6FA08E601
:101B7500FB7C007D0AFFAE0212170AEF243078A025
:101B8500F67C007D0AAF03AE0212170AED24307809
:101B9500A1F608766D0876410876208059C37875D8
:101BA500E694E818E69403504DE6FA08E6FB7C0057
:101BB5007D64FFAE0212170AEF243078A0F67C0090
:101BC5007D64AF03AE0212170A7E007F0ACFCDCF28
:101BD500CECCCE12170AEF243078A1F67874E6FE43
:101BE50008E6FF7C007D0A12170AED243078A2F67C
:101BF50008766D08764178D2E6FE08E6FF7C007D22
:101C05000F1216F87C037D0012170AAA06AB077897
:101C1500D2E6FE08E6FF7C007D051216F80D1217C8
:101C25000AC3EF9BFFEE9AC313FEEF13FF7876EE20
:101C3500F608EFF67886A60608F6C3940AEE940031
:101C450050137877E6243078A6F608766D08764145
:101C55000876208038C37877E6946418E6940050B7
:101C650030E6FA08E6FB7C007D0AFFAE0212170A91
:101C7500EF243078A6F67C007D0AAF03AE0212177A
:101C85000AED243078A7F608766D087641087620A7
:101C950022C37877E694E818E69403504DE6FA08EF
:101CA500E6FB7C007D64FFAE0212170AEF24307854
:101CB500A6F67C007D64AF03AE0212170A7E007F94
:101CC5000ACFCDCFCECCCE12170AEF243078A7F6A7
:101CD5007876E6FE08E6FF7C007D0A12170AED24F9
:0A1CE5003078A8F608766D08764105
:011CEF0022D2
:10178500753D0AE478E0F608F608F608F67F0112DA
:101795001FC67872EEF608EFF678E0121FBA787277
:1017A500EEF608EFF678E2E6FC08E62FF6EE3C18D2
:1017B500F6D53DD978E0E6FE08E6FF7C007D0A1205
:1017C500170A78E0A60608A60708E6FE08E6FF7CE5
:1017D500007D0A12170A78E2A60608A60778E0E651
:1017E500FE08E6FF7872EEF6FE08EFF6FFFDAC06A2
:1017F500E412151B8F418E408D3F8C3EE4FBFA7938
:101805002078401213038F418E408D3F8C3EE4FBC0
:10181500FA7980784512140C7B9D7A1179A5783C6C
:101825001212128F418E408D3F8C3EA804A905AA45
:1018350006AB071213037BC57AA079EA7842121327
:1018450003C004C005C006C0077F817EC57D897CB5
:1018550043AB41AA40A93FA83E121303D003D002CF
:10186500D001D0001212127B047A56794E78BF123D
:1018750012128F458E448D438C421215547880EE9A
:10188500F608EFF678ACA60608F6C3940AEE9400BF
:1018950050137881E6243078C0F608766D0876779F
:1018A5000876208038C37881E6946418E694005061
:1018B50031E6FA08E6FB7C007D0AFFAE0212170A44
:1018C500EF243078C0F67C007D0AAF03AE02121714
:1018D5000AED243078C1F608766D0876770876200B
:1018E5008059C37881E694E818E694035050E6FAE7
:1018F50008E6FB7C007D64FFAE0212170AEF243078
:1019050078C0F67C007D64AF03AE0212170A7E0034
:101915007F0ACFCDCFCECCCE12170AEF243078C1B7
:10192500F67880E6FE08E6FF7C007D0A12170AEDD0
:10193500243078C2F608766D08767708762078E246
:10194500E6FE08E6FF7872EEF6FE08EFF6FFFDAC60
:1019550006E412151B8F418E408D3F8C3EE4FBFA49
:10196500792078401213038F418E408D3F8C3EE4E1
:10197500FBFA7980784512140C7B9D7A1179A5784C
:101985003C1212128F418E408D3F8C3EA804A90552
:10199500AA06AB071213037BC57AA079EA7842122F
:1019A5001303C004C005C006C0077F817EC57D89BD
:1019B5007C43AB41AA40A93FA83E121303D003D0F4
:1019C50002D001D0001212127B047A56794E78BFEC
:1019D5001212128F458E448D438C42121554788411
:1019E500EEF608EFF678AEA60608F6C3940AEE946E
:1019F5000050137885E6243078C6F608766D0876AB
:101A0500770876208038C37885E6946418E69400D4
:101A15005031E6FA08E6FB7C007D0AFFAE0212179C
:101A25000AEF243078C6F67C007D0AAF03AE0212B9
:101A3500170AED243078C7F608766D0876770876AC
:101A4500208059C37885E694E818E694035050E65B
:101A5500FA08E6FB7C007D64FFAE0212170AEF244C
:101A65003078C6F67C007D64AF03AE0212170A7E9D
:101A7500007F0ACFCDCFCECCCE12170AEF24307817
:101A8500C7F67884E6FE08E6FF7C007D0A12170A91
:0F1A9500ED243078C8F608766D0876770876204D
:011AA400221F
:101CF000E4F52CF52DF52EF52F75301078DCF6086F
:101D0000F608F608F67F02121FC67872EEF608EFA4
:101D1000F678DCE6FC08E62FF6EE3C18F67F0512B6
:101D20001FC67872EEF608EFF678DEE6FC08E62FBE
:101D3000F6EE3C18F6D530CD79DCE7C4F854F0C89F
:101D400068F709E7C4540F48F709E7C4F854F0C826
:101D500068FE09E7C4540F48FF78DEEEF608EFF698
:101D600078DCE6FC08E6FD78CCA60408A60508A603
:101D70000608A60778CCE6FC08E6FDE412151B7BF6
:101D8000327A6679BD784112140C7B667A66790ED8
:101D90007843121212789812177978CEE6FC08E68A
:101DA000FDE412151B7B327A6679BD784112140C62
:101DB0007B667A66790E7843121212789C12177934
:101DC000789812176D1215548E2C8F2D78CCA62C66
:101DD00008A62D789C12176D1215548E2E8F2F7811
:101DE000CEA62E08A62FAE2CAF2D7C007D64121738
:101DF0000AEF2430788CF6AE2CAF2D7C007D0A12D1
:101E0000170A7C007D0A12170AED2430788DF60837
:101E1000762EAE2CAF2D7C007D0A12170AED2430F1
:101E2000788FF6AE2EAF2F7C007D6412170AEF2458
:101E3000307892F6AE2EAF2F7C007D0A12170A7C06
:101E4000007D0A12170AED24307893F608762EAE3C
:101E50002EAF2F7C007D0A12170AED24307895F6FC
:011E6000225F
:10251300752C14E478D8F608F608F608F67F01124D
:10252300249B79B1E778D926F619E71836F67F02A6
:1025330012249B79B1E778DB26F619E71836F6D52E
:102543002CDB78D8E6FE08E6FF7C007D1412170A20
:10255300AA06AB077878EAF608EBF67C007D05124D
:1025630016F87878A60608A60708EAF6FE08EBF63A
:0B257300FF1216F8787AA60608A607EB
:01257E00223A
:10239500752C0AE478D4F608F608F608F67F0112DB
:1023A5001FC67872EEF608EFF678D4121FBA787267
:1023B500EEF608EFF678D6E6FC08E62FF6EE3C18C2
:1023C500F6D52CD978D4E6FE08E6FF7C007D0A1206
:1023D500170A787CEEF6FA08EFF6FB78D6E6FE08E3
:1023E500E6FF7C007D0A12170A787EA60608A60776
:1023F5007C007D05AF03AE021216F8EEC313797C9F
:10240500F7EF1309F7787EE6FE08E6FF1216F8EEF9
:08241500C31309F7EF1309F7E7
:01241D00229C
:0620CA007D037C00E4FF31
:0620D0008F308C318D32CF
:1020D600C3E5329403E5319400500675310075323C
:1020E60003D3E5329458E531940240067531027502
:1020F6003258AC31AD32E412151B8F368E358D3425
:102106008C33A804A905AA06AB07121303E4FBFA4D
:10211600797A784412140C7BA47A70795D7840122F
:1021260013038F3A8E398D388C377FB57E377DD045
:102136007C40AB36AA35A934A8331213037B487A00
:10214600E179EC7841121212AB3AAA39A938A837CC
:1021560012120E8F3A8E398D388C371215548E3BEB
:102166008F3CE530B4031A30B613AD3CAC3B7F036D
:1021760012243100AD3CAC3B7F0312243178B2808F
:102186001BE530701E30A612AD3CAC3BFF1224316D
:1021960000AD3CAC3BE4FF12243178B4A63108A66E
:0721A60032800100121785D1
:0121AD00220F
:06226A007D1E7C00E4FF74
:062270008F308C318D322D
:10227600C3E532941EE5319400500675310075327F
:102286001ED3E5329484E531940340067531037517
:102296003284AE31AF327C007D091216F87D7D1294
:1022A600170AAA06AB07AE31AF327C007D031216C1
:1022B600F8EF2BF534EE3AF533E530B4032030B6BB
:1022C6001AAD34AC337F0312243100AD34AC337F06
:1022D600031224317888A63108A632008021E53021
:1022E600701D30A619AD34AC33FF12243100AD3465
:1022F600AC33E4FF122431788AA63108A6320012E4
:022306001AA516
:0123080022B2
:0C1FBA00E6FC08E62FF6EE3C18F67F046B
:101FC600E4F546F547F9F548F549EFB40800503D04
:101FD600901FDDF8282873021FF5021FF9021FFD66
:101FE60002200102200502200902200D022011E430
:101FF600FD801A7D0880167D1080127D18800E7D6A
:1020060020800A7D2880067D3080027D38C2A400AB
:10201600D297E4FB74807E00A803088006CEA2E770
:1020260013CE13D8F8FFEDF582EF558224FF929573
:10203600C29700D297000BBB08DAD2A400C2A40054
:10204600E4FB74807E00A803088006CEA2E713CEC8
:1020560013D8F8FFEDF582EF558224FF9295C297CB
:1020660000D29700A296E433F546C374079BFFE5BA
:1020760046A807088002C333D8FCF54642010BBBCD
:1020860008C08946E4F9FBC29700D297A296E433CA
:10209600F547C374079BFFE547A807088002C333CB
:1020A600D8FCF5474201000BBB08DC8947E546FE34
:1020B600E5477A002400FFEA3E540FF5488F49D2DF
:0320C600A400FE75
:0120C90022F4
:0C27BF007B017A007D017C007F017E0020
:0D27CB008E308F318C328D338A348B352265
:10241E0078B276000876030876000876037D197C7C
:03242E00007F0329
:042431008C3D8D3E13
:10243500E4FBFAEF14601514601D14602524037085
:102445002AE4253EFBE53D3410FA801FE4253EFBDA
:10245500E53D3450FA8014E4253EFBE53D3490FA21
:102465008009E4253EFBE53D34D0FAD2A200C2C086
:10247500D2B700C2B7E4FDEA3392A1D2A0EB25E0C2
:10248500FBEA33FA00C2A00DBD10ECC2A200D2C017
:05249500E4F53DF53EF9
:01249A00221F
:10249B00EF14601314601514601724FC60182407E4
:1024AB007017759D018012759D02800D759D0480BE
:1024BB0008759D088003759D8053A2FBE4F5BDF55F
:1024CB00BE53070775BC4000EF42BC0043BC807F86
:1024DB000A7E0012281543BC087F0A7E00122815BD
:1024EB00E4FFEF7007E5BC5410FF80F653BCE7E444
:1024FB00F59DAFBDEF75F004A4AEF0ADBE7C002D25
:07250B0078B1F6EC3E18F672
:0125120022A6
:020006000022D6
:1027D800E4FDFCED1D70011CED4C70F7EF1F70015E
:0527E8001EEF4E70EE33
:0127ED0022C9
:042811007F507EC3B3
:0A281500EF1F70011EEF4E70F72256
:030003000227EEE3
:1027EE0020B50512000680010020A5041200063255
:0227FE000032A7
:03001300020008E0
:020008000032C4
:0300230002272091
:10272000C0E0C0D075D018309814C298E599B40AAA
:1027300004D2008009744A2571F8A6990571D0D099
:03274000D0E032B4
:03000B000226FBCF
:1026FB00C0E0C0D075D008758A30758CF8E55A15D6
:10270B005AAE59700215594E7006755903755AE831
:05271B00D0D0D0E03237
:1027430078307C007D007BFF7A2679A87E007F0AA3
:102753001216A57B007A0079307D0A1225C3E4F5B1
:012763007104
:012764002252
:1027650078307C007D007BFF7A2679B27E007F0B76
:102775001216A57B007A0079307D0B1225C3E4F58E
:0127850071E2
:012786002230
:1025E70075300678317C007D007BFF7A2679BD7EC9
:1025F700007F071216A57B007A0079317D07122527
:10260700C37F327E001227D8D530F67B007A007957
:10261700317D051225C37530067F327E001227D81B
:0E262700D530F67B007A0079317D050225C39F
:101E610075210AE4F5221221AE12267130C3151232
:101E7100241E007D191224317D19E4FF1224310042
:101E81007D1980227888760008761E08760008760B
:101E91001E7D5812242D007D581224317D58E4FFF7
:101EA100122431007D581224317F017E001227D87F
:101EB100300008120026C200E4F571003002EA1277
:101EC1001AA5121CF0D378CDE6945E18E694014071
:011ED1004BC5
:101ED20078237C007D007BFF7A2679C47E007F090F
:101EE2001216A530C30E1220CA7D037C007F031296
:101EF20020D0800C12226A7D1E7C007F0312227089
:101F0200C2B6C2A67A0079231225BFE4F571FB7A24
:0B1F12000079237530867D071226350C
:0C1F1D00D378CFE6945E18E69401404FA4
:101F290078237C007D007BFF7A2679CD7E007F09AE
:101F39001216A530C30E1220CA7D037C007F03123E
:101F490020D0800C12226A7D1E7C007F0312227031
:101F5900C2B6C2A67B007A0079237D091225C3E4A3
:0F1F6900F571FB7A0079237530967D07122635C6
:101F78001223951225137878E6FC08E6FDE412157D
:101F88001B7B667A66794678401214A950031200C2
:101F980006787AE6FC08E6FDE412151B7B667A668D
:101FA800794678401214A94003021EAA12000602BC
:021FB8001EAA5F
:10120B000215C0E86480F8E933E83360110460F03C
:10121B00ED33EC337009E8FCE9FDEAFEEBFF220449
:10122B0060DED3EB9FEA9EE99DE8C2E78CF0C2F744
:10123B0095F0400CE8CCF8E9CDF9EACEFAEBCFFB10
:10124B0012158B85D0F05804700320D5B3E80470C9
:10125B00075002B2D50215CA92D5EC0460F7E4CC64
:10126B00C0E0C398F8603B94186008400DD0E0FBD9
:10127B000215A2E4FBFAC9FC8028E830E406E4C9B5
:10128B00FBE4CAFCE830E305E4C9CACBFCE854072D
:10129B006010F8C3E913F9EA13FAEB13FBEC13FC38
:1012AB00D8F130F52FC3E49CFCEF9BFFEE9AFEEDDB
:1012BB0099FDD0E0FBEF4E4D4C701222DB03021573
:1012CB00C7EC2CFCEF33FFEE33FEED33FDED30E7D7
:1012DB00EB0215A2EF2BFFEE3AFEED39FDD0E0FB52
:1012EB0050130BBB00030215CAED13FDEE13FEEFFB
:0812FB0013FFEC13FC0215A225
:10130300EC4D6011E8497017ED33EC3304600DE4E4
:10131300FCFFFEFD22E933E8330470F80215C01226
:10132300158B58046009E4CC248150062850090227
:1013330015CA2840030215C7C0E0EB4A7044B980C0
:1013430006D0E0FB0215B6EF4E701CBD8008EBFF24
:10135300EAFEE9FD80EBE98DF0A4FEE5F00213EC73
:10136300E9CDF9EAFEEBFFEF89F0A4FCE5F0CE89C5
:10137300F0A42EFFE435F0CD89F0A42DFEE435F082
:101383008067EF4E7005BD80D780C3EF8BF0A4ACB0
:10139300F0EE8BF0A42CFCE435F0F8EF8AF0A42CEB
:1013A300E5F038FCE433CB8DF0A42CFCE5F03BF8FE
:1013B300EE8AF0A42CFCE5F038F8E433CF89F0A4EE
:1013C3002CFCE5F038CF3400CE89F0A42FFFE5F0F4
:1013D3003EFEE433C98DF0A42EFEE5F039CD8AF04C
:1013E300A42FFFE5F03EFEE43DFD33D0E0FB5007C4
:1013F3000BBB000F0215CAEC2CFCEF33FFEE33FEE0
:06140300ED33FD0215A20D
:101409000215CAEC5D046005E8590470030215C0B1
:1014190012158B580460F6EC4860F2EC7004FDFE7E
:10142900FF22C860DB2481C85009C39860025006B6
:101439000215C79850CAF582E9294B4A7005AB8253
:101449000215B675F0007C1A7880C3EF9BEE9AED11
:1014590099400DC3EF9BFFEE9AFEED99FDE842F02E
:10146900DC23ACF0D0E0FFD0E0FED0E0FDAB822081
:10147900E7101BEB60BAEC2CFCEF33FFEE33FEED0B
:1014890033FD0215A2E803F830E705C0F075F00056
:10149900EF2FFFEE33FEED33FD40B830E7C280AAEF
:1014A90074F8CC6480CCC86480C8F582046043C3F6
:1014B900EB9FF5F0EA9E42F0E99D42F0E89C45F089
:1014C90060305018E5825FFFE582F42B5582FB50AE
:1014D900210ABA001D09B90019088016E5825BFBCB
:1014E900E582F42F5582FF50090EBE00050DBD009F
:1014F900010CC3EB9FF5F0EA9E42F0E99D42F0E84A
:0D1509009C45F06007CC4820E701B3EC22C0
:1015160075F020800E75F010800575F0087D007E50
:10152600007F003392D530D50312175FEC3340109D
:10153600EF33FFEE33FEED33FDEC33FCD5F0ED2259
:0E154600E5F0247EA2D513CC92E7CDCEFF2295
:10155400EDD2E7CD33EC3392D524814006E4FFFE8F
:10156400FDFC22FCE4CFCECDCC24E0501174FF80EE
:10157400EDC3CC13CCCD13CDCE13CECF13CF04708B
:07158400F030D5DE02175F15
:10158B00E9D2E7C933E833F892D5EDD2E7CD33ECA6
:07159B0033FC5002B2D5221F
:1015A200EC30E7100FBF000C0EBE00080DBD0004AA
:1015B2000BEB6014A2D5EB13FCED92E7FD2274FF56
:1015C200FCFDFEFF22E480F8A2D574FF13FC7D80AF
:0315D200E480EFC3
:03000000022309CF
:0C230900787FE4F6D8FD7581E3022350D4
:1015D500E709F608DFFA8046E709F208DFFA803EF8
:1015E50088828C83E709F0A3DFFA8032E309F608E5
:1015F500DFFA8078E309F208DFFA807088828C834D
:10160500E309F0A3DFFA806489828A83E0A3F60800
:10161500DFFA805889828A83E0A3F208DFFA804CDA
:1016250080D280FA80C680D4806980F280338010B1
:1016350080A680EA809A80A880DA80E280CA80331A
:1016450089828A83ECFAE493A3C8C582C8CCC58392
:10165500CCF0A3C8C582C8CCC583CCDFE9DEE78062
:101665000D89828A83E493A3F608DFF9ECFAA9F0E1
:10167500EDFB2289828A83ECFAE0A3C8C582C8CC37
:10168500C583CCF0A3C8C582C8CCC583CCDFEADE50
:10169500E880DB89828A83E493A3F208DFF980CCB2
:1016A50088F0EF60010E4E60C388F0ED2402B404AB
:1016B5000050B9F582EB2402B4040050AF23234552
:0616C5008223901625733C
:1016CB00BB010CE58229F582E5833AF583E02250D4
:1016DB0006E92582F8E622BBFE06E92582F8E2221E
:0D16EB00E58229F582E5833AF583E4932238
:1016F800EF8DF0A4A8F0CF8CF0A428CE8DF0A42E06
:02170800FE22BF
:10170A00BC000BBE0029EF8DF084FFADF022E4CCC3
:10171A00F875F008EF2FFFEE33FEEC33FCEE9DEC8C
:10172A00984005FCEE9DFE0FD5F0E9E4CEFD22EDD2
:10173A00F8F5F0EE8420D21CFEADF075F008EF2F1C
:10174A00FFED33FD4007985006D5F0F222C398FD0D
:05175A000FD5F0EA22AA
:0E175F00C3E49FFFE49EFEE49DFDE49CFC229B
:0C176D00E6FC08E6FD08E6FE08E6FF22A8
:0C177900ECF608EDF608EEF608EFF6229C
:10231500021E61E493A3F8E493A34003F68001F25F
:1023250008DFF48029E493A3F85407240CC8C333C9
:10233500C4540F4420C8834004F456800146F6DF98
:10234500E4800B0102040810204080900016E47E12
:10235500019360BCA3FF543F30E509541FFEE4938D
:10236500A360010ECF54C025E060A840B8E493A354
:10237500FAE493A3F8E493A3C8C582C8CAC583CA7F
:10238500F0A3C8C582C8CAC583CADFE9DEE780BE37
:0100210000DE
:00000001FF
