:1027DB007365746661756C740D0A736574737563D8
:1027EB006365640D0A416C61726D0D0A746D705FE7
:0E27FB006572720D0A746D705F6572720D0A60
:0B001600025903E8017100C100C101A4
:10264E007C007D64121725EF2430F54DAE2CAF2D96
:10265E007C007D0A1217257C007D0A121725ED24B9
:10266E0030F54E754F2EAE2CAF2D7C007D0A121715
:10267E0025ED2430F55075510D75520A7A00794AC0
:04268E007B007D0947
:062692008B3B8A3C893DF0
:10269800E4FFAB3BAA3CA93D8F827583001216E686
:0D26A800F5993099FDC2990FEFC39D40E5F3
:0126B5002202
:1027A400438780759850759C64438E04438E01431F
:1027B4008E10758921538E3F75B71475B824D2AC29
:1027C400D2A9D288D2A8D28AD2AAD2AF758A3075B9
:0727D4008CF8C28DC28C22BB
:10227D00E4F5BDF5BEC200C201F571F56CD2027870
:10228D0072F608F608F608F608F608F67880F608ED
:10229D00F67884F608F6D2C0D2A2C2B7C2A0C2A107
:1022AD007DF97C047F02122500007DF97C047F02FC
:1022BD00122500007DF97C047F01122500007DF9B7
:1022CD007C047F0112250030C3151224ED00122469
:1022DD00FA7D197C00E4FF122500007D1980247819
:1022ED0088760008761E08760008761E7D5C12241E
:1022FD00FC007D5C1224FC7D597C00E4FF1225005E
:10230D00007D597C00E4FF12250075BB30759107E7
:10231D00E4F592D2A4D297D296D2B6D2B5D2A6D2A5
:0C232D00A5C28CC2A9C28EC2ABC2A822FD
:10002600E54AB4491DE54BB44E18E54CB44913E511
:100036004DB4540EE54EB4490912227D1227A4028E
:10004600121DE54A644C60030200EFE54B64446010
:10005600030200EFE54C64316009E54C643260034D
:0C0066000200EFE54D643D60030200EF76
:10007200E54FB40D0DE54E24D0F52DE434FFF52CFB
:100082008046E550B40D0FE54E24D075F00AA4FF6A
:10009200AEF0E54F8020E551B40D2BE54F24D0752D
:1000A200F00AA4FDACF0E54E24D075F064A42DFF57
:1000B200E5F03CFEE55024D0FDE434FFCD2FF52DD4
:1000C200ED3EF52C80028020E54CB43105752E03FF
:1000D2008008E54CB43211E4F52EAD2DAC2CAF2ED8
:0C00E20012233F122873800312285100E3
:1000EE0022E54A64496003020190E54B644E6003C9
:1000FE00020190E54C64496003020190E54D6443B2
:0B010E006003020190E54E643D707735
:10011900E551B40D0DE55024D0F52DE434FFF52C4F
:100129008046E552B40D0FE55024D075F00AA4FFBE
:10013900AEF0E5518020E553B40D2BE55124D0757F
:10014900F00AA4FDACF0E55024D075F064A42DFFAD
:10015900E5F03CFEE55224D0FDE434FFCD2FF52D2A
:10016900ED3EF52C8002801AE54FB45308852C6DBD
:10017900852D6E8010E54FB44108852C6F852D7053
:0601890080031228510062
:10018F0022E54A64497045E54B644E703FE54C6487
:0F019F00497039E54D64457033E54E643D702D70
:1001AE00E550B40D23E54F24D0F52DE434FFF52CA6
:1001BE00C394004016D3E52D9403E52C9400500B08
:0C01CE00852C5B852D5C800312285100FD
:1001DA0022E54A64506003020279E54B6431600902
:1001EA00E54B64326003020279E54C643D60030228
:0201FA00027988
:1001FC00E54EB40D0DE54D24D0F52DE434FFF52C72
:10020C008046E54FB40D0FE54D24D075F00AA4FFE0
:10021C00AEF0E54E8020E550B40D2BE54E24D075A4
:10022C00F00AA4FDACF0E54D24D075F064A42DFFCC
:10023C00E5F03CFEE54F24D0FDE434FFCD2FF52D49
:10024C00ED3EF52C80028020E54CB4310575F903A8
:10025C008008E54CB43211E4F5F9AD2DAC2CAF2E81
:0C026C0012219F122873800312285100F9
:1002780022E54A645460030203A5E54B6431600932
:10028800E54B643260030203A5E54C643D6003025C
:0202980003A5BC
:10029A00F52CF52DF52EF52FE54F640D704AE54D39
:1002AA0024D075F00AA4FFAEF0E54E24D0FDE43464
:1002BA00FFCD2FF52DED3EF52CFEAF2D7C027DB343
:1002CA00121713EF2437FFEE34D8FE7C077DD012C5
:1002DA001725AA06AB07AE2CAF2D7C007D76121728
:1002EA0013EF2BFFEE3A8070E551640D60030203B1
:1002FA00A0E54D24D075F00AA4FFAEF0E54E24D057
:10030A00FDE434FFCD2FF52DED3EF52CFEAF2D7C0F
:10031A00027DB3121713AA06AB07E55075F045A480
:10032A002BFFEA35F0CF2447CF34CBFE7C077DD0B4
:10033A00121725AA06AB07AE2CAF2D7C007D7612CC
:10034A001713EF2BFFEE3AFEE55024D075F03BA4CD
:10035A0075F005842FFFEC3ECF2470F52FEF34F9AA
:10036A00F52EE54BB43112AD2FAC2E7F02122500CB
:10037A0000AD2FAC2E7F028015E54BB43218AD2F9D
:10038A00AC2E7F0112250000AD2FAC2E7F01122565
:0A039A00001228738003122851009E
:1003A40022E54A64506003020460E54B645560032F
:1003B400020460E54C64526003020460E54D64414C
:0E03C4006003020460E54E643D6003020460C5
:1003D200E550B40D0DE54F24D0F52DE434FFF52C96
:1003E200806BE551B40D0FE55024D075F00AA4FFDF
:1003F200AEF0E54F8042E552B40D1DE55024D075B4
:10040200F00AA4FDACF0E54F24D075F064A42DFFF2
:10041200E5F03CFEE5518020E552B40D2BE5502479
:10042200D075F00AA4FDACF0E54F24D075F064A4B9
:100432002DFFE5F03CFEE55124D0FDE434FFCD2F45
:10044200F52DED3EF52C8005122851800FE4FBFAC4
:0D045200FDFCAF2DAE2C1226B61228730053
:10045F0022E54A6450600302051BE54B64556003B7
:10046F0002051BE54C6457600302051BE54D64490B
:0E047F00600302051BE54E643D600302051B91
:10048D00E550B40D0DE54F24D0F52DE434FFF52CDA
:10049D00806BE551B40D0FE55024D075F00AA4FF23
:1004AD00AEF0E54F8042E552B40D1DE55024D075F8
:1004BD00F00AA4FDACF0E54F24D075F064A42DFF37
:1004CD00E5F03CFEE5518020E552B40D2BE55024BE
:1004DD00D075F00AA4FDACF0E54F24D075F064A4FE
:1004ED002DFFE5F03CFEE55124D0FDE434FFCD2F8A
:1004FD00F52DED3EF52C8005122851800FE4FBFA09
:0D050D00AD2DAC2CFFFE1226B61228730097
:10051A0022E54A64447062E54B6445705CE54C64CC
:0F052A004C7056E54D64597050E54E643D704A73
:10053900E550B40D0DE54F24D0F52DE434FFF52C2D
:100549008027E551B40D1DE55024D075F00AA4FFAC
:10055900AEF0E54F24D0FDE434FFCD2FF52DED3E6F
:10056900F52C8005122851800FAB2DAA2CE4FDFC37
:09057900FFFE1226B612287300E1
:1005820022E54A64537042E54B6448703CE54C6492
:10059200447036E54D644E7030E54E643D702AE598
:1005A2004FB4530EE551B40D09E55024D01392B661
:1005B2008011E54FB4410FE551B40D0AE55024D046
:1005C2001392A6122873021222E54A6444705FE570
:1005D2004B644C7059E54C64497053E54D644D7061
:1005E2004DE54E643D7047E551640D703CE54FB4F6
:1005F2005309E55024D01392B58010E54FB4410958
:10060200E55024D01392A58002801E20B5087D32C9
:100612007C007F03800920A50E7D327C00E4FF125E
:10062200233F122873800580001228510022E54AD8
:1006320064536003020A72E54B64546003020A7257
:10064200E54C64416003020A72E54D6454600302A2
:100652000A72E54E64456003020A72E54F643F6028
:0406620003020A7213
:10066600754A0DFB7A00794A7D01122692754A4C2D
:10067600754B44754C31754D3DC37875E6940A1833
:10068600E69400501708E62430F54E754F0D755068
:100696000A7B007A00794A7D0702073AC37875E635
:1006A600946418E694005034E6FA08E6FB7C007D74
:1006B6000AFFAE02121725EF2430F54E7C007D0AA4
:1006C600AF03AE02121725ED2430F54F75500D75A8
:1006D600510A7B007A00794A7D088058C37875E60E
:1006E60094E818E694035051E6FA08E6FB7C007D90
:1006F60064FFAE02121725EF2430F54E7C007D0A0A
:10070600AF03AE021217257C007D0A121725ED24D1
:1007160030F54F7874E6FE08E6FF7C007D0A121776
:1007260025ED2430F55075510D75520A7B007A007F
:10073600794A7D091226928003122851754A4C7512
:100746004B44754C32754D3DC37877E6940A18E6EE
:100756009400501708E62430F54E754F0D75500A73
:100766007B007A00794A7D07020809C37877E69408
:100776006418E694005034E6FA08E6FB7C007D0A2D
:10078600FFAE02121725EF2430F54E7C007D0AAF2E
:1007960003AE02121725ED2430F54F75500D755135
:1007A6000A7B007A00794A7D088058C37877E694F8
:1007B600E818E694035051E6FA08E6FB7C007D64EF
:1007C600FFAE02121725EF2430F54E7C007D0AAFEE
:1007D60003AE021217257C007D0A121725ED243080
:1007E600F54F7876E6FE08E6FF7C007D0A121725AF
:1007F600ED2430F55075510D75520A7B007A00795B
:100806004A7D091226928003122851754A0D7B00F3
:100816007A00794A7D01122692754A50754B3175D8
:100826004C3DC37881E6940A18E69400501708E612
:100836002430F54D754E0D754F0A7B007A00794AC6
:100846007D060208E3C37881E6946418E6940050B6
:1008560034E6FA08E6FB7C007D0AFFAE0212172595
:10086600EF2430F54D7C007D0AAF03AE021217254A
:10087600ED2430F54E754F0D75500A7B007A0079E0
:100886004A7D078058C37881E694E818E6940350B9
:1008960051E6FA08E6FB7C007D64FFAE02121725DE
:1008A600EF2430F54D7C007D0AAF03AE021217250A
:1008B6007C007D0A121725ED2430F54E7880E6FE81
:1008C60008E6FF7C007D0A121725ED2430F54F75EA
:1008D600500D75510A7B007A00794A7D08122692DE
:1008E6008003122851754A50754B32754C3DC378BA
:1008F60085E6940A18E69400501708E62430F54D6C
:10090600754E0D754F0A7B007A00794A7D060209FD
:10091600AFC37885E6946418E694005034E6FA0886
:10092600E6FB7C007D0AFFAE02121725EF2430F5A8
:100936004D7C007D0AAF03AE02121725ED2430F57B
:100946004E754F0D75500A7B007A00794A7D0780F7
:1009560058C37885E694E818E694035051E6FA08F9
:10096600E6FB7C007D64FFAE02121725EF2430F50E
:100976004D7C007D0AAF03AE021217257C007D0A6E
:10098600121725ED2430F54E7884E6FE08E6FF7C46
:10099600007D0A121725ED2430F54F75500D75515F
:1009A6000A7B007A00794A7D081226928003122873
:1009B60051754A0D7B007A00794A7D01122692789C
:1009C6009812178812156F8E2C8F2D754A54754BF9
:1009D60031754C3DC3E52D94E8E52C940350051282
:1009E600264E8003122712789C12178812156F8ED6
:1009F6002C8F2D754A54754B32754C3DC3E52D949D
:100A0600E8E52C9403500512264E80031227127532
:100A16004A0D7B007A00794A7D0112269230A30E98
:100A2600754A54754B31754C4F754D4B800C754A54
:100A360054754B31754C4E754D4F754E0D754F0AAD
:100A46007B007A00794A7D0612269230A70F754AF6
:100A560054754B32754C4F754D4B020C81754A548B
:090A6600754B32754C4E754D4F75
:100A6F00020C81E54A644C6003020B9EE54B644423
:100A7F006003020B9EE54C64316009E54C64326003
:100A8F0003020B9EE54D643F6003020B9EE54C6431
:100A9F00317067754A4C754B44754C31754D3DC37C
:100AAF007875E6940A18E694005002806EC3787544
:100ABF00E6946418E6940050028071C37875E6944A
:100ACF00E818E694035030E6FA08E6FB7C007D64F4
:100ADF00FFAE02121725EF2430F54E7C007D0AAFD2
:100AEF0003AE021217257C007D0A121725ED243064
:100AFF00F54F7874020B93021222E54C64326003B7
:100B0F00021225754A4C754B44754C32754D3DC3D9
:100B1F007877E6940A18E69400500508E6020CBEB2
:100B2F00C37877E6946418E69400501FE6FA08E657
:100B3F00FB7C007D0AFFAE02121725EF2430F54E25
:100B4F007C007D0AAF03AE02020D15C37877E694E1
:100B5F00E818E694035035E6FA08E6FB7C007D645E
:100B6F00FFAE02121725EF2430F54E7C007D0AAF41
:100B7F0003AE021217257C007D0A121725ED2430D3
:100B8F00F54F7876E6FE08E6FF020DA5021222E584
:100B9F004A64506003020D31E54B64316009E54B47
:100BAF0064326003020D31E54C643F6003020D3186
:100BBF00E54B64316003020C5D754A50754B31751E
:100BCF004C3DC37881E6940A18E69400500908E674
:100BDF002430F54D020C81C37881E6946418E694B5
:100BEF00005023E6FA08E6FB7C007D0AFFAE0212F6
:100BFF001725EF2430F54D7C007D0AAF03AE0212AE
:100C0F001725ED020CBEC37881E694E818E694032D
:100C1F005039E6FA08E6FB7C007D64FFAE0212173E
:100C2F0025EF2430F54D7C007D0AAF03AE0212177D
:100C3F00257C007D0A121725ED2430F54E7880E6CD
:100C4F00FE08E6FF7C007D0A020D15021222E54B1D
:100C5F0064326003021225754A50754B32754C3D54
:100C6F00C37885E6940A18E69400501708E62430F6
:100C7F00F54D754E0D754F0A7B007A00794A7D064A
:100C8F000211F2C37885E6946418E694005035E6B5
:100C9F00FA08E6FB7C007D0AFFAE02121725EF244F
:100CAF0030F54D7C007D0AAF03AE02121725ED24FF
:100CBF0030F54E754F0D75500A7B007A00794A7DDD
:100CCF00070211F2C37885E694E818E69403504FB3
:100CDF00E6FA08E6FB7C007D64FFAE02121725EFF3
:100CEF002430F54D7C007D0AAF03AE021217257C30
:100CFF00007D0A121725ED2430F54E7884E6FE08A4
:100D0F00E6FF7C007D0A121725ED2430F54F755054
:100D1F000D75510A7B007A00794A7D080211F202A3
:100D2F001222E54A64546003020E35E54B643160CC
:100D3F0009E54B64326003020E35E54C643F6003F6
:030D4F00020E355C
:100D5200E54B6431706A789812178812156F8E2CE1
:100D62008F2D754A54754B31754C3DC3E52D94E872
:100D7200E52C94034003020E327C007D6412172599
:100D8200EF2430F54DAE2CAF2D7C007D0A121725D5
:100D92007C007D0A121725ED2430F54E754F2EAEDC
:100DA2002CAF2D7C007D0A121725ED2430F55075ED
:100DB200510D75520A7B007A00794A7D090211F2BF
:100DC200E54B64326003021225789C1217881215D3
:100DD2006F8E2C8F2D754A54754B32754C3DC3E581
:100DE2002D94E8E52C940350477C007D641217256E
:100DF200EF2430F54DAE2CAF2D7C007D0A12172565
:100E02007C007D0A121725ED2430F54E754F2EAE6B
:100E12002CAF2D7C007D0A121725ED2430F550757C
:100E2200510D75520A7B007A00794A7D090211F24E
:030E320002271282
:100E3500E54A64506003020F54E54B6444600302C5
:100E45000F54E54C64496003020F54E54D6443605B
:100E550003020F54E54E643F6003020F54787CE6AD
:100E6500FA08E6FB7C0F7DFFFFAE021217258F50B7
:100E75007C0F7DFFAF03AE021217257E007F0A129D
:100E85001713AA06AB077C0F7DFF1217258F527C1F
:100E95000F7DFFAF03AE021217257E007F0A1217E2
:100EA500137C0F7DFF1217258F53754E53754F3DDC
:100EB50074302550F55075512E74302552F5527405
:100EC500302553F55375540D75550A7B007A007915
:100ED5004A7D0C122692787EE6FA08E6FB7C0F7DA9
:100EE500FFFFAE021217258F507C0F7DFFAF03AEBB
:100EF500021217257E007F0A121713AA06AB077C7C
:100F05000F7DFF1217258F527C0F7DFFAF03AE02B9
:100F15001217257E007F0A1217137C0F7DFF12170B
:100F2500258F53754E41754F3D74302550F55075DD
:100F3500512E74302552F55274302553F55375549E
:100F45000D75550A7B007A00794A7D0C0211F2E590
:100F55004A64566003021041E54B644F600302107A
:100F650041E54C64546003021041E54D6443600360
:100F7500021041E54E643F60030210417878E6FCBB
:100F850008E6FDEC1313543FF550EC5403FEAF0592
:100F95007C007D0A121713AC06EC1313543FF5526F
:100FA500EC5403FE7C00121713EE1313543FF55354
:100FB500754E53754F3D74302550F55075512E744F
:100FC500302552F55274302553F55375540D75552A
:100FD5000A7B007A00794A7D0C122692787AE6FC23
:100FE50008E6FDEC1313543FF550EC5403FEAF0532
:100FF5007C007D0A121713AC06EC1313543FF5520F
:10100500EC5403FE7C00121713EE1313543FF553F3
:10101500754E41754F3D74302550F55075512E7400
:10102500302552F55274302553F55375540D7555C9
:101035000A7B007A00794A7D0C0211F2E54A645474
:10104500707BE54B64507075E54C6447706FE54DFA
:1010550064447069E54E643F706330A315754E5363
:10106500754F2075504F75514B75520D75530AFBD1
:101075008014754E53754F2075504E75514F7552EE
:101085000D75530A7B007A00794A7D0A1226923043
:10109500A70E754E41754F2075504F75514B800CFD
:1010A500754E41754F2075504E75514F75520D75E2
:1010B500530A7B007A00794A7D0A0211F2E54A64F7
:1010C500556003021190E54B64546003021190E5ED
:1010D5004C64456003021190E54D644360030211C1
:1010E50090E54E643F600302119030B624754A5472
:1010F500754B45754C43754D31754E20754F4F7584
:10110500504E75510D75520AFB7A00794A7D09805A
:1011150026754A54754B45754C43754D31754E20B2
:10112500754F4F75504675514675520D75530A7B6F
:10113500007A00794A7D0A12269230A626754A540D
:10114500754B45754C43754D32754E20754F4F7532
:10115500504E75510D75520A7B007A00794A7D090A
:101165000211F2754A54754B45754C43754D3275F0
:101175004E20754F4F75504675514675520D755336
:101185000A7B007A00794A7D0A8062E54A644370E9
:101195005FE54B644D7059E54C644F7053E54D6404
:1011A50044704DE54E643F704730C31E754A4D751A
:1011B5004B4F754C44754D3D754E41754F507550AF
:1011C5004375510D75520AFB801D754A4D754B4F80
:1011D500754C44754D3D754E41754F43755043757E
:1011E500510D75520A7B007A00794A7D09022692D3
:1011F500E54A64537027E54B644D7021E54C644F17
:10120500701BE54DB44416E54EB43D11E550B40DE3
:101215000AE54F24D0139202022873800012285148
:0112250022A6
:101B8E00753510E478D0F608F608F608F6E4FF127C
:101B9E0020957872EEF608EFF678D0E6FC08E62F80
:101BAE00F6EE3C18F67F031220957872EEF608EFEB
:101BBE00F678D2E6FC08E62FF6EE3C18F6D535CDD3
:101BCE0079D0E7C4F854F0C868F709E7C4540F4851
:101BDE00F709E7C4F854F0C868F709E7C4540F488A
:101BEE00F778D0E6FE08E6FF7C007D0F1217137C17
:101BFE00037D00121725AA06AB0778D0E6FE08E68D
:101C0E00FF7C007D051217130D121725C3EF9BFFE6
:101C1E00EE9AC313FEEF13FF7874EEF608EFF67824
:101C2E0082A60608F6C3940AEE940050137875E661
:101C3E00243078A0F608766D087641087620803834
:101C4E00C37875E6946418E694005031E6FA08E617
:101C5E00FB7C007D0AFFAE02121725EF243078A020
:101C6E00F67C007D0AAF03AE02121725ED24307804
:101C7E00A1F608766D0876410876208059C37875EE
:101C8E00E694E818E69403504DE6FA08E6FB7C006D
:101C9E007D64FFAE02121725EF243078A0F67C008B
:101CAE007D64AF03AE021217257E007F0ACFCDCF23
:101CBE00CECCCE121725EF243078A1F67874E6FE3E
:101CCE0008E6FF7C007D0A121725ED243078A2F677
:101CDE0008766D08764178D2E6FE08E6FF7C007D38
:101CEE000F1217137C037D00121725AA06AB077877
:101CFE00D2E6FE08E6FF7C007D051217130D1217C3
:101D0E0025C3EF9BFFEE9AC313FEEF13FF7876EE1B
:101D1E00F608EFF67886A60608F6C3940AEE940047
:101D2E0050137877E6243078A6F608766D0876415B
:101D3E000876208038C37877E6946418E6940050CD
:101D4E0030E6FA08E6FB7C007D0AFFAE021217258C
:101D5E00EF243078A6F67C007D0AAF03AE02121790
:101D6E0025ED243078A7F608766D087641087620A2
:101D7E0022C37877E694E818E69403504DE6FA0805
:101D8E00E6FB7C007D64FFAE02121725EF2430784F
:101D9E00A6F67C007D64AF03AE021217257E007F8F
:101DAE000ACFCDCFCECCCE121725EF243078A7F6A2
:101DBE007876E6FE08E6FF7C007D0A121725ED24F4
:0A1DCE003078A8F608766D0876411B
:011DD80022E8
:10186E00753D0AE478E0F608F608F608F67F0112F0
:10187E0020957872EEF608EFF678E01220897872ED
:10188E00EEF608EFF678E2E6FC08E62FF6EE3C18E8
:10189E00F6D53DD978E0E6FE08E6FF7C007D0A121B
:1018AE00172578E0A60608A60708E6FE08E6FF7CE0
:1018BE00007D0A12172578E2A60608A60778E0E64C
:1018CE00FE08E6FF7872EEF6FE08EFF6FFFDAC06B8
:1018DE00E41215368F418E408D3F8C3EE4FBFA7933
:1018EE0020784012131E8F418E408D3F8C3EE4FBBC
:1018FE00FA798078451214277B9D7A1179A5783C68
:10190E0012122D8F418E408D3F8C3EA804A905AA40
:10191E0006AB0712131E7BC57AA079EA7842121322
:10192E001EC004C005C006C0077F817EC57D897CB0
:10193E0043AB41AA40A93FA83E12131ED003D002CA
:10194E00D001D00012122D7B047A56794E78BF1238
:10195E00122D8F458E448D438C4212156F7880EE7A
:10196E00F608EFF678ACA60608F6C3940AEE9400D5
:10197E0050137881E6243078C0F608766D087677B5
:10198E000876208038C37881E6946418E694005077
:10199E0031E6FA08E6FB7C007D0AFFAE021217253F
:1019AE00EF243078C0F67C007D0AAF03AE0212172A
:1019BE0025ED243078C1F608766D08767708762006
:1019CE008059C37881E694E818E694035050E6FAFD
:1019DE0008E6FB7C007D64FFAE02121725EF243073
:1019EE0078C0F67C007D64AF03AE021217257E0030
:1019FE007F0ACFCDCFCECCCE121725EF243078C1B3
:101A0E00F67880E6FE08E6FF7C007D0A121725EDCB
:101A1E00243078C2F608766D08767708762078E25C
:101A2E00E6FE08E6FF7872EEF6FE08EFF6FFFDAC76
:101A3E0006E41215368F418E408D3F8C3EE4FBFA44
:101A4E007920784012131E8F418E408D3F8C3EE4DC
:101A5E00FBFA798078451214277B9D7A1179A57847
:101A6E003C12122D8F418E408D3F8C3EA804A9054D
:101A7E00AA06AB0712131E7BC57AA079EA7842122A
:101A8E00131EC004C005C006C0077F817EC57D89B8
:101A9E007C43AB41AA40A93FA83E12131ED003D0EF
:101AAE0002D001D00012122D7B047A56794E78BFE7
:101ABE0012122D8F458E448D438C4212156F7884F1
:101ACE00EEF608EFF678AEA60608F6C3940AEE9484
:101ADE000050137885E6243078C6F608766D0876C1
:101AEE00770876208038C37885E6946418E69400EB
:101AFE005031E6FA08E6FB7C007D0AFFAE021217B3
:101B0E0025EF243078C6F67C007D0AAF03AE0212B4
:101B1E001725ED243078C7F608766D0876770876A7
:101B2E00208059C37885E694E818E694035050E671
:101B3E00FA08E6FB7C007D64FFAE02121725EF2447
:101B4E003078C6F67C007D64AF03AE021217257E98
:101B5E00007F0ACFCDCFCECCCE121725EF24307812
:101B6E00C7F67884E6FE08E6FF7C007D0A1217258C
:0F1B7E00ED243078C8F608766D08767708762063
:011B8D002235
:101DD900E4F52CF52DF52EF52F75301078DCF60885
:101DE900F608F608F67F021220957872EEF608EFEB
:101DF900F678DCE6FC08E62FF6EE3C18F67F0512CD
:101E090020957872EEF608EFF678DEE6FC08E62F04
:101E1900F6EE3C18F6D530CD79DCE7C4F854F0C8B5
:101E290068F709E7C4540F48F709E7C4F854F0C83C
:101E390068FE09E7C4540F48FF78DEEEF608EFF6AE
:101E490078DCE6FC08E6FD78CCA60408A60508A619
:101E59000608A60778CCE6FC08E6FDE41215367BF1
:101E6900327A6679BD78411214277B667A66790ED3
:101E7900784312122D789812179478CEE6FC08E66A
:101E8900FDE41215367B327A6679BD784112142742
:101E99007B667A66790E784312122D789C12179414
:101EA900789812178812156F8E2C8F2D78CCA62C46
:101EB90008A62D789C12178812156F8E2E8F2F78F1
:101EC900CEA62E08A62FAE2CAF2D7C007D6412174E
:101ED90025EF2430788CF6AE2CAF2D7C007D0A12CC
:101EE90017257C007D0A121725ED2430788DF60818
:101EF900762EAE2CAF2D7C007D0A121725ED2430ED
:101F0900788FF6AE2EAF2F7C007D64121725EF2453
:101F1900307892F6AE2EAF2F7C007D0A1217257C01
:101F2900007D0A121725ED24307893F608762EAE37
:101F39002EAF2F7C007D0A121725ED24307895F6F7
:011F49002275
:1025E200752C14E478D8F608F608F608F67F01127E
:1025F200256A79B1E778D926F619E71836F67F0207
:1026020012256A79B1E778DB26F619E71836F6D58E
:102612002CDB78D8E6FE08E6FF7C007D1412172535
:10262200AA06AB077878EAF608EBF67C007D05127D
:1026320017137878A60608A60708EAF6FE08EBF64E
:0B264200FF121713787AA60608A607FF
:01264D00226A
:10246400752C0AE478D4F608F608F608F67F01120B
:1024740020957872EEF608EFF678D41220897872F7
:10248400EEF608EFF678D6E6FC08E62FF6EE3C18F2
:10249400F6D52CD978D4E6FE08E6FF7C007D0A1236
:1024A4001725787CEEF6FA08EFF6FB78D6E6FE08F8
:1024B400E6FF7C007D0A121725787EA60608A6078B
:1024C4007C007D05AF03AE02121713EEC313797CB3
:1024D400F7EF1309F7787EE6FE08E6FF121713EE0E
:0824E400C31309F7EF1309F718
:0124EC0022CD
:062199007D037C00E4FF61
:06219F008F308C318D32FF
:1021A500C3E5329403E5319400500675310075326C
:1021B50003D3E5329458E531940240067531027532
:1021C5003258AC31AD32E41215368F368E358D343A
:1021D5008C33A804A905AA06AB0712131EE4FBFA63
:1021E500797A78441214277BA47A70795D78401245
:1021F500131E8F3A8E398D388C377FB57E377DD05B
:102205007C40AB36AA35A934A83312131E7B487A15
:10221500E179EC784112122DAB3AAA39A938A837E1
:102225001212298F3A8E398D388C3712156F8E3BE5
:102235008F3CE530B4031A30B613AD3CAC3B7F039D
:1022450012250000AD3CAC3B7F0312250078B2801F
:102255001BE530701E30A612AD3CAC3BFF122500CD
:1022650000AD3CAC3BE4FF12250078B4A63108A6CE
:072275003280010012186E17
:01227C00223F
:062339007D1E7C00E4FFA4
:06233F008F308C318D325D
:10234500C3E532941EE531940050067531007532AF
:102355001ED3E5329484E531940340067531037547
:102365003284AE31AF327C007D091217137D7D12A8
:102375001725AA06AB07AE31AF327C007D031217D5
:1023850013EF2BF534EE3AF533E530B4032030B6D0
:102395001AAD34AC337F0312250000AD34AC337F66
:1023A500031225007888A63108A632008021E53081
:1023B500701D30A619AD34AC33FF12250000AD34C5
:1023C500AC33E4FF122500788AA63108A632001244
:0223D5001B8E5D
:0123D70022E3
:0C208900E6FC08E62FF6EE3C18F67F049B
:10209500E4F546F547F9F548F549EFB40800503D34
:1020A5009020ACF82828730220C40220C80220CC56
:1020B5000220D00220D40220D80220DC0220E0E455
:1020C500FD801A7D0880167D1080127D18800E7D9A
:1020D50020800A7D2880067D3080027D38C2A400DC
:1020E500D297E4FB74807E00A803088006CEA2E7A1
:1020F50013CE13D8F8FFEDF582EF558224FF9295A4
:10210500C29700D297000BBB08DAD2A400C2A40084
:10211500E4FB74807E00A803088006CEA2E713CEF8
:1021250013D8F8FFEDF582EF558224FF9295C297FB
:1021350000D29700A296E433F546C374079BFFE5EA
:1021450046A807088002C333D8FCF54642010BBBFD
:1021550008C08946E4F9FBC29700D297A296E433FA
:10216500F547C374079BFFE547A807088002C333FB
:10217500D8FCF5474201000BBB08DC8947E546FE64
:10218500E5477A002400FFEA3E540FF5488F49D20F
:03219500A400FEA5
:012198002224
:0826B6008C308D318A328B3328
:1026BE00D3EF9400EE94004028AB07AA06E4F9F895
:1026CE007F407E427D0FFC122760EC121531E4FB39
:1026DE00FA7948784112142712156F8E348F35D23D
:1026EE00C5D3E5319400E53094004006853036853B
:1026FE003137D3E5339400E5329400400685323805
:03270E00853339D7
:0127110022A5
:1024ED0078B276000876030876000876037D197CAD
:0324FD00007F035A
:042500008C3D8D3E43
:10250400E4FBFAEF14601514601D146025240370B5
:102514002AE4253EFBE53D3410FA801FE4253EFB0A
:10252400E53D3450FA8014E4253EFBE53D3490FA51
:102534008009E4253EFBE53D34D0FAD2A200C2C0B6
:10254400D2B700C2B7E4FDEA3392A1D2A0EB25E0F2
:10255400FBEA33FA00C2A00DBD10ECC2A200D2C047
:05256400E4F53DF53E29
:01256900224F
:10256A00EF14601314601514601724FC6018240714
:10257A007017759D018012759D02800D759D0480EE
:10258A0008759D088003759D8053A2FBE4F5BDF58F
:10259A00BE53070775BC4000EF42BC0043BC807FB6
:1025AA000A7E001228BD43BC087F0A7E001228BD9D
:1025BA00E4FFEF7007E5BC5410FF80F653BCE7E474
:1025CA00F59DAFBDEF75F004A4AEF0ADBE7C002D55
:0725DA0078B1F6EC3E18F6A3
:0125E10022D7
:020006000022D6
:10289500E4FDFCED1D70011CED4C70F7EF1F7001A0
:0528A5001EEF4E70EE75
:0128AA00220B
:0A28BD00EF1F70011EEF4E70F722AE
:030003000228AB25
:1028AB0020B50512000680010020A5041200063297
:0228BB000032E9
:03001300020008E0
:020008000032C4
:0300230002282E82
:10282E00C0E0C0D075D018309814C298E599B40A9B
:10283E0004D2008009744A2571F8A6990571D0D08A
:03284E00D0E032A5
:03000B00022809BF
:10280900C0E0C0D075D008758A30758CF8E55A15C6
:102819005AAE59700215594E7006755903755AE822
:05282900D0D0D0E03228
:1028510078307C007D007BFF7A2779DB7E007F0A60
:102861001216C07B007A0079307D0A122692E4F5B7
:0128710071F5
:012872002243
:1028730078307C007D007BFF7A2779E57E007F0B33
:102883001216C07B007A0079307D0B122692E4F594
:0128930071D3
:012894002221
:1027120075300678317C007D007BFF7A2779F07E68
:10272200007F071216C07B007A0079317D071226DE
:10273200927F327E00122895D530F67B007A00799E
:10274200317D051226927530067F327E0012289561
:0E275200D530F67B007A0079317D05022692A3
:101F4A0075210AE4F52212227D1227A430C3151244
:101F5A0024ED007D191225007D19E4FF12250000E9
:101F6A007D1980227888760008761E087600087621
:101F7A001E7D581224FC007D581225007D58E4FF6E
:101F8A00122500007D581225007F017E0012289537
:101F9A00300008120026C200E4F571003002EA128D
:101FAA001B8E121DD9D378CDE6945E18E6940140B3
:011FBA003EE8
:101FBB0078237C007D007BFF7A2779F77E007F09F1
:101FCB001216C030C30E1221997D037C007F0312C1
:101FDB00219F800C1223397D1E7C007F0312233F2F
:0E1FEB00C2B6C2A67A00792312268EE4F571E2
:0C1FF900D378CFE6945E18E694014042D5
:1020050078237C007D007BFF7A2879007E007F099C
:102015001216C030C30E1221997D037C007F031276
:10202500219F800C1223397D1E7C007F0312233FE4
:10203500C2B6C2A67B007A0079237D09122692E4F6
:02204500F57133
:102047001224641225E27878E6FC08E6FDE412150E
:10205700367B667A66794678401214C450031200BC
:1020670006787AE6FC08E6FDE41215367B667A66A2
:10207700794678401214C44003021F9312000602E7
:022087001F93A5
:101226000215DBE86480F8E933E83360110460F006
:10123600ED33EC337009E8FCE9FDEAFEEBFF22042E
:1012460060DED3EB9FEA9EE99DE8C2E78CF0C2F729
:1012560095F0400CE8CCF8E9CDF9EACEFAEBCFFBF5
:101266001215A685D0F05804700320D5B3E8047093
:10127600075002B2D50215E592D5EC0460F7E4CC2E
:10128600C0E0C398F8603B94186008400DD0E0FBBE
:101296000215BDE4FBFAC9FC8028E830E406E4C97F
:1012A600FBE4CAFCE830E305E4C9CACBFCE8540712
:1012B6006010F8C3E913F9EA13FAEB13FBEC13FC1D
:1012C600D8F130F52FC3E49CFCEF9BFFEE9AFEEDC0
:1012D60099FDD0E0FBEF4E4D4C701222DB03021558
:1012E600E2EC2CFCEF33FFEE33FEED33FDED30E7A1
:1012F600EB0215BDEF2BFFEE3AFEED39FDD0E0FB1C
:1013060050130BBB00030215E5ED13FDEE13FEEFC4
:0813160013FFEC13FC0215BDEE
:10131E00EC4D6011E8497017ED33EC3304600DE4C9
:10132E00FCFFFEFD22E933E8330470F80215DB12F0
:10133E0015A658046009E4CC2481500628500902F1
:10134E0015E52840030215E2C0E0EB4A7044B9806F
:10135E0006D0E0FB0215D1EF4E701CBD8008EBFFEE
:10136E00EAFEE9FD80EBE98DF0A4FEE5F00214073C
:10137E00E9CDF9EAFEEBFFEF89F0A4FCE5F0CE89AA
:10138E00F0A42EFFE435F0CD89F0A42DFEE435F067
:10139E008067EF4E7005BD80D780C3EF8BF0A4AC95
:1013AE00F0EE8BF0A42CFCE435F0F8EF8AF0A42CD0
:1013BE00E5F038FCE433CB8DF0A42CFCE5F03BF8E3
:1013CE00EE8AF0A42CFCE5F038F8E433CF89F0A4D3
:1013DE002CFCE5F038CF3400CE89F0A42FFFE5F0D9
:1013EE003EFEE433C98DF0A42EFEE5F039CD8AF031
:1013FE00A42FFFE5F03EFEE43DFD33D0E0FB5007A9
:10140E000BBB000F0215E5EC2CFCEF33FFEE33FEA9
:06141E00ED33FD0215BDD7
:101424000215E5EC5D046005E8590470030215DB60
:101434001215A6580460F6EC4860F2EC7004FDFE48
:10144400FF22C860DB2481C85009C398600250069B
:101454000215E29850CAF582E9294B4A7005AB821D
:101464000215D175F0007C1A7880C3EF9BEE9AEDDB
:1014740099400DC3EF9BFFEE9AFEED99FDE842F013
:10148400DC23ACF0D0E0FFD0E0FED0E0FDAB822066
:10149400E7101BEB60BAEC2CFCEF33FFEE33FEEDF0
:1014A40033FD0215BDE803F830E705C0F075F00020
:1014B400EF2FFFEE33FEED33FD40B830E7C280AAD4
:1014C40074F8CC6480CCC86480C8F582046043C3DB
:1014D400EB9FF5F0EA9E42F0E99D42F0E89C45F06E
:1014E40060305018E5825FFFE582F42B5582FB5093
:1014F400210ABA001D09B90019088016E5825BFBB0
:10150400E582F42F5582FF50090EBE00050DBD0083
:10151400010CC3EB9FF5F0EA9E42F0E99D42F0E82E
:0D1524009C45F06007CC4820E701B3EC22A5
:1015310075F020800E75F010800575F0087D007E35
:10154100007F003392D530D50312177AEC33401067
:10155100EF33FFEE33FEED33FDEC33FCD5F0ED223E
:0E156100E5F0247EA2D513CC92E7CDCEFF227A
:10156F00EDD2E7CD33EC3392D524814006E4FFFE74
:10157F00FDFC22FCE4CFCECDCC24E0501174FF80D3
:10158F00EDC3CC13CCCD13CDCE13CECF13CF047070
:07159F00F030D5DE02177ADF
:1015A600E9D2E7C933E833F892D5EDD2E7CD33EC8B
:0715B60033FC5002B2D52204
:1015BD00EC30E7100FBF000C0EBE00080DBD00048F
:1015CD000BEB6014A2D5EB13FCED92E7FD2274FF3B
:1015DD00FCFDFEFF22E480F8A2D574FF13FC7D8094
:0315ED00E480EFA8
:030000000223D800
:0C23D800787FE4F6D8FD7581E302241F35
:1015F000E709F608DFFA8046E709F208DFFA803EDD
:1016000088828C83E709F0A3DFFA8032E309F608C9
:10161000DFFA8078E309F208DFFA807088828C8331
:10162000E309F0A3DFFA806489828A83E0A3F608E5
:10163000DFFA805889828A83E0A3F208DFFA804CBF
:1016400080D280FA80C680D4806980F28033801096
:1016500080A680EA809A80A880DA80E280CA8033FF
:1016600089828A83ECFAE493A3C8C582C8CCC58377
:10167000CCF0A3C8C582C8CCC583CCDFE9DEE78047
:101680000D89828A83E493A3F608DFF9ECFAA9F0C6
:10169000EDFB2289828A83ECFAE0A3C8C582C8CC1C
:1016A000C583CCF0A3C8C582C8CCC583CCDFEADE35
:1016B000E880DB89828A83E493A3F208DFF980CC97
:1016C00088F0EF60010E4E60C388F0ED2402B40490
:1016D0000050B9F582EB2402B4040050AF23234537
:0616E00082239016407306
:1016E600BB010CE58229F582E5833AF583E02250B9
:1016F60006E92582F8E622BBFE06E92582F8E22203
:0D170600E58229F582E5833AF583E493221C
:10171300EF8DF0A4A8F0CF8CF0A428CE8DF0A42EEA
:02172300FE22A4
:10172500BC000BBE0029EF8DF084FFADF022E4CCA8
:10173500F875F008EF2FFFEE33FEEC33FCEE9DEC71
:10174500984005FCEE9DFE0FD5F0E9E4CEFD22EDB7
:10175500F8F5F0EE8420D21CFEADF075F008EF2F01
:10176500FFED33FD4007985006D5F0F222C398FDF2
:051775000FD5F0EA228F
:10276000C2D5E830E70FB2D5E4C39BFBE49AFAE4A4
:1027700099F9E498F8EC30E717B2D51227961217BA
:10278000DCE4C39BFBE49AFAE499F9E498F880034B
:102790001217DC30D50DE4C39FFFE49EFEE49DFDDF
:0427A000E49CFC2297
:0E177A00C3E49FFFE49EFEE49DFDE49CFC2280
:0C178800E6FC08E6FD08E6FE08E6FF228D
:0C179400ECF608EDF608EEF608EFF62281
:1023E400021F4AE493A3F8E493A34003F68001F2A6
:1023F40008DFF48029E493A3F85407240CC8C333FA
:10240400C4540F4420C8834004F456800146F6DFC8
:10241400E4800B0102040810204080900016E47E42
:10242400019360BCA3FF543F30E509541FFEE493BD
:10243400A360010ECF54C025E060A840B8E493A384
:10244400FAE493A3F8E493A3C8C582C8CAC583CAAF
:10245400F0A3C8C582C8CAC583CADFE9DEE780BE67
:0100210000DE
:1017A00075F008758200EF2FFFEE33FECD33CDCC00
:1017B00033CCC58233C5829BED9AEC99E582984083
:1017C0000CF582EE9BFEED9AFDEC99FC0FD5F0D660
:1017D000E4CEFBE4CDFAE4CCF9A88222B800C1B98A
:1017E0000059BA002DEC8BF084CFCECDFCE5F0CBC8
:1017F000F97818EF2FFFEE33FEED33FDEC33FCEB01
:1018000033FB10D703994004EB99FB0FD8E5E4F9BB
:10181000FA227818EF2FFFEE33FEED33FDEC33FCA8
:10182000C933C910D7059BE99A4007EC9BFCE99A9C
:10183000F90FD8E0E4C9FAE4CCFB2275F010EF2FE1
:10184000FFEE33FEED33FDCC33CCC833C810D707E1
:101850009BEC9AE899400AED9BFDEC9AFCE899F81C
:0E1860000FD5F0DAE4CDFBE4CCFAE4C8F922AF
:00000001FF
